{
    "contractName": "Service",
    "abi": [
        {
            "inputs": [],
            "stateMutability": "nonpayable",
            "type": "constructor"
        },
        {
            "inputs": [],
            "name": "customer",
            "outputs": [
                {
                    "internalType": "address payable",
                    "name": "",
                    "type": "address"
                }
            ],
            "stateMutability": "view",
            "type": "function"
        },
        {
            "inputs": [
                {
                    "internalType": "uint256",
                    "name": "_serviceID",
                    "type": "uint256"
                },
                {
                    "internalType": "uint256",
                    "name": "_count",
                    "type": "uint256"
                }
            ],
            "name": "customer_selection",
            "outputs": [
                {
                    "internalType": "bool",
                    "name": "",
                    "type": "bool"
                }
            ],
            "stateMutability": "payable",
            "type": "function"
        },
        {
            "inputs": [],
            "name": "deposit",
            "outputs": [
                {
                    "internalType": "uint256",
                    "name": "",
                    "type": "uint256"
                },
                {
                    "internalType": "uint256",
                    "name": "",
                    "type": "uint256"
                }
            ],
            "stateMutability": "payable",
            "type": "function"
        },
        {
            "inputs": [],
            "name": "get_price",
            "outputs": [
                {
                    "internalType": "uint256",
                    "name": "",
                    "type": "uint256"
                }
            ],
            "stateMutability": "view",
            "type": "function"
        },
        {
            "inputs": [
                {
                    "internalType": "address",
                    "name": "",
                    "type": "address"
                }
            ],
            "name": "orders",
            "outputs": [
                {
                    "internalType": "uint256",
                    "name": "wallet_bal",
                    "type": "uint256"
                },
                {
                    "internalType": "uint256",
                    "name": "service_count",
                    "type": "uint256"
                }
            ],
            "stateMutability": "view",
            "type": "function"
        },
        {
            "inputs": [],
            "name": "return_overpay",
            "outputs": [],
            "stateMutability": "payable",
            "type": "function"
        },
        {
            "inputs": [
                {
                    "internalType": "uint256",
                    "name": "",
                    "type": "uint256"
                }
            ],
            "name": "services",
            "outputs": [
                {
                    "internalType": "uint256",
                    "name": "id",
                    "type": "uint256"
                },
                {
                    "internalType": "string",
                    "name": "name",
                    "type": "string"
                },
                {
                    "internalType": "uint256",
                    "name": "cost",
                    "type": "uint256"
                }
            ],
            "stateMutability": "view",
            "type": "function"
        },
        {
            "inputs": [
                {
                    "internalType": "uint256",
                    "name": "_price",
                    "type": "uint256"
                }
            ],
            "name": "set_price",
            "outputs": [],
            "stateMutability": "nonpayable",
            "type": "function"
        }
    ],
    "bytecode": "60806040523480156200001157600080fd5b5064174876e800600090815560015560408051808201909152601c81527f56656869636c6520526567697374726174696f6e2052656e6577616c0000000060208201526200005f9062000268565b60408051808201909152600e81526d41646472657373204368616e676560901b60208201526200008f9062000268565b60408051808201909152601881527f4472697665722773204c6963656e73652052656e6577616c00000000000000006020820152620000ce9062000268565b60408051808201909152601881527f5570646174652056656869636c65204f776e657273686970000000000000000060208201526200010d9062000268565b60408051808201909152600e81526d5072616374696365204578616d7360901b60208201526200013d9062000268565b6040805180820190915260078152661499585b08125160ca1b6020820152620001669062000268565b60408051808201909152601c81527f4170706c7920666f722061204472697665722773204c6963656e7365000000006020820152620001a59062000268565b60408051808201909152601381527f4d65646963616c20496e666f726d6174696f6e000000000000000000000000006020820152620001e49062000268565b60408051808201909152601781527f53656c6c202f20446f6e61746520612056656869636c650000000000000000006020820152620002239062000268565b60408051808201909152601b81527f5469746c6520612056656869636c6520696e2056697267696e696100000000006020820152620002629062000268565b620003e4565b600180549060006200027a8362000380565b909155505060408051606081018252600180548083526020808401868152600080548688015292835260038252949091208351815593518051939493620002c9938501929190910190620002da565b506040820151816002015590505050565b828054620002e890620003a8565b90600052602060002090601f0160209004810192826200030c576000855562000357565b82601f106200032757805160ff191683800117855562000357565b8280016001018555821562000357579182015b82811115620003575782518255916020019190600101906200033a565b506200036592915062000369565b5090565b5b808211156200036557600081556001016200036a565b600060018201620003a157634e487b7160e01b600052601160045260246000fd5b5060010190565b600181811c90821680620003bd57607f821691505b602082108103620003de57634e487b7160e01b600052602260045260246000fd5b50919050565b61079780620003f46000396000f3fe60806040526004361061007b5760003560e01c8063888de2ba1161004e578063888de2ba14610105578063c22c4f4314610128578063d0e30db014610157578063f40e84711461017457600080fd5b806311f37ceb146100805780632804b2c0146100a357806328bf794d146100db57806384c5588e146100fd575b600080fd5b34801561008c57600080fd5b506000546040519081526020015b60405180910390f35b3480156100af57600080fd5b506002546100c3906001600160a01b031681565b6040516001600160a01b03909116815260200161009a565b3480156100e757600080fd5b506100fb6100f63660046105da565b6101a8565b005b6100fb6101b8565b6101186101133660046105f3565b61028d565b604051901515815260200161009a565b34801561013457600080fd5b506101486101433660046105da565b6103e0565b60405161009a93929190610615565b61015f61048b565b6040805192835260208301919091520161009a565b34801561018057600080fd5b5061015f61018f36600461067a565b6004602052600090815260409020805460019091015482565b60008190556101b5610574565b50565b600280546001600160a01b0319163390811790915560009081526004602052604090205461022d5760405162461bcd60e51b815260206004820152601960248201527f4572726f723a204e6f2066756e647320746f2072657475726e0000000000000060448201526064015b60405180910390fd5b6002546001600160a01b031660008181526004602052604080822054905181156108fc0292818181858888f1935050505015801561026f573d6000803e3d6000fd5b506002546001600160a01b0316600090815260046020526040812055565b600280546001600160a01b0319163317815560008381526003602052604081209091015481906102bd90846106c0565b6002546001600160a01b03166000908152600460205260409020549091508111156103505760405162461bcd60e51b815260206004820152603f60248201527f4572726f723a20496e73756666696369656e742066756e64732e20506c65617360448201527f6520636865636b2074686520636f7374206f66207468652073657276696365006064820152608401610224565b600084118015610361575060015484105b6103ad5760405162461bcd60e51b815260206004820152601860248201527f4572726f723a20496e76616c69642073656c656374696f6e00000000000000006044820152606401610224565b6002546001600160a01b031660009081526004602052604090206001018390556103d6816105a8565b5060019392505050565b60036020526000908152604090208054600182018054919291610402906106df565b80601f016020809104026020016040519081016040528092919081815260200182805461042e906106df565b801561047b5780601f106104505761010080835404028352916020019161047b565b820191906000526020600020905b81548152906001019060200180831161045e57829003601f168201915b5050505050908060020154905083565b6000806000543410156105185760405162461bcd60e51b815260206004820152604960248201527f4572726f723a20496e73756666696369656e742066756e6473206465706f736960448201527f7465642e20506c6561736520636865636b2074686520636f7374206f6620746860648201526865207365727669636560b81b608482015260a401610224565b600280546001600160a01b031916339081179091556000908152600460205260408120805434929061054b908490610719565b90915550506002546001600160a01b031660009081526004602052604090205447939092509050565b60005b6001548110156101b557600080548282526003602052604090912060020155806105a081610731565b915050610577565b6002546001600160a01b0316600090815260046020526040812080548392906105d290849061074a565b909155505050565b6000602082840312156105ec57600080fd5b5035919050565b6000806040838503121561060657600080fd5b50508035926020909101359150565b83815260006020606081840152845180606085015260005b818110156106495786810183015185820160800152820161062d565b8181111561065b576000608083870101525b5060408401949094525050601f91909101601f19160160800192915050565b60006020828403121561068c57600080fd5b81356001600160a01b03811681146106a357600080fd5b9392505050565b634e487b7160e01b600052601160045260246000fd5b60008160001904831182151516156106da576106da6106aa565b500290565b600181811c908216806106f357607f821691505b60208210810361071357634e487b7160e01b600052602260045260246000fd5b50919050565b6000821982111561072c5761072c6106aa565b500190565b600060018201610743576107436106aa565b5060010190565b60008282101561075c5761075c6106aa565b50039056fea2646970667358221220d0523e4d8ae262282cfe4453d2a7b3e57db0324df9ea9db81ba9a651f4920e7264736f6c634300080d0033",
    "sourcePath": "/home/alex/Documents/dmv_blockchain/src/eth/contracts/services.sol",
    "compiler": {
        "name": "solc",
        "version": "0.8.13+commit.abaa5c0e"
    },
    "functionHashes": {
        "customer()": "2804b2c0",
        "customer_selection(uint256,uint256)": "888de2ba",
        "deposit()": "d0e30db0",
        "get_price()": "11f37ceb",
        "orders(address)": "f40e8471",
        "return_overpay()": "84c5588e",
        "services(uint256)": "c22c4f43",
        "set_price(uint256)": "28bf794d"
    },
    "gasEstimates": {
        "creation": {
            "codeDepositCost": "388600",
            "executionCost": "infinite",
            "totalCost": "infinite"
        },
        "external": {
            "customer()": "2360",
            "customer_selection(uint256,uint256)": "84099",
            "deposit()": "55294",
            "get_price()": "2270",
            "orders(address)": "4689",
            "return_overpay()": "infinite",
            "services(uint256)": "infinite",
            "set_price(uint256)": "infinite"
        },
        "internal": {
            "add_service(string memory)": "infinite",
            "make_payment(uint256)": "26499",
            "set_service_cost()": "infinite"
        }
    }
}