{
    "contractName": "Service",
    "abi": [
        {
            "inputs": [],
            "stateMutability": "nonpayable",
            "type": "constructor"
        },
        {
            "inputs": [],
            "name": "customer",
            "outputs": [
                {
                    "internalType": "address payable",
                    "name": "",
                    "type": "address"
                }
            ],
            "stateMutability": "view",
            "type": "function"
        },
        {
            "inputs": [],
            "name": "deposit",
            "outputs": [
                {
                    "internalType": "uint256",
                    "name": "",
                    "type": "uint256"
                },
                {
                    "internalType": "uint256",
                    "name": "",
                    "type": "uint256"
                }
            ],
            "stateMutability": "payable",
            "type": "function"
        },
        {
            "inputs": [],
            "name": "get_price",
            "outputs": [
                {
                    "internalType": "uint256",
                    "name": "",
                    "type": "uint256"
                }
            ],
            "stateMutability": "view",
            "type": "function"
        },
        {
            "inputs": [
                {
                    "internalType": "address",
                    "name": "",
                    "type": "address"
                }
            ],
            "name": "orders",
            "outputs": [
                {
                    "internalType": "uint256",
                    "name": "wallet_bal",
                    "type": "uint256"
                }
            ],
            "stateMutability": "view",
            "type": "function"
        },
        {
            "inputs": [
                {
                    "internalType": "uint256",
                    "name": "",
                    "type": "uint256"
                }
            ],
            "name": "services",
            "outputs": [
                {
                    "internalType": "uint256",
                    "name": "id",
                    "type": "uint256"
                },
                {
                    "internalType": "string",
                    "name": "name",
                    "type": "string"
                },
                {
                    "internalType": "uint256",
                    "name": "cost",
                    "type": "uint256"
                },
                {
                    "internalType": "uint256",
                    "name": "times_ordered",
                    "type": "uint256"
                }
            ],
            "stateMutability": "view",
            "type": "function"
        },
        {
            "inputs": [
                {
                    "internalType": "uint256",
                    "name": "_price",
                    "type": "uint256"
                }
            ],
            "name": "set_price",
            "outputs": [],
            "stateMutability": "nonpayable",
            "type": "function"
        }
    ],
    "bytecode": "608060405234801561001057600080fd5b5064174876e800600090815560015560408051808201909152601c81527f56656869636c6520526567697374726174696f6e2052656e6577616c00000000602082015261005c90610252565b60408051808201909152600e81526d41646472657373204368616e676560901b602082015261008a90610252565b60408051808201909152601881527f4472697665722773204c6963656e73652052656e6577616c000000000000000060208201526100c790610252565b60408051808201909152601881527f5570646174652056656869636c65204f776e6572736869700000000000000000602082015261010490610252565b60408051808201909152600e81526d5072616374696365204578616d7360901b602082015261013290610252565b6040805180820190915260078152661499585b08125160ca1b602082015261015990610252565b60408051808201909152601c81527f4170706c7920666f722061204472697665722773204c6963656e736500000000602082015261019690610252565b60408051808201909152601381527f4d65646963616c20496e666f726d6174696f6e0000000000000000000000000060208201526101d390610252565b60408051808201909152601781527f53656c6c202f20446f6e61746520612056656869636c65000000000000000000602082015261021090610252565b60408051808201909152601b81527f5469746c6520612056656869636c6520696e2056697267696e69610000000000602082015261024d90610252565b6103ca565b6001805490600061026283610369565b909155505060408051608081018252600180548083526020808401868152600080548688015260608601819052928352600382529490912083518155935180519394936102b69385019291909101906102d0565b506040820151600282015560609091015160039091015550565b8280546102dc90610390565b90600052602060002090601f0160209004810192826102fe5760008555610344565b82601f1061031757805160ff1916838001178555610344565b82800160010185558215610344579182015b82811115610344578251825591602001919060010190610329565b50610350929150610354565b5090565b5b808211156103505760008155600101610355565b60006001820161038957634e487b7160e01b600052601160045260246000fd5b5060010190565b600181811c908216806103a457607f821691505b6020821081036103c457634e487b7160e01b600052602260045260246000fd5b50919050565b61049f806103d96000396000f3fe6080604052600436106100555760003560e01c806311f37ceb1461005a5780632804b2c01461007e57806328bf794d146100b6578063c22c4f43146100d8578063d0e30db014610108578063f40e847114610125575b600080fd5b34801561006657600080fd5b506000545b6040519081526020015b60405180910390f35b34801561008a57600080fd5b5060025461009e906001600160a01b031681565b6040516001600160a01b039091168152602001610075565b3480156100c257600080fd5b506100d66100d1366004610333565b610152565b005b3480156100e457600080fd5b506100f86100f3366004610333565b610162565b604051610075949392919061034c565b610110610213565b60408051928352602083019190915201610075565b34801561013157600080fd5b5061006b6101403660046103b8565b60046020526000908152604090205481565b600081905561015f610300565b50565b60036020526000908152604090208054600182018054919291610184906103e8565b80601f01602080910402602001604051908101604052809291908181526020018280546101b0906103e8565b80156101fd5780601f106101d2576101008083540402835291602001916101fd565b820191906000526020600020905b8154815290600101906020018083116101e057829003601f168201915b5050505050908060020154908060030154905084565b6000806000543410156102a45760405162461bcd60e51b815260206004820152604960248201527f4572726f723a20496e73756666696369656e742066756e6473206465706f736960448201527f7465642e20506c6561736520636865636b2074686520636f7374206f6620746860648201526865207365727669636560b81b608482015260a40160405180910390fd5b600280546001600160a01b03191633908117909155600090815260046020526040812080543492906102d7908490610438565b90915550506002546001600160a01b031660009081526004602052604090205447939092509050565b60005b600a81101561015f576000805482825260036020526040909120600201558061032b81610450565b915050610303565b60006020828403121561034557600080fd5b5035919050565b84815260006020608081840152855180608085015260005b818110156103805787810183015185820160a001528201610364565b8181111561039257600060a083870101525b5060408401959095525050606081019190915260a0601f909201601f1916010192915050565b6000602082840312156103ca57600080fd5b81356001600160a01b03811681146103e157600080fd5b9392505050565b600181811c908216806103fc57607f821691505b60208210810361041c57634e487b7160e01b600052602260045260246000fd5b50919050565b634e487b7160e01b600052601160045260246000fd5b6000821982111561044b5761044b610422565b500190565b60006001820161046257610462610422565b506001019056fea264697066735822122053fae2560bfda2fb048a2a3ba742d4aa975acaf7225136e1450d57e7ef9c117164736f6c634300080d0033",
    "sourcePath": "/home/alex/Documents/dmv_blockchain/src/eth/contracts/driver_id_services.sol",
    "compiler": {
        "name": "solc",
        "version": "0.8.13+commit.abaa5c0e"
    },
    "functionHashes": {
        "customer()": "2804b2c0",
        "deposit()": "d0e30db0",
        "get_price()": "11f37ceb",
        "orders(address)": "f40e8471",
        "services(uint256)": "c22c4f43",
        "set_price(uint256)": "28bf794d"
    },
    "gasEstimates": {
        "creation": {
            "codeDepositCost": "236600",
            "executionCost": "infinite",
            "totalCost": "infinite"
        },
        "external": {
            "customer()": "2337",
            "deposit()": "55316",
            "get_price()": "2248",
            "orders(address)": "2561",
            "services(uint256)": "infinite",
            "set_price(uint256)": "infinite"
        },
        "internal": {
            "add_service(string memory)": "infinite",
            "set_service_cost()": "infinite"
        }
    }
}