{
  "contractName": "ExternalServices",
  "abi": [
    {
      "inputs": [
        {
          "internalType": "address",
          "name": "",
          "type": "address"
        }
      ],
      "name": "orders",
      "outputs": [
        {
          "internalType": "uint256",
          "name": "wallet_bal",
          "type": "uint256"
        },
        {
          "internalType": "uint256",
          "name": "service_count",
          "type": "uint256"
        }
      ],
      "stateMutability": "view",
      "type": "function"
    }
  ],
  "bytecode": "0x608060405234801561001057600080fd5b5061018d806100206000396000f3fe608060405234801561001057600080fd5b506004361061002b5760003560e01c8063f40e847114610030575b600080fd5b61004a600480360381019061004591906100e8565b610061565b60405161005892919061012e565b60405180910390f35b60006020528060005260406000206000915090508060000154908060010154905082565b600080fd5b600073ffffffffffffffffffffffffffffffffffffffff82169050919050565b60006100b58261008a565b9050919050565b6100c5816100aa565b81146100d057600080fd5b50565b6000813590506100e2816100bc565b92915050565b6000602082840312156100fe576100fd610085565b5b600061010c848285016100d3565b91505092915050565b6000819050919050565b61012881610115565b82525050565b6000604082019050610143600083018561011f565b610150602083018461011f565b939250505056fea264697066735822122028df556969bbbd290153f69a832008ed0fe9ba15cd251867fe838a0d1bd3f02f64736f6c63430008090033",
  "immutableReferences": {},
  "source": "// SPDX-License-Identifier: MIT\r\n\r\npragma solidity ^0.8.9;\r\n\r\ncontract Redeem {\r\n\r\n    address public customer;\r\n\r\n    struct NumOrders {\r\n\r\n        uint service_order_count;\r\n    }\r\n\r\n    mapping(address => NumOrders) public redeemable_orders;\r\n    mapping(address => NumOrders) public redeemed_to_date;\r\n    mapping(address => NumOrders) public purchased_to_date;\r\n\r\n    // Allows us to know if the service contract was connected\r\n    bool contract_connected = false;\r\n    ExternalServices service_contract;\r\n\r\n    function connect_service_contract(address _address) public {\r\n\r\n        service_contract = ExternalServices(_address);\r\n        contract_connected = true;\r\n\r\n        determine_redeemable();\r\n    }\r\n\r\n\r\n    // May want to change to public later\r\n    function determine_redeemable() private {\r\n\r\n        require(\r\n            contract_connected,\r\n            \"Error: The service contract must be connected first\"\r\n        );\r\n\r\n        customer = msg.sender;\r\n\r\n        uint256 _temp;\r\n        (_temp, redeemed_to_date[customer].service_order_count) = read_orders();\r\n\r\n        redeemable_orders[customer].service_order_count = purchased_to_date[customer].service_order_count - redeemed_to_date[customer].service_order_count;\r\n    }\r\n\r\n\r\n    function redeem_order() public {\r\n\r\n        customer = msg.sender;\r\n\r\n        determine_redeemable();\r\n        redeemable_orders[customer].service_order_count++;\r\n        determine_redeemable();\r\n    }\r\n\r\n\r\n    function read_orders() private returns (uint256 wallet, uint count) {\r\n\r\n        require(\r\n            contract_connected,\r\n            \"Error: The service contract must be connected first\"\r\n        );\r\n\r\n        customer = msg.sender;\r\n        return (service_contract.orders(customer));\r\n    }\r\n}\r\n\r\n\r\ncontract ExternalServices {\r\n\r\n    // Same as in services.sol; allows us to link files\r\n    // Used to track msg.sender's balance\r\n    struct Orders {\r\n\r\n        uint256 wallet_bal;\r\n        uint service_count;\r\n    }\r\n\r\n    mapping(address => Orders) public orders;\r\n}\r\n",
  "sourcePath": "C:\\Users\\ryhil\\OneDrive\\Documents\\ODUCS\\CS764\\dmv_blockchain\\tiny-dapp\\contracts\\Redeem.sol",
  "compiler": {
    "name": "solc",
    "version": "0.8.9+commit.e5eed63a.Emscripten.clang"
  },
  "schemaVersion": "3.4.7",
  "updatedAt": "2022-05-01T21:58:50.652Z",
  "devdoc": {
    "kind": "dev",
    "methods": {},
    "version": 1
  },
  "userdoc": {
    "kind": "user",
    "methods": {},
    "version": 1
  }
}