{
  "contractName": "ExternalServices",
  "abi": [
    {
      "inputs": [
        {
          "internalType": "address",
          "name": "",
          "type": "address"
        }
      ],
      "name": "orders",
      "outputs": [
        {
          "internalType": "uint256",
          "name": "wallet_bal",
          "type": "uint256"
        },
        {
          "internalType": "uint256",
          "name": "service_count",
          "type": "uint256"
        }
      ],
      "stateMutability": "view",
      "type": "function"
    }
  ],
  "bytecode": "0x608060405234801561001057600080fd5b5061018d806100206000396000f3fe608060405234801561001057600080fd5b506004361061002b5760003560e01c8063f40e847114610030575b600080fd5b61004a600480360381019061004591906100e8565b610061565b60405161005892919061012e565b60405180910390f35b60006020528060005260406000206000915090508060000154908060010154905082565b600080fd5b600073ffffffffffffffffffffffffffffffffffffffff82169050919050565b60006100b58261008a565b9050919050565b6100c5816100aa565b81146100d057600080fd5b50565b6000813590506100e2816100bc565b92915050565b6000602082840312156100fe576100fd610085565b5b600061010c848285016100d3565b91505092915050565b6000819050919050565b61012881610115565b82525050565b6000604082019050610143600083018561011f565b610150602083018461011f565b939250505056fea26469706673582212203867fabf0092eae50cae0cc5991baf76e5733b35e79e685bc9c9b38a83439f9c64736f6c63430008090033",
  "immutableReferences": {},
  "source": "// SPDX-License-Identifier: MIT\n\npragma solidity ^0.8.9;\n\ncontract Redeem {\n\n    address public customer;\n\n    struct NumOrders {\n\n        uint service_order_count;\n    }\n\n    mapping(address => NumOrders) public redeemable_orders;\n    mapping(address => NumOrders) public redeemed_to_date;\n    mapping(address => NumOrders) public purchased_to_date;\n\n    // Allows us to know if the service contract was connected\n    bool contract_connected = false;\n    ExternalServices service_contract;\n\n    function connect_service_contract(address _address) public {\n\n        service_contract = ExternalServices(_address);\n        contract_connected = true;\n\n        determine_redeemable();\n    }\n\n\n    // May want to change to public later\n    function determine_redeemable() private {\n\n        require(\n            contract_connected,\n            \"Error: The service contract must be connected first\"\n        );\n\n        customer = msg.sender;\n\n        uint256 _temp;\n        (_temp, redeemed_to_date[customer].service_order_count) = read_orders();\n\n        redeemable_orders[customer].service_order_count = purchased_to_date[customer].service_order_count - redeemed_to_date[customer].service_order_count;\n    }\n\n\n    function redeem_order() public {\n\n        customer = msg.sender;\n\n        determine_redeemable();\n        redeemable_orders[customer].service_order_count++;\n        determine_redeemable();\n    }\n\n\n    function read_orders() private returns (uint256 wallet, uint count) {\n\n        require(\n            contract_connected,\n            \"Error: The service contract must be connected first\"\n        );\n\n        customer = msg.sender;\n        return (service_contract.orders(customer));\n    }\n}\n\n\ncontract ExternalServices {\n\n    // Same as in services.sol; allows us to link files\n    // Used to track msg.sender's balance\n    struct Orders {\n\n        uint256 wallet_bal;\n        uint service_count;\n    }\n\n    mapping(address => Orders) public orders;\n}\n",
  "sourcePath": "/home/alex/Documents/dmv_blockchain/tiny-dapp/contracts/Redeem.sol",
  "compiler": {
    "name": "solc",
    "version": "0.8.9+commit.e5eed63a.Emscripten.clang"
  },
  "schemaVersion": "3.4.6",
  "updatedAt": "2022-04-29T15:52:38.149Z",
  "devdoc": {
    "kind": "dev",
    "methods": {},
    "version": 1
  },
  "userdoc": {
    "kind": "user",
    "methods": {},
    "version": 1
  }
}