{
  "contractName": "Lottery",
  "abi": [
    {
      "inputs": [],
      "stateMutability": "nonpayable",
      "type": "constructor"
    },
    {
      "inputs": [],
      "name": "manager",
      "outputs": [
        {
          "internalType": "address",
          "name": "",
          "type": "address"
        }
      ],
      "stateMutability": "view",
      "type": "function"
    },
    {
      "inputs": [
        {
          "internalType": "uint256",
          "name": "",
          "type": "uint256"
        }
      ],
      "name": "players",
      "outputs": [
        {
          "internalType": "address payable",
          "name": "",
          "type": "address"
        }
      ],
      "stateMutability": "view",
      "type": "function"
    },
    {
      "inputs": [],
      "name": "enter",
      "outputs": [],
      "stateMutability": "payable",
      "type": "function"
    },
    {
      "inputs": [],
      "name": "pickWinner",
      "outputs": [],
      "stateMutability": "nonpayable",
      "type": "function"
    },
    {
      "inputs": [],
      "name": "getPlayers",
      "outputs": [
        {
          "internalType": "address payable[]",
          "name": "",
          "type": "address[]"
        }
      ],
      "stateMutability": "view",
      "type": "function"
    }
  ],
  "bytecode": "0x608060405234801561001057600080fd5b50336000806101000a81548173ffffffffffffffffffffffffffffffffffffffff021916908373ffffffffffffffffffffffffffffffffffffffff1602179055506108f1806100606000396000f3fe60806040526004361061004a5760003560e01c8063481c6a751461004f5780635d495aea1461007a5780638b5b9ccc14610091578063e97dcb62146100bc578063f71d96cb146100c6575b600080fd5b34801561005b57600080fd5b50610064610103565b60405161007191906104e6565b60405180910390f35b34801561008657600080fd5b5061008f610127565b005b34801561009d57600080fd5b506100a6610283565b6040516100b391906105d1565b60405180910390f35b6100c4610311565b005b3480156100d257600080fd5b506100ed60048036038101906100e8919061062e565b610389565b6040516100fa919061066a565b60405180910390f35b60008054906101000a900473ffffffffffffffffffffffffffffffffffffffff1681565b60008054906101000a900473ffffffffffffffffffffffffffffffffffffffff1673ffffffffffffffffffffffffffffffffffffffff163373ffffffffffffffffffffffffffffffffffffffff161461017f57600080fd5b600060018054905061018f6103c8565b61019991906106b4565b9050600181815481106101af576101ae6106e5565b5b9060005260206000200160009054906101000a900473ffffffffffffffffffffffffffffffffffffffff1673ffffffffffffffffffffffffffffffffffffffff166108fc479081150290604051600060405180830381858888f1935050505015801561021f573d6000803e3d6000fd5b50600067ffffffffffffffff81111561023b5761023a610714565b5b6040519080825280602002602001820160405280156102695781602001602082028036833780820191505090505b506001908051906020019061027f9291906103fe565b5050565b6060600180548060200260200160405190810160405280929190818152602001828054801561030757602002820191906000526020600020905b8160009054906101000a900473ffffffffffffffffffffffffffffffffffffffff1673ffffffffffffffffffffffffffffffffffffffff16815260200190600101908083116102bd575b5050505050905090565b662386f26fc10000341161032457600080fd5b6001339080600181540180825580915050600190039060005260206000200160009091909190916101000a81548173ffffffffffffffffffffffffffffffffffffffff021916908373ffffffffffffffffffffffffffffffffffffffff160217905550565b6001818154811061039957600080fd5b906000526020600020016000915054906101000a900473ffffffffffffffffffffffffffffffffffffffff1681565b6000444260016040516020016103e093929190610882565b6040516020818303038152906040528051906020012060001c905090565b828054828255906000526020600020908101928215610477579160200282015b828111156104765782518260006101000a81548173ffffffffffffffffffffffffffffffffffffffff021916908373ffffffffffffffffffffffffffffffffffffffff1602179055509160200191906001019061041e565b5b5090506104849190610488565b5090565b5b808211156104a1576000816000905550600101610489565b5090565b600073ffffffffffffffffffffffffffffffffffffffff82169050919050565b60006104d0826104a5565b9050919050565b6104e0816104c5565b82525050565b60006020820190506104fb60008301846104d7565b92915050565b600081519050919050565b600082825260208201905092915050565b6000819050602082019050919050565b6000610538826104a5565b9050919050565b6105488161052d565b82525050565b600061055a838361053f565b60208301905092915050565b6000602082019050919050565b600061057e82610501565b610588818561050c565b93506105938361051d565b8060005b838110156105c45781516105ab888261054e565b97506105b683610566565b925050600181019050610597565b5085935050505092915050565b600060208201905081810360008301526105eb8184610573565b905092915050565b600080fd5b6000819050919050565b61060b816105f8565b811461061657600080fd5b50565b60008135905061062881610602565b92915050565b600060208284031215610644576106436105f3565b5b600061065284828501610619565b91505092915050565b6106648161052d565b82525050565b600060208201905061067f600083018461065b565b92915050565b7f4e487b7100000000000000000000000000000000000000000000000000000000600052601260045260246000fd5b60006106bf826105f8565b91506106ca836105f8565b9250826106da576106d9610685565b5b828206905092915050565b7f4e487b7100000000000000000000000000000000000000000000000000000000600052603260045260246000fd5b7f4e487b7100000000000000000000000000000000000000000000000000000000600052604160045260246000fd5b6000819050919050565b61075e610759826105f8565b610743565b82525050565b600081549050919050565b600081905092915050565b60008190508160005260206000209050919050565b6107988161052d565b82525050565b60006107aa838361078f565b60208301905092915050565b60008160001c9050919050565b600073ffffffffffffffffffffffffffffffffffffffff82169050919050565b60006107f66107f1836107b6565b6107c3565b9050919050565b600061080982546107e3565b9050919050565b6000600182019050919050565b600061082882610764565b610832818561076f565b935061083d8361077a565b8060005b8381101561087557610852826107fd565b61085c888261079e565b975061086783610810565b925050600181019050610841565b5085935050505092915050565b600061088e828661074d565b60208201915061089e828561074d565b6020820191506108ae828461081d565b915081905094935050505056fea2646970667358221220677cd78f2bae0a4b0f645c2d8f9854e852a5bbb9045203f54dee61b64b1e449064736f6c63430008090033",
  "immutableReferences": {},
  "source": "// SPDX-License-Identifier: MIT\r\n\r\npragma solidity ^0.8.9;\r\n\r\ncontract Lottery {\r\n    address public manager;\r\n    address payable[] public players;\r\n    \r\n    constructor() {\r\n        manager = msg.sender;\r\n    }\r\n    \r\n    function enter() public payable {\r\n        require(msg.value > .01 ether);\r\n        players.push(payable(msg.sender));\r\n    }\r\n    \r\n    function random() private view returns (uint) {\r\n        return uint(keccak256(abi.encodePacked(block.difficulty, block.timestamp, players)));\r\n    }\r\n    \r\n    function pickWinner() public restricted {\r\n        uint index = random() % players.length;\r\n        players[index].transfer(address(this).balance);\r\n        players = new address payable[](0);\r\n    }\r\n    \r\n    modifier restricted() {\r\n        require(msg.sender == manager);\r\n        _;\r\n    }\r\n    \r\n    function getPlayers() public view returns (address payable[] memory) {\r\n        return players;\r\n    }\r\n}   ",
  "sourcePath": "C:\\Users\\ryhil\\OneDrive\\Documents\\ODUCS\\CS764\\dmv_blockchain\\tiny-dapp\\contracts\\Lottery.sol",
  "compiler": {
    "name": "solc",
    "version": "0.8.9+commit.e5eed63a.Emscripten.clang"
  },
  "schemaVersion": "3.4.7",
  "updatedAt": "2022-04-28T15:32:30.247Z",
  "devdoc": {
    "kind": "dev",
    "methods": {},
    "version": 1
  },
  "userdoc": {
    "kind": "user",
    "methods": {},
    "version": 1
  }
}