{
  "contractName": "PracticeTest",
  "abi": [
    {
      "inputs": [],
      "stateMutability": "nonpayable",
      "type": "constructor"
    },
    {
      "anonymous": false,
      "inputs": [
        {
          "indexed": false,
          "internalType": "uint256",
          "name": "id",
          "type": "uint256"
        },
        {
          "indexed": false,
          "internalType": "string",
          "name": "customer_name",
          "type": "string"
        },
        {
          "indexed": false,
          "internalType": "uint256",
          "name": "score",
          "type": "uint256"
        },
        {
          "indexed": false,
          "internalType": "address payable",
          "name": "wallet",
          "type": "address"
        }
      ],
      "name": "Submission",
      "type": "event"
    },
    {
      "inputs": [],
      "name": "index",
      "outputs": [
        {
          "internalType": "uint256",
          "name": "",
          "type": "uint256"
        }
      ],
      "stateMutability": "view",
      "type": "function",
      "constant": true
    },
    {
      "inputs": [
        {
          "internalType": "uint256",
          "name": "",
          "type": "uint256"
        }
      ],
      "name": "submission",
      "outputs": [
        {
          "internalType": "uint256",
          "name": "id",
          "type": "uint256"
        },
        {
          "internalType": "string",
          "name": "customer_name",
          "type": "string"
        },
        {
          "internalType": "uint256",
          "name": "score",
          "type": "uint256"
        },
        {
          "internalType": "address payable",
          "name": "wallet",
          "type": "address"
        }
      ],
      "stateMutability": "view",
      "type": "function",
      "constant": true
    },
    {
      "inputs": [
        {
          "internalType": "string",
          "name": "_name",
          "type": "string"
        },
        {
          "internalType": "uint256",
          "name": "_score",
          "type": "uint256"
        }
      ],
      "name": "upload_score",
      "outputs": [],
      "stateMutability": "nonpayable",
      "type": "function"
    }
  ],
  "bytecode": "0x6080604052600060015534801561001557600080fd5b50336000806101000a81548173ffffffffffffffffffffffffffffffffffffffff021916908373ffffffffffffffffffffffffffffffffffffffff1602179055506107cd806100656000396000f3fe608060405234801561001057600080fd5b50600436106100415760003560e01c80632986c0e5146100465780639c8c701b14610064578063c9d7b80d14610097575b600080fd5b61004e6100b3565b60405161005b919061037f565b60405180910390f35b61007e600480360381019061007991906103da565b6100b9565b60405161008e94939291906104e1565b60405180910390f35b6100b160048036038101906100ac9190610662565b610191565b005b60015481565b60026020528060005260406000206000915090508060000154908060010180546100e2906106ed565b80601f016020809104026020016040519081016040528092919081815260200182805461010e906106ed565b801561015b5780601f106101305761010080835404028352916020019161015b565b820191906000526020600020905b81548152906001019060200180831161013e57829003601f168201915b5050505050908060020154908060030160009054906101000a900473ffffffffffffffffffffffffffffffffffffffff16905084565b600082511161019f57600080fd5b600160008154809291906101b29061074e565b9190505550604051806080016040528060015481526020018381526020018281526020013373ffffffffffffffffffffffffffffffffffffffff1681525060026000600154815260200190815260200160002060008201518160000155602082015181600101908051906020019061022b9291906102c3565b506040820151816002015560608201518160030160006101000a81548173ffffffffffffffffffffffffffffffffffffffff021916908373ffffffffffffffffffffffffffffffffffffffff1602179055509050507f6205dfc766569c37007a4b041ba38316b73acfff92683ccb599b9a0ef75264ea6001548383336040516102b794939291906104e1565b60405180910390a15050565b8280546102cf906106ed565b90600052602060002090601f0160209004810192826102f15760008555610338565b82601f1061030a57805160ff1916838001178555610338565b82800160010185558215610338579182015b8281111561033757825182559160200191906001019061031c565b5b5090506103459190610349565b5090565b5b8082111561036257600081600090555060010161034a565b5090565b6000819050919050565b61037981610366565b82525050565b60006020820190506103946000830184610370565b92915050565b6000604051905090565b600080fd5b600080fd5b6103b781610366565b81146103c257600080fd5b50565b6000813590506103d4816103ae565b92915050565b6000602082840312156103f0576103ef6103a4565b5b60006103fe848285016103c5565b91505092915050565b600081519050919050565b600082825260208201905092915050565b60005b83811015610441578082015181840152602081019050610426565b83811115610450576000848401525b50505050565b6000601f19601f8301169050919050565b600061047282610407565b61047c8185610412565b935061048c818560208601610423565b61049581610456565b840191505092915050565b600073ffffffffffffffffffffffffffffffffffffffff82169050919050565b60006104cb826104a0565b9050919050565b6104db816104c0565b82525050565b60006080820190506104f66000830187610370565b81810360208301526105088186610467565b90506105176040830185610370565b61052460608301846104d2565b95945050505050565b600080fd5b600080fd5b7f4e487b7100000000000000000000000000000000000000000000000000000000600052604160045260246000fd5b61056f82610456565b810181811067ffffffffffffffff8211171561058e5761058d610537565b5b80604052505050565b60006105a161039a565b90506105ad8282610566565b919050565b600067ffffffffffffffff8211156105cd576105cc610537565b5b6105d682610456565b9050602081019050919050565b82818337600083830152505050565b6000610605610600846105b2565b610597565b90508281526020810184848401111561062157610620610532565b5b61062c8482856105e3565b509392505050565b600082601f8301126106495761064861052d565b5b81356106598482602086016105f2565b91505092915050565b60008060408385031215610679576106786103a4565b5b600083013567ffffffffffffffff811115610697576106966103a9565b5b6106a385828601610634565b92505060206106b4858286016103c5565b9150509250929050565b7f4e487b7100000000000000000000000000000000000000000000000000000000600052602260045260246000fd5b6000600282049050600182168061070557607f821691505b60208210811415610719576107186106be565b5b50919050565b7f4e487b7100000000000000000000000000000000000000000000000000000000600052601160045260246000fd5b600061075982610366565b91507fffffffffffffffffffffffffffffffffffffffffffffffffffffffffffffffff82141561078c5761078b61071f565b5b60018201905091905056fea2646970667358221220052d405c87d7546af0175a38e511baad40d36bae9ada804863b2ecdefaaab51864736f6c63430008090033",
  "immutableReferences": {},
  "source": "// SPDX-License-Identifier: MIT\n\npragma solidity ^0.8.9;\n\ncontract PracticeTest {\n\n    address private customer;\n    uint public index = 0;\n\n    mapping(uint => TestInfo) public submission;\n\n    constructor() {\n\n        customer = msg.sender;\n    }\n\n\n    struct TestInfo {\n\n        uint id;\n        string customer_name;\n        uint score;\n        address payable wallet;\n    }\n\n    event Submission (\n\n        uint id,\n        string customer_name,\n        uint score,\n        address payable wallet\n    );\n\n\n    function upload_score(string memory _name, uint _score) public {\n\n        require(bytes(_name).length > 0);\n\n        index++;\n\n        submission[index] = TestInfo(index, _name, _score, payable(msg.sender));\n        emit Submission(index, _name, _score, payable(msg.sender));\n    }\n}\n",
  "sourcePath": "/home/alex/Documents/dmv_blockchain/tiny-dapp/contracts/PracticeTest.sol",
  "compiler": {
    "name": "solc",
    "version": "0.8.9+commit.e5eed63a.Emscripten.clang"
  },
  "schemaVersion": "3.4.6",
  "updatedAt": "2022-04-29T20:45:31.841Z",
  "networkType": "ethereum",
  "devdoc": {
    "kind": "dev",
    "methods": {},
    "version": 1
  },
  "userdoc": {
    "kind": "user",
    "methods": {},
    "version": 1
  }
}