{
  "contractName": "Redeem",
  "abi": [
    {
      "inputs": [],
      "name": "customer",
      "outputs": [
        {
          "internalType": "address",
          "name": "",
          "type": "address"
        }
      ],
      "stateMutability": "view",
      "type": "function",
      "constant": true
    },
    {
      "inputs": [
        {
          "internalType": "address",
          "name": "",
          "type": "address"
        }
      ],
      "name": "purchased_to_date",
      "outputs": [
        {
          "internalType": "uint256",
          "name": "service_order_count",
          "type": "uint256"
        }
      ],
      "stateMutability": "view",
      "type": "function",
      "constant": true
    },
    {
      "inputs": [
        {
          "internalType": "address",
          "name": "",
          "type": "address"
        }
      ],
      "name": "redeemable_orders",
      "outputs": [
        {
          "internalType": "uint256",
          "name": "service_order_count",
          "type": "uint256"
        }
      ],
      "stateMutability": "view",
      "type": "function",
      "constant": true
    },
    {
      "inputs": [
        {
          "internalType": "address",
          "name": "",
          "type": "address"
        }
      ],
      "name": "redeemed_to_date",
      "outputs": [
        {
          "internalType": "uint256",
          "name": "service_order_count",
          "type": "uint256"
        }
      ],
      "stateMutability": "view",
      "type": "function",
      "constant": true
    },
    {
      "inputs": [
        {
          "internalType": "address",
          "name": "_address",
          "type": "address"
        }
      ],
      "name": "connect_service_contract",
      "outputs": [],
      "stateMutability": "nonpayable",
      "type": "function"
    },
    {
      "inputs": [],
      "name": "redeem_order",
      "outputs": [],
      "stateMutability": "nonpayable",
      "type": "function"
    }
  ],
  "bytecode": "0x60806040526000600460006101000a81548160ff02191690831515021790555034801561002b57600080fd5b506109728061003b6000396000f3fe608060405234801561001057600080fd5b50600436106100625760003560e01c8063197b274c146100675780632804b2c0146100835780632e1db30e146100a157806391435ab4146100ab578063ae585ddf146100db578063cb752e6e1461010b575b600080fd5b610081600480360381019061007c91906106f6565b61013b565b005b61008b6101a2565b6040516100989190610732565b60405180910390f35b6100a96101c6565b005b6100c560048036038101906100c091906106f6565b610291565b6040516100d29190610766565b60405180910390f35b6100f560048036038101906100f091906106f6565b6102af565b6040516101029190610766565b60405180910390f35b610125600480360381019061012091906106f6565b6102cd565b6040516101329190610766565b60405180910390f35b80600460016101000a81548173ffffffffffffffffffffffffffffffffffffffff021916908373ffffffffffffffffffffffffffffffffffffffff1602179055506001600460006101000a81548160ff02191690831515021790555061019f6102eb565b50565b60008054906101000a900473ffffffffffffffffffffffffffffffffffffffff1681565b336000806101000a81548173ffffffffffffffffffffffffffffffffffffffff021916908373ffffffffffffffffffffffffffffffffffffffff16021790555061020e6102eb565b600160008060009054906101000a900473ffffffffffffffffffffffffffffffffffffffff1673ffffffffffffffffffffffffffffffffffffffff1673ffffffffffffffffffffffffffffffffffffffff1681526020019081526020016000206000016000815480929190610282906107b0565b919050555061028f6102eb565b565b60026020528060005260406000206000915090508060000154905081565b60016020528060005260406000206000915090508060000154905081565b60036020528060005260406000206000915090508060000154905081565b600460009054906101000a900460ff1661033a576040517f08c379a00000000000000000000000000000000000000000000000000000000081526004016103319061087c565b60405180910390fd5b336000806101000a81548173ffffffffffffffffffffffffffffffffffffffff021916908373ffffffffffffffffffffffffffffffffffffffff160217905550600061038461052f565b600260008060009054906101000a900473ffffffffffffffffffffffffffffffffffffffff1673ffffffffffffffffffffffffffffffffffffffff1673ffffffffffffffffffffffffffffffffffffffff168152602001908152602001600020600001600082919050558192505050600260008060009054906101000a900473ffffffffffffffffffffffffffffffffffffffff1673ffffffffffffffffffffffffffffffffffffffff1673ffffffffffffffffffffffffffffffffffffffff16815260200190815260200160002060000154600360008060009054906101000a900473ffffffffffffffffffffffffffffffffffffffff1673ffffffffffffffffffffffffffffffffffffffff1673ffffffffffffffffffffffffffffffffffffffff168152602001908152602001600020600001546104c5919061089c565b600160008060009054906101000a900473ffffffffffffffffffffffffffffffffffffffff1673ffffffffffffffffffffffffffffffffffffffff1673ffffffffffffffffffffffffffffffffffffffff1681526020019081526020016000206000018190555050565b600080600460009054906101000a900460ff16610581576040517f08c379a00000000000000000000000000000000000000000000000000000000081526004016105789061087c565b60405180910390fd5b336000806101000a81548173ffffffffffffffffffffffffffffffffffffffff021916908373ffffffffffffffffffffffffffffffffffffffff160217905550600460019054906101000a900473ffffffffffffffffffffffffffffffffffffffff1673ffffffffffffffffffffffffffffffffffffffff1663f40e847160008054906101000a900473ffffffffffffffffffffffffffffffffffffffff166040518263ffffffff1660e01b815260040161063c9190610732565b604080518083038186803b15801561065357600080fd5b505afa158015610667573d6000803e3d6000fd5b505050506040513d601f19601f8201168201806040525081019061068b91906108fc565b915091509091565b600080fd5b600073ffffffffffffffffffffffffffffffffffffffff82169050919050565b60006106c382610698565b9050919050565b6106d3816106b8565b81146106de57600080fd5b50565b6000813590506106f0816106ca565b92915050565b60006020828403121561070c5761070b610693565b5b600061071a848285016106e1565b91505092915050565b61072c816106b8565b82525050565b60006020820190506107476000830184610723565b92915050565b6000819050919050565b6107608161074d565b82525050565b600060208201905061077b6000830184610757565b92915050565b7f4e487b7100000000000000000000000000000000000000000000000000000000600052601160045260246000fd5b60006107bb8261074d565b91507fffffffffffffffffffffffffffffffffffffffffffffffffffffffffffffffff8214156107ee576107ed610781565b5b600182019050919050565b600082825260208201905092915050565b7f4572726f723a20546865207365727669636520636f6e7472616374206d75737460008201527f20626520636f6e6e656374656420666972737400000000000000000000000000602082015250565b60006108666033836107f9565b91506108718261080a565b604082019050919050565b6000602082019050818103600083015261089581610859565b9050919050565b60006108a78261074d565b91506108b28361074d565b9250828210156108c5576108c4610781565b5b828203905092915050565b6108d98161074d565b81146108e457600080fd5b50565b6000815190506108f6816108d0565b92915050565b6000806040838503121561091357610912610693565b5b6000610921858286016108e7565b9250506020610932858286016108e7565b915050925092905056fea2646970667358221220d31c13d6564fe3b03516e613aaa706a12c13362ece66275edb3b32d4172f661264736f6c63430008090033",
  "immutableReferences": {},
  "source": "// SPDX-License-Identifier: MIT\n\npragma solidity ^0.8.9;\n\ncontract Redeem {\n\n    address public customer;\n\n    struct NumOrders {\n\n        uint service_order_count;\n    }\n\n    mapping(address => NumOrders) public redeemable_orders;\n    mapping(address => NumOrders) public redeemed_to_date;\n    mapping(address => NumOrders) public purchased_to_date;\n\n    // Allows us to know if the service contract was connected\n    bool contract_connected = false;\n    ExternalServices service_contract;\n\n    function connect_service_contract(address _address) public {\n\n        service_contract = ExternalServices(_address);\n        contract_connected = true;\n\n        determine_redeemable();\n    }\n\n\n    // May want to change to public later\n    function determine_redeemable() private {\n\n        require(\n            contract_connected,\n            \"Error: The service contract must be connected first\"\n        );\n\n        customer = msg.sender;\n\n        uint256 _temp;\n        (_temp, redeemed_to_date[customer].service_order_count) = read_orders();\n\n        redeemable_orders[customer].service_order_count = purchased_to_date[customer].service_order_count - redeemed_to_date[customer].service_order_count;\n    }\n\n\n    function redeem_order() public {\n\n        customer = msg.sender;\n\n        determine_redeemable();\n        redeemable_orders[customer].service_order_count++;\n        determine_redeemable();\n    }\n\n\n    function read_orders() private returns (uint256 wallet, uint count) {\n\n        require(\n            contract_connected,\n            \"Error: The service contract must be connected first\"\n        );\n\n        customer = msg.sender;\n        return (service_contract.orders(customer));\n    }\n}\n\n\ncontract ExternalServices {\n\n    // Same as in services.sol; allows us to link files\n    // Used to track msg.sender's balance\n    struct Orders {\n\n        uint256 wallet_bal;\n        uint service_count;\n    }\n\n    mapping(address => Orders) public orders;\n}\n",
  "sourcePath": "/home/alex/Documents/dmv_blockchain/tiny-dapp/contracts/Redeem.sol",
  "compiler": {
    "name": "solc",
    "version": "0.8.9+commit.e5eed63a.Emscripten.clang"
  },
  "schemaVersion": "3.4.6",
  "updatedAt": "2022-04-29T22:53:40.049Z",
  "networkType": "ethereum",
  "devdoc": {
    "kind": "dev",
    "methods": {},
    "version": 1
  },
  "userdoc": {
    "kind": "user",
    "methods": {},
    "version": 1
  }
}