{
  "contractName": "ServiceInfo",
  "abi": [
    {
      "anonymous": false,
      "inputs": [
        {
          "indexed": false,
          "internalType": "address payable",
          "name": "person",
          "type": "address"
        },
        {
          "indexed": false,
          "internalType": "string",
          "name": "street",
          "type": "string"
        },
        {
          "indexed": false,
          "internalType": "string",
          "name": "state",
          "type": "string"
        },
        {
          "indexed": false,
          "internalType": "string",
          "name": "zipcode",
          "type": "string"
        }
      ],
      "name": "AddressAdded",
      "type": "event"
    },
    {
      "anonymous": false,
      "inputs": [
        {
          "indexed": false,
          "internalType": "address",
          "name": "person",
          "type": "address"
        },
        {
          "indexed": false,
          "internalType": "string",
          "name": "name",
          "type": "string"
        },
        {
          "indexed": false,
          "internalType": "string",
          "name": "dob",
          "type": "string"
        }
      ],
      "name": "InformationAdded",
      "type": "event"
    },
    {
      "anonymous": false,
      "inputs": [
        {
          "indexed": false,
          "internalType": "string",
          "name": "birthCertificate",
          "type": "string"
        },
        {
          "indexed": false,
          "internalType": "string",
          "name": "deathCertificate",
          "type": "string"
        },
        {
          "indexed": false,
          "internalType": "string",
          "name": "marriageCertificate",
          "type": "string"
        },
        {
          "indexed": false,
          "internalType": "string",
          "name": "divorceCertificate",
          "type": "string"
        },
        {
          "indexed": false,
          "internalType": "address",
          "name": "person",
          "type": "address"
        }
      ],
      "name": "VitalAdded",
      "type": "event"
    },
    {
      "inputs": [],
      "name": "customer",
      "outputs": [
        {
          "internalType": "address payable",
          "name": "",
          "type": "address"
        }
      ],
      "stateMutability": "view",
      "type": "function",
      "constant": true
    },
    {
      "inputs": [],
      "name": "donate",
      "outputs": [],
      "stateMutability": "payable",
      "type": "function",
      "payable": true
    },
    {
      "inputs": [],
      "name": "getTotalDonations",
      "outputs": [
        {
          "internalType": "uint256",
          "name": "",
          "type": "uint256"
        }
      ],
      "stateMutability": "view",
      "type": "function",
      "constant": true
    },
    {
      "inputs": [],
      "name": "infoCount",
      "outputs": [
        {
          "internalType": "uint256",
          "name": "",
          "type": "uint256"
        }
      ],
      "stateMutability": "view",
      "type": "function",
      "constant": true
    },
    {
      "inputs": [
        {
          "internalType": "address",
          "name": "",
          "type": "address"
        }
      ],
      "name": "information",
      "outputs": [
        {
          "internalType": "address",
          "name": "person",
          "type": "address"
        },
        {
          "internalType": "string",
          "name": "name",
          "type": "string"
        },
        {
          "internalType": "string",
          "name": "dob",
          "type": "string"
        }
      ],
      "stateMutability": "view",
      "type": "function",
      "constant": true
    },
    {
      "inputs": [
        {
          "internalType": "address",
          "name": "",
          "type": "address"
        }
      ],
      "name": "license",
      "outputs": [
        {
          "internalType": "address",
          "name": "person",
          "type": "address"
        },
        {
          "internalType": "string",
          "name": "customerIDNum",
          "type": "string"
        },
        {
          "internalType": "string",
          "name": "experationDate",
          "type": "string"
        }
      ],
      "stateMutability": "view",
      "type": "function",
      "constant": true
    },
    {
      "inputs": [],
      "name": "rowner",
      "outputs": [
        {
          "internalType": "address",
          "name": "",
          "type": "address"
        }
      ],
      "stateMutability": "view",
      "type": "function",
      "constant": true
    },
    {
      "inputs": [
        {
          "internalType": "address",
          "name": "",
          "type": "address"
        }
      ],
      "name": "streetAddress",
      "outputs": [
        {
          "internalType": "address",
          "name": "person",
          "type": "address"
        },
        {
          "internalType": "string",
          "name": "street",
          "type": "string"
        },
        {
          "internalType": "string",
          "name": "state",
          "type": "string"
        },
        {
          "internalType": "string",
          "name": "zipcode",
          "type": "string"
        }
      ],
      "stateMutability": "view",
      "type": "function",
      "constant": true
    },
    {
      "inputs": [
        {
          "internalType": "address",
          "name": "",
          "type": "address"
        }
      ],
      "name": "vital",
      "outputs": [
        {
          "internalType": "string",
          "name": "birthCertificate",
          "type": "string"
        },
        {
          "internalType": "string",
          "name": "deathCertificate",
          "type": "string"
        },
        {
          "internalType": "string",
          "name": "marriageCertificate",
          "type": "string"
        },
        {
          "internalType": "string",
          "name": "divorceCertificate",
          "type": "string"
        },
        {
          "internalType": "address",
          "name": "person",
          "type": "address"
        }
      ],
      "stateMutability": "view",
      "type": "function",
      "constant": true
    },
    {
      "inputs": [
        {
          "internalType": "string",
          "name": "_name",
          "type": "string"
        },
        {
          "internalType": "string",
          "name": "_dob",
          "type": "string"
        },
        {
          "internalType": "string",
          "name": "street",
          "type": "string"
        },
        {
          "internalType": "string",
          "name": "state",
          "type": "string"
        },
        {
          "internalType": "string",
          "name": "zip",
          "type": "string"
        }
      ],
      "name": "uploadInformation",
      "outputs": [],
      "stateMutability": "nonpayable",
      "type": "function"
    },
    {
      "inputs": [],
      "name": "isOwner",
      "outputs": [
        {
          "internalType": "bool",
          "name": "",
          "type": "bool"
        }
      ],
      "stateMutability": "view",
      "type": "function",
      "constant": true
    },
    {
      "inputs": [
        {
          "internalType": "string",
          "name": "_deathCertificate",
          "type": "string"
        },
        {
          "internalType": "string",
          "name": "_marriageCertificate",
          "type": "string"
        },
        {
          "internalType": "string",
          "name": "_divorceCertificate",
          "type": "string"
        },
        {
          "internalType": "string",
          "name": "_license",
          "type": "string"
        },
        {
          "internalType": "string",
          "name": "_exp",
          "type": "string"
        }
      ],
      "name": "uploadVital",
      "outputs": [],
      "stateMutability": "nonpayable",
      "type": "function"
    },
    {
      "inputs": [
        {
          "internalType": "string",
          "name": "number",
          "type": "string"
        },
        {
          "internalType": "string",
          "name": "date",
          "type": "string"
        }
      ],
      "name": "updateLicense",
      "outputs": [],
      "stateMutability": "nonpayable",
      "type": "function"
    },
    {
      "inputs": [
        {
          "internalType": "string",
          "name": "street",
          "type": "string"
        },
        {
          "internalType": "string",
          "name": "state",
          "type": "string"
        },
        {
          "internalType": "string",
          "name": "zip",
          "type": "string"
        }
      ],
      "name": "updateAddress",
      "outputs": [],
      "stateMutability": "nonpayable",
      "type": "function"
    },
    {
      "inputs": [
        {
          "internalType": "address",
          "name": "id",
          "type": "address"
        }
      ],
      "name": "getInfo",
      "outputs": [
        {
          "internalType": "string",
          "name": "",
          "type": "string"
        },
        {
          "internalType": "string",
          "name": "",
          "type": "string"
        }
      ],
      "stateMutability": "view",
      "type": "function",
      "constant": true
    },
    {
      "inputs": [
        {
          "internalType": "address",
          "name": "id",
          "type": "address"
        }
      ],
      "name": "getVital",
      "outputs": [
        {
          "internalType": "string",
          "name": "",
          "type": "string"
        },
        {
          "internalType": "string",
          "name": "",
          "type": "string"
        },
        {
          "internalType": "string",
          "name": "",
          "type": "string"
        },
        {
          "internalType": "string",
          "name": "",
          "type": "string"
        }
      ],
      "stateMutability": "view",
      "type": "function",
      "constant": true
    },
    {
      "inputs": [],
      "name": "pay",
      "outputs": [],
      "stateMutability": "payable",
      "type": "function",
      "payable": true
    },
    {
      "inputs": [
        {
          "internalType": "address",
          "name": "id",
          "type": "address"
        }
      ],
      "name": "getLicense",
      "outputs": [
        {
          "internalType": "string",
          "name": "",
          "type": "string"
        },
        {
          "internalType": "string",
          "name": "",
          "type": "string"
        }
      ],
      "stateMutability": "view",
      "type": "function",
      "constant": true
    },
    {
      "inputs": [
        {
          "internalType": "address",
          "name": "id",
          "type": "address"
        }
      ],
      "name": "getAddress",
      "outputs": [
        {
          "internalType": "string",
          "name": "",
          "type": "string"
        },
        {
          "internalType": "string",
          "name": "",
          "type": "string"
        },
        {
          "internalType": "string",
          "name": "",
          "type": "string"
        }
      ],
      "stateMutability": "view",
      "type": "function",
      "constant": true
    }
  ],
  "bytecode": "0x6080604052600060045534801561001557600080fd5b50336000806101000a81548173ffffffffffffffffffffffffffffffffffffffff021916908373ffffffffffffffffffffffffffffffffffffffff160217905550612ad4806100656000396000f3fe6080604052600436106101145760003560e01c8063a30ab2d0116100a0578063d6062e4411610064578063d6062e44146103c7578063ed88c68e14610406578063ff296eaa14610410578063ffb60aac1461043b578063ffdd5cf11461046457610114565b8063a30ab2d01461029f578063ae22c57d146102de578063bbbe7d131461031d578063c4b953c11461035d578063d21d2f901461038657610114565b806347bd29a0116100e757806347bd29a0146101b757806368e1e893146101e0578063777c658f1461021e5780638f32d59b14610249578063a07e11811461027457610114565b8063179c3aff146101195780631b9265b8146101595780632804b2c014610163578063409898d21461018e575b600080fd5b34801561012557600080fd5b50610140600480360381019061013b9190611fe0565b6104a2565b60405161015094939291906120b5565b60405180910390f35b61016161068a565b005b34801561016f57600080fd5b506101786106b8565b6040516101859190612130565b60405180910390f35b34801561019a57600080fd5b506101b560048036038101906101b09190612280565b6106de565b005b3480156101c357600080fd5b506101de60048036038101906101d99190612387565b6109a2565b005b3480156101ec57600080fd5b5061020760048036038101906102029190611fe0565b610b05565b60405161021592919061242e565b60405180910390f35b34801561022a57600080fd5b50610233610cad565b604051610240919061247e565b60405180910390f35b34801561025557600080fd5b5061025e610cb7565b60405161026b91906124b4565b60405180910390f35b34801561028057600080fd5b50610289610d4f565b60405161029691906124cf565b60405180910390f35b3480156102ab57600080fd5b506102c660048036038101906102c19190611fe0565b610d78565b6040516102d5939291906124ea565b60405180910390f35b3480156102ea57600080fd5b5061030560048036038101906103009190611fe0565b610ed2565b6040516103149392919061252f565b60405180910390f35b34801561032957600080fd5b50610344600480360381019061033f9190611fe0565b61114e565b604051610354949392919061257b565b60405180910390f35b34801561036957600080fd5b50610384600480360381019061037f91906125dc565b61149b565b005b34801561039257600080fd5b506103ad60048036038101906103a89190611fe0565b6115da565b6040516103be959493929190612654565b60405180910390f35b3480156103d357600080fd5b506103ee60048036038101906103e99190611fe0565b611850565b6040516103fd939291906124ea565b60405180910390f35b61040e6119aa565b005b34801561041c57600080fd5b50610425611a7a565b604051610432919061247e565b60405180910390f35b34801561044757600080fd5b50610462600480360381019061045d9190612280565b611a80565b005b34801561047057600080fd5b5061048b60048036038101906104869190611fe0565b611d23565b60405161049992919061242e565b60405180910390f35b600a6020528060005260406000206000915090508060000160009054906101000a900473ffffffffffffffffffffffffffffffffffffffff16908060010180546104eb906126f2565b80601f0160208091040260200160405190810160405280929190818152602001828054610517906126f2565b80156105645780601f1061053957610100808354040283529160200191610564565b820191906000526020600020905b81548152906001019060200180831161054757829003601f168201915b505050505090806002018054610579906126f2565b80601f01602080910402602001604051908101604052809291908181526020018280546105a5906126f2565b80156105f25780601f106105c7576101008083540402835291602001916105f2565b820191906000526020600020905b8154815290600101906020018083116105d557829003601f168201915b505050505090806003018054610607906126f2565b80601f0160208091040260200160405190810160405280929190818152602001828054610633906126f2565b80156106805780601f1061065557610100808354040283529160200191610680565b820191906000526020600020905b81548152906001019060200180831161066357829003601f168201915b5050505050905084565b666a94d74f430000341461069d57600080fd5b34600160008282546106af9190612753565b92505081905550565b600660009054906101000a900473ffffffffffffffffffffffffffffffffffffffff1681565b600073ffffffffffffffffffffffffffffffffffffffff163373ffffffffffffffffffffffffffffffffffffffff16141561071857600080fd5b6040518060a001604052806040518060600160405280602e8152602001612a71602e913981526020018681526020018581526020018481526020013373ffffffffffffffffffffffffffffffffffffffff16815250600860003373ffffffffffffffffffffffffffffffffffffffff1673ffffffffffffffffffffffffffffffffffffffff16815260200190815260200160002060008201518160000190805190602001906107c8929190611ecb565b5060208201518160010190805190602001906107e5929190611ecb565b506040820151816002019080519060200190610802929190611ecb565b50606082015181600301908051906020019061081f929190611ecb565b5060808201518160040160006101000a81548173ffffffffffffffffffffffffffffffffffffffff021916908373ffffffffffffffffffffffffffffffffffffffff16021790555090505060405180606001604052803373ffffffffffffffffffffffffffffffffffffffff16815260200183815260200182815250600960003373ffffffffffffffffffffffffffffffffffffffff1673ffffffffffffffffffffffffffffffffffffffff16815260200190815260200160002060008201518160000160006101000a81548173ffffffffffffffffffffffffffffffffffffffff021916908373ffffffffffffffffffffffffffffffffffffffff160217905550602082015181600101908051906020019061093d929190611ecb565b50604082015181600201908051906020019061095a929190611ecb565b509050507f2bd260e38bda2d0c9cc3dbf6e744a2762420314a7125f7481a6a81bb9b0e09e385858533604051610993949392919061287a565b60405180910390a15050505050565b6109aa610cb7565b6109e9576040517f08c379a00000000000000000000000000000000000000000000000000000000081526004016109e090612959565b60405180910390fd5b60405180608001604052803373ffffffffffffffffffffffffffffffffffffffff16815260200184815260200183815260200182815250600a60003373ffffffffffffffffffffffffffffffffffffffff1673ffffffffffffffffffffffffffffffffffffffff16815260200190815260200160002060008201518160000160006101000a81548173ffffffffffffffffffffffffffffffffffffffff021916908373ffffffffffffffffffffffffffffffffffffffff1602179055506020820151816001019080519060200190610ac2929190611ecb565b506040820151816002019080519060200190610adf929190611ecb565b506060820151816003019080519060200190610afc929190611ecb565b50905050505050565b606080600960008473ffffffffffffffffffffffffffffffffffffffff1673ffffffffffffffffffffffffffffffffffffffff168152602001908152602001600020600101600960008573ffffffffffffffffffffffffffffffffffffffff1673ffffffffffffffffffffffffffffffffffffffff168152602001908152602001600020600201818054610b98906126f2565b80601f0160208091040260200160405190810160405280929190818152602001828054610bc4906126f2565b8015610c115780601f10610be657610100808354040283529160200191610c11565b820191906000526020600020905b815481529060010190602001808311610bf457829003601f168201915b50505050509150808054610c24906126f2565b80601f0160208091040260200160405190810160405280929190818152602001828054610c50906126f2565b8015610c9d5780601f10610c7257610100808354040283529160200191610c9d565b820191906000526020600020905b815481529060010190602001808311610c8057829003601f168201915b5050505050905091509150915091565b6000600154905090565b6000600760003373ffffffffffffffffffffffffffffffffffffffff1673ffffffffffffffffffffffffffffffffffffffff16815260200190815260200160002060000160009054906101000a900473ffffffffffffffffffffffffffffffffffffffff1673ffffffffffffffffffffffffffffffffffffffff163373ffffffffffffffffffffffffffffffffffffffff1614905090565b60008060009054906101000a900473ffffffffffffffffffffffffffffffffffffffff16905090565b60076020528060005260406000206000915090508060000160009054906101000a900473ffffffffffffffffffffffffffffffffffffffff1690806001018054610dc1906126f2565b80601f0160208091040260200160405190810160405280929190818152602001828054610ded906126f2565b8015610e3a5780601f10610e0f57610100808354040283529160200191610e3a565b820191906000526020600020905b815481529060010190602001808311610e1d57829003601f168201915b505050505090806002018054610e4f906126f2565b80601f0160208091040260200160405190810160405280929190818152602001828054610e7b906126f2565b8015610ec85780601f10610e9d57610100808354040283529160200191610ec8565b820191906000526020600020905b815481529060010190602001808311610eab57829003601f168201915b5050505050905083565b6060806060600a60008573ffffffffffffffffffffffffffffffffffffffff1673ffffffffffffffffffffffffffffffffffffffff168152602001908152602001600020600101600a60008673ffffffffffffffffffffffffffffffffffffffff1673ffffffffffffffffffffffffffffffffffffffff168152602001908152602001600020600201600a60008773ffffffffffffffffffffffffffffffffffffffff1673ffffffffffffffffffffffffffffffffffffffff168152602001908152602001600020600301828054610fa9906126f2565b80601f0160208091040260200160405190810160405280929190818152602001828054610fd5906126f2565b80156110225780601f10610ff757610100808354040283529160200191611022565b820191906000526020600020905b81548152906001019060200180831161100557829003601f168201915b50505050509250818054611035906126f2565b80601f0160208091040260200160405190810160405280929190818152602001828054611061906126f2565b80156110ae5780601f10611083576101008083540402835291602001916110ae565b820191906000526020600020905b81548152906001019060200180831161109157829003601f168201915b505050505091508080546110c1906126f2565b80601f01602080910402602001604051908101604052809291908181526020018280546110ed906126f2565b801561113a5780601f1061110f5761010080835404028352916020019161113a565b820191906000526020600020905b81548152906001019060200180831161111d57829003601f168201915b505050505090509250925092509193909250565b606080606080600860008673ffffffffffffffffffffffffffffffffffffffff1673ffffffffffffffffffffffffffffffffffffffff168152602001908152602001600020600001600860008773ffffffffffffffffffffffffffffffffffffffff1673ffffffffffffffffffffffffffffffffffffffff168152602001908152602001600020600101600860008873ffffffffffffffffffffffffffffffffffffffff1673ffffffffffffffffffffffffffffffffffffffff168152602001908152602001600020600201600860008973ffffffffffffffffffffffffffffffffffffffff1673ffffffffffffffffffffffffffffffffffffffff168152602001908152602001600020600301838054611268906126f2565b80601f0160208091040260200160405190810160405280929190818152602001828054611294906126f2565b80156112e15780601f106112b6576101008083540402835291602001916112e1565b820191906000526020600020905b8154815290600101906020018083116112c457829003601f168201915b505050505093508280546112f4906126f2565b80601f0160208091040260200160405190810160405280929190818152602001828054611320906126f2565b801561136d5780601f106113425761010080835404028352916020019161136d565b820191906000526020600020905b81548152906001019060200180831161135057829003601f168201915b50505050509250818054611380906126f2565b80601f01602080910402602001604051908101604052809291908181526020018280546113ac906126f2565b80156113f95780601f106113ce576101008083540402835291602001916113f9565b820191906000526020600020905b8154815290600101906020018083116113dc57829003601f168201915b5050505050915080805461140c906126f2565b80601f0160208091040260200160405190810160405280929190818152602001828054611438906126f2565b80156114855780601f1061145a57610100808354040283529160200191611485565b820191906000526020600020905b81548152906001019060200180831161146857829003601f168201915b5050505050905093509350935093509193509193565b6114a3610cb7565b6114e2576040517f08c379a00000000000000000000000000000000000000000000000000000000081526004016114d990612959565b60405180910390fd5b60405180606001604052803373ffffffffffffffffffffffffffffffffffffffff16815260200183815260200182815250600960003373ffffffffffffffffffffffffffffffffffffffff1673ffffffffffffffffffffffffffffffffffffffff16815260200190815260200160002060008201518160000160006101000a81548173ffffffffffffffffffffffffffffffffffffffff021916908373ffffffffffffffffffffffffffffffffffffffff16021790555060208201518160010190805190602001906115b5929190611ecb565b5060408201518160020190805190602001906115d2929190611ecb565b509050505050565b60086020528060005260406000206000915090508060000180546115fd906126f2565b80601f0160208091040260200160405190810160405280929190818152602001828054611629906126f2565b80156116765780601f1061164b57610100808354040283529160200191611676565b820191906000526020600020905b81548152906001019060200180831161165957829003601f168201915b50505050509080600101805461168b906126f2565b80601f01602080910402602001604051908101604052809291908181526020018280546116b7906126f2565b80156117045780601f106116d957610100808354040283529160200191611704565b820191906000526020600020905b8154815290600101906020018083116116e757829003601f168201915b505050505090806002018054611719906126f2565b80601f0160208091040260200160405190810160405280929190818152602001828054611745906126f2565b80156117925780601f1061176757610100808354040283529160200191611792565b820191906000526020600020905b81548152906001019060200180831161177557829003601f168201915b5050505050908060030180546117a7906126f2565b80601f01602080910402602001604051908101604052809291908181526020018280546117d3906126f2565b80156118205780601f106117f557610100808354040283529160200191611820565b820191906000526020600020905b81548152906001019060200180831161180357829003601f168201915b5050505050908060040160009054906101000a900473ffffffffffffffffffffffffffffffffffffffff16905085565b60096020528060005260406000206000915090508060000160009054906101000a900473ffffffffffffffffffffffffffffffffffffffff1690806001018054611899906126f2565b80601f01602080910402602001604051908101604052809291908181526020018280546118c5906126f2565b80156119125780601f106118e757610100808354040283529160200191611912565b820191906000526020600020905b8154815290600101906020018083116118f557829003601f168201915b505050505090806002018054611927906126f2565b80601f0160208091040260200160405190810160405280929190818152602001828054611953906126f2565b80156119a05780601f10611975576101008083540402835291602001916119a0565b820191906000526020600020905b81548152906001019060200180831161198357829003601f168201915b5050505050905083565b60008060009054906101000a900473ffffffffffffffffffffffffffffffffffffffff1673ffffffffffffffffffffffffffffffffffffffff16346040516119f1906129aa565b60006040518083038185875af1925050503d8060008114611a2e576040519150601f19603f3d011682016040523d82523d6000602084013e611a33565b606091505b5050905080611a77576040517f08c379a0000000000000000000000000000000000000000000000000000000008152600401611a6e90612a0b565b60405180910390fd5b50565b60045481565b6000855111611a8e57600080fd5b6000845111611a9c57600080fd5b600073ffffffffffffffffffffffffffffffffffffffff163373ffffffffffffffffffffffffffffffffffffffff161415611ad657600080fd5b60405180606001604052803373ffffffffffffffffffffffffffffffffffffffff16815260200186815260200185815250600760003373ffffffffffffffffffffffffffffffffffffffff1673ffffffffffffffffffffffffffffffffffffffff16815260200190815260200160002060008201518160000160006101000a81548173ffffffffffffffffffffffffffffffffffffffff021916908373ffffffffffffffffffffffffffffffffffffffff1602179055506020820151816001019080519060200190611ba9929190611ecb565b506040820151816002019080519060200190611bc6929190611ecb565b5090505060405180608001604052803373ffffffffffffffffffffffffffffffffffffffff16815260200184815260200183815260200182815250600a60003373ffffffffffffffffffffffffffffffffffffffff1673ffffffffffffffffffffffffffffffffffffffff16815260200190815260200160002060008201518160000160006101000a81548173ffffffffffffffffffffffffffffffffffffffff021916908373ffffffffffffffffffffffffffffffffffffffff1602179055506020820151816001019080519060200190611ca3929190611ecb565b506040820151816002019080519060200190611cc0929190611ecb565b506060820151816003019080519060200190611cdd929190611ecb565b509050507fa50c63ff1d69ffd8f5a74a221308a5478d527197f848ac41aaa0fa28b8113b9f338686604051611d1493929190612a2b565b60405180910390a15050505050565b606080600760008473ffffffffffffffffffffffffffffffffffffffff1673ffffffffffffffffffffffffffffffffffffffff168152602001908152602001600020600101600760008573ffffffffffffffffffffffffffffffffffffffff1673ffffffffffffffffffffffffffffffffffffffff168152602001908152602001600020600201818054611db6906126f2565b80601f0160208091040260200160405190810160405280929190818152602001828054611de2906126f2565b8015611e2f5780601f10611e0457610100808354040283529160200191611e2f565b820191906000526020600020905b815481529060010190602001808311611e1257829003601f168201915b50505050509150808054611e42906126f2565b80601f0160208091040260200160405190810160405280929190818152602001828054611e6e906126f2565b8015611ebb5780601f10611e9057610100808354040283529160200191611ebb565b820191906000526020600020905b815481529060010190602001808311611e9e57829003601f168201915b5050505050905091509150915091565b828054611ed7906126f2565b90600052602060002090601f016020900481019282611ef95760008555611f40565b82601f10611f1257805160ff1916838001178555611f40565b82800160010185558215611f40579182015b82811115611f3f578251825591602001919060010190611f24565b5b509050611f4d9190611f51565b5090565b5b80821115611f6a576000816000905550600101611f52565b5090565b6000604051905090565b600080fd5b600080fd5b600073ffffffffffffffffffffffffffffffffffffffff82169050919050565b6000611fad82611f82565b9050919050565b611fbd81611fa2565b8114611fc857600080fd5b50565b600081359050611fda81611fb4565b92915050565b600060208284031215611ff657611ff5611f78565b5b600061200484828501611fcb565b91505092915050565b61201681611fa2565b82525050565b600081519050919050565b600082825260208201905092915050565b60005b8381101561205657808201518184015260208101905061203b565b83811115612065576000848401525b50505050565b6000601f19601f8301169050919050565b60006120878261201c565b6120918185612027565b93506120a1818560208601612038565b6120aa8161206b565b840191505092915050565b60006080820190506120ca600083018761200d565b81810360208301526120dc818661207c565b905081810360408301526120f0818561207c565b90508181036060830152612104818461207c565b905095945050505050565b600061211a82611f82565b9050919050565b61212a8161210f565b82525050565b60006020820190506121456000830184612121565b92915050565b600080fd5b600080fd5b7f4e487b7100000000000000000000000000000000000000000000000000000000600052604160045260246000fd5b61218d8261206b565b810181811067ffffffffffffffff821117156121ac576121ab612155565b5b80604052505050565b60006121bf611f6e565b90506121cb8282612184565b919050565b600067ffffffffffffffff8211156121eb576121ea612155565b5b6121f48261206b565b9050602081019050919050565b82818337600083830152505050565b600061222361221e846121d0565b6121b5565b90508281526020810184848401111561223f5761223e612150565b5b61224a848285612201565b509392505050565b600082601f8301126122675761226661214b565b5b8135612277848260208601612210565b91505092915050565b600080600080600060a0868803121561229c5761229b611f78565b5b600086013567ffffffffffffffff8111156122ba576122b9611f7d565b5b6122c688828901612252565b955050602086013567ffffffffffffffff8111156122e7576122e6611f7d565b5b6122f388828901612252565b945050604086013567ffffffffffffffff81111561231457612313611f7d565b5b61232088828901612252565b935050606086013567ffffffffffffffff81111561234157612340611f7d565b5b61234d88828901612252565b925050608086013567ffffffffffffffff81111561236e5761236d611f7d565b5b61237a88828901612252565b9150509295509295909350565b6000806000606084860312156123a05761239f611f78565b5b600084013567ffffffffffffffff8111156123be576123bd611f7d565b5b6123ca86828701612252565b935050602084013567ffffffffffffffff8111156123eb576123ea611f7d565b5b6123f786828701612252565b925050604084013567ffffffffffffffff81111561241857612417611f7d565b5b61242486828701612252565b9150509250925092565b60006040820190508181036000830152612448818561207c565b9050818103602083015261245c818461207c565b90509392505050565b6000819050919050565b61247881612465565b82525050565b6000602082019050612493600083018461246f565b92915050565b60008115159050919050565b6124ae81612499565b82525050565b60006020820190506124c960008301846124a5565b92915050565b60006020820190506124e4600083018461200d565b92915050565b60006060820190506124ff600083018661200d565b8181036020830152612511818561207c565b90508181036040830152612525818461207c565b9050949350505050565b60006060820190508181036000830152612549818661207c565b9050818103602083015261255d818561207c565b90508181036040830152612571818461207c565b9050949350505050565b60006080820190508181036000830152612595818761207c565b905081810360208301526125a9818661207c565b905081810360408301526125bd818561207c565b905081810360608301526125d1818461207c565b905095945050505050565b600080604083850312156125f3576125f2611f78565b5b600083013567ffffffffffffffff81111561261157612610611f7d565b5b61261d85828601612252565b925050602083013567ffffffffffffffff81111561263e5761263d611f7d565b5b61264a85828601612252565b9150509250929050565b600060a082019050818103600083015261266e818861207c565b90508181036020830152612682818761207c565b90508181036040830152612696818661207c565b905081810360608301526126aa818561207c565b90506126b9608083018461200d565b9695505050505050565b7f4e487b7100000000000000000000000000000000000000000000000000000000600052602260045260246000fd5b6000600282049050600182168061270a57607f821691505b6020821081141561271e5761271d6126c3565b5b50919050565b7f4e487b7100000000000000000000000000000000000000000000000000000000600052601160045260246000fd5b600061275e82612465565b915061276983612465565b9250827fffffffffffffffffffffffffffffffffffffffffffffffffffffffffffffffff0382111561279e5761279d612724565b5b828201905092915050565b7f516d4e57526753754a443367677974555864425134654e59713469587658484460008201527f4a5a57714a64476d76513979654a000000000000000000000000000000000000602082015250565b6000612805602e83612027565b9150612810826127a9565b604082019050919050565b6000819050919050565b600061284061283b61283684611f82565b61281b565b611f82565b9050919050565b600061285282612825565b9050919050565b600061286482612847565b9050919050565b61287481612859565b82525050565b600060a0820190508181036000830152612893816127f8565b905081810360208301526128a7818761207c565b905081810360408301526128bb818661207c565b905081810360608301526128cf818561207c565b90506128de608083018461286b565b95945050505050565b7f46756e6374696f6e2061636365737369626c65206f6e6c79206279207468652060008201527f6f776e6572202121000000000000000000000000000000000000000000000000602082015250565b6000612943602883612027565b915061294e826128e7565b604082019050919050565b6000602082019050818103600083015261297281612936565b9050919050565b600081905092915050565b50565b6000612994600083612979565b915061299f82612984565b600082019050919050565b60006129b582612987565b9150819050919050565b7f4661696c656420746f2073656e64206d6f6e6579000000000000000000000000600082015250565b60006129f5601483612027565b9150612a00826129bf565b602082019050919050565b60006020820190508181036000830152612a24816129e8565b9050919050565b6000606082019050612a40600083018661286b565b8181036020830152612a52818561207c565b90508181036040830152612a66818461207c565b905094935050505056fe516d4e57526753754a443367677974555864425134654e5971346958765848444a5a57714a64476d76513979654aa26469706673582212209c0d700c0bdebf24992053cece06a8f3b08cdc823a0d6cfa2a1598fb97d7db0464736f6c63430008090033",
  "immutableReferences": {},
  "source": "// SPDX-License-Identifier: MIT\r\n\r\npragma solidity ^0.8.9;\r\ncontract Ownable {\r\n    //address private owner;\r\n    address payable owner;\r\n    uint256 totalDonations;\r\n\r\n    constructor() {\r\n        owner = payable(msg.sender);\r\n    }\r\n\r\n    function getTotalDonations() public view returns (uint256) {\r\n        return totalDonations;\r\n    }\r\n\r\n    function donate() public payable {\r\n        (bool success, ) = owner.call{value: msg.value}(\"\");\r\n        require(success, \"Failed to send money\");\r\n    }\r\n\r\n    function rowner() public view returns (address) {\r\n        return owner;\r\n    }\r\n\r\n    /*function transferOwnership(address _newOwner) public onlyOwner {\r\n        owner = _newOwner;\r\n    }*/\r\n}\r\n\r\ncontract ServiceInfo is Ownable {\r\n    // In units of wei\r\n    address[] peeps;\r\n    uint256 price;\r\n    uint256 public infoCount = 0;\r\n    uint256 num_services;\r\n    address payable public customer;\r\n    mapping(address => Information) public information;\r\n    mapping(address => Vital) public vital;\r\n    mapping(address => License) public license;\r\n    mapping(address => Address) public streetAddress;\r\n\r\n\r\n\r\n    struct Information {\r\n        address person;\r\n        string name;\r\n        string dob;\r\n    }\r\n\r\n    struct Address {\r\n        address person;\r\n        string street;\r\n        string state;\r\n        string zipcode;\r\n    }\r\n\r\n    struct License {\r\n        address person;\r\n        string customerIDNum;\r\n        string experationDate;\r\n    }\r\n\r\n    struct Vital {\r\n        string birthCertificate;\r\n        string deathCertificate;\r\n        string marriageCertificate;\r\n        string divorceCertificate;\r\n        address person;\r\n    }\r\n\r\n    //\r\n    event InformationAdded(address person, string name, string dob);\r\n\r\n    event AddressAdded(\r\n        address payable person,\r\n        string street,\r\n        string state,\r\n        string zipcode\r\n    );\r\n\r\n    event VitalAdded(\r\n        string birthCertificate,\r\n        string deathCertificate,\r\n        string marriageCertificate,\r\n        string divorceCertificate,\r\n        address person\r\n    );\r\n\r\n    function stringsEquals(string memory s1, string memory s2)\r\n        private\r\n        pure\r\n        returns (bool)\r\n    {\r\n        bytes memory b1 = bytes(s1);\r\n        bytes memory b2 = bytes(s2);\r\n        uint256 l1 = b1.length;\r\n        if (l1 != b2.length) return false;\r\n        for (uint256 i = 0; i < l1; i++) {\r\n            if (b1[i] != b2[i]) return false;\r\n        }\r\n        return true;\r\n    }\r\n\r\n    function uploadInformation(string memory _name, string memory _dob, string memory street, string memory state, string memory zip) public {\r\n        require(bytes(_name).length > 0);\r\n        require(bytes(_dob).length > 0);\r\n        require(msg.sender != address(0));\r\n        //require(!stringsEquals(information[msg.sender].name, \"none\"));\r\n        //peeps.push(msg.sender);\r\n        information[msg.sender] = Information(msg.sender, _name, _dob);\r\n        streetAddress[msg.sender] = Address(msg.sender, street, state, zip);\r\n        emit InformationAdded(payable(msg.sender), _name, _dob);\r\n    }\r\n\r\n    function isOwner() public view returns (bool) {\r\n        \r\n        return msg.sender == information[msg.sender].person;\r\n    }\r\n\r\n    modifier onlyOwner() {\r\n        require(isOwner(), \"Function accessible only by the owner !!\");\r\n        _;\r\n    }\r\n\r\n    function uploadVital(\r\n        string memory _deathCertificate,\r\n        string memory _marriageCertificate,\r\n        string memory _divorceCertificate,\r\n        string memory _license,\r\n        string memory _exp\r\n    ) public {\r\n\r\n        require(msg.sender != address(0));\r\n        \r\n        vital[msg.sender] = Vital(\r\n            \"QmNWRgSuJD3ggytUXdBQ4eNYq4iXvXHDJZWqJdGmvQ9yeJ\",\r\n            _deathCertificate,\r\n            _marriageCertificate,\r\n            _divorceCertificate,\r\n            payable(msg.sender)\r\n        );\r\n\r\n        license[msg.sender] = License(msg.sender, _license, _exp);\r\n\r\n        emit VitalAdded(\r\n            \"QmNWRgSuJD3ggytUXdBQ4eNYq4iXvXHDJZWqJdGmvQ9yeJ\",\r\n            _deathCertificate,\r\n            _marriageCertificate,\r\n            _divorceCertificate,\r\n            payable(msg.sender)\r\n        );\r\n    }\r\n\r\n    function updateLicense(string memory number, string memory date) public onlyOwner{\r\n        license[msg.sender]=License(msg.sender, number, date);\r\n    }\r\n    function updateAddress(string memory street, string memory state, string memory zip) public onlyOwner{\r\n        streetAddress[msg.sender]=Address(msg.sender, street, state, zip);\r\n    }\r\n\r\n    function getInfo(address id) public view returns(string memory, string memory){\r\n        return(information[id].name, information[id].dob);\r\n    }\r\n    function getVital(address id) public view returns(string memory, string memory, string memory, string memory){\r\n        \r\n        return(vital[id].birthCertificate, vital[id].deathCertificate, vital[id].marriageCertificate, vital[id].divorceCertificate);\r\n    }\r\n    function pay() public payable {\r\n        require(msg.value == .03 ether);\r\n        totalDonations += msg.value;\r\n    }\r\n    function getLicense(address id) public view returns(string memory, string memory){\r\n        return(license[id].customerIDNum, license[id].experationDate);\r\n    }\r\n    function getAddress(address id) public view returns(string memory, string memory, string memory){\r\n        return(streetAddress[id].street, streetAddress[id].state, streetAddress[id].zipcode);\r\n    }\r\n}\r\n\r\n",
  "sourcePath": "C:\\Users\\ryhil\\OneDrive\\Documents\\ODUCS\\CS764\\dmv_blockchain\\tiny-dapp\\contracts\\ServiceInfo.sol",
  "compiler": {
    "name": "solc",
    "version": "0.8.9+commit.e5eed63a.Emscripten.clang"
  },
  "schemaVersion": "3.4.7",
  "updatedAt": "2022-05-02T18:13:45.635Z",
  "networkType": "ethereum",
  "devdoc": {
    "kind": "dev",
    "methods": {},
    "version": 1
  },
  "userdoc": {
    "kind": "user",
    "methods": {},
    "version": 1
  }
}