{
  "contractName": "ServiceInfo",
  "abi": [
    {
      "anonymous": false,
      "inputs": [
        {
          "indexed": false,
          "internalType": "address payable",
          "name": "person",
          "type": "address"
        },
        {
          "indexed": false,
          "internalType": "string",
          "name": "street",
          "type": "string"
        },
        {
          "indexed": false,
          "internalType": "string",
          "name": "state",
          "type": "string"
        },
        {
          "indexed": false,
          "internalType": "string",
          "name": "zipcode",
          "type": "string"
        }
      ],
      "name": "AddressAdded",
      "type": "event"
    },
    {
      "anonymous": false,
      "inputs": [
        {
          "indexed": false,
          "internalType": "address",
          "name": "person",
          "type": "address"
        },
        {
          "indexed": false,
          "internalType": "string",
          "name": "name",
          "type": "string"
        },
        {
          "indexed": false,
          "internalType": "string",
          "name": "dob",
          "type": "string"
        }
      ],
      "name": "InformationAdded",
      "type": "event"
    },
    {
      "anonymous": false,
      "inputs": [
        {
          "indexed": false,
          "internalType": "string",
          "name": "birthCertificate",
          "type": "string"
        },
        {
          "indexed": false,
          "internalType": "string",
          "name": "deathCertificate",
          "type": "string"
        },
        {
          "indexed": false,
          "internalType": "string",
          "name": "marriageCertificate",
          "type": "string"
        },
        {
          "indexed": false,
          "internalType": "string",
          "name": "divorceCertificate",
          "type": "string"
        },
        {
          "indexed": false,
          "internalType": "address",
          "name": "person",
          "type": "address"
        }
      ],
      "name": "VitalAdded",
      "type": "event"
    },
    {
      "inputs": [],
      "name": "customer",
      "outputs": [
        {
          "internalType": "address payable",
          "name": "",
          "type": "address"
        }
      ],
      "stateMutability": "view",
      "type": "function",
      "constant": true
    },
    {
      "inputs": [],
      "name": "infoCount",
      "outputs": [
        {
          "internalType": "uint256",
          "name": "",
          "type": "uint256"
        }
      ],
      "stateMutability": "view",
      "type": "function",
      "constant": true
    },
    {
      "inputs": [
        {
          "internalType": "address",
          "name": "",
          "type": "address"
        }
      ],
      "name": "information",
      "outputs": [
        {
          "internalType": "address",
          "name": "person",
          "type": "address"
        },
        {
          "internalType": "string",
          "name": "name",
          "type": "string"
        },
        {
          "internalType": "string",
          "name": "dob",
          "type": "string"
        }
      ],
      "stateMutability": "view",
      "type": "function",
      "constant": true
    },
    {
      "inputs": [
        {
          "internalType": "address",
          "name": "",
          "type": "address"
        }
      ],
      "name": "license",
      "outputs": [
        {
          "internalType": "address",
          "name": "person",
          "type": "address"
        },
        {
          "internalType": "string",
          "name": "customerIDNum",
          "type": "string"
        },
        {
          "internalType": "string",
          "name": "experationDate",
          "type": "string"
        }
      ],
      "stateMutability": "view",
      "type": "function",
      "constant": true
    },
    {
      "inputs": [
        {
          "internalType": "address",
          "name": "",
          "type": "address"
        }
      ],
      "name": "streetAddress",
      "outputs": [
        {
          "internalType": "address",
          "name": "person",
          "type": "address"
        },
        {
          "internalType": "string",
          "name": "street",
          "type": "string"
        },
        {
          "internalType": "string",
          "name": "state",
          "type": "string"
        },
        {
          "internalType": "string",
          "name": "zipcode",
          "type": "string"
        }
      ],
      "stateMutability": "view",
      "type": "function",
      "constant": true
    },
    {
      "inputs": [
        {
          "internalType": "address",
          "name": "",
          "type": "address"
        }
      ],
      "name": "vital",
      "outputs": [
        {
          "internalType": "string",
          "name": "birthCertificate",
          "type": "string"
        },
        {
          "internalType": "string",
          "name": "deathCertificate",
          "type": "string"
        },
        {
          "internalType": "string",
          "name": "marriageCertificate",
          "type": "string"
        },
        {
          "internalType": "string",
          "name": "divorceCertificate",
          "type": "string"
        },
        {
          "internalType": "address",
          "name": "person",
          "type": "address"
        }
      ],
      "stateMutability": "view",
      "type": "function",
      "constant": true
    },
    {
      "inputs": [
        {
          "internalType": "string",
          "name": "_name",
          "type": "string"
        },
        {
          "internalType": "string",
          "name": "_dob",
          "type": "string"
        },
        {
          "internalType": "string",
          "name": "street",
          "type": "string"
        },
        {
          "internalType": "string",
          "name": "state",
          "type": "string"
        },
        {
          "internalType": "string",
          "name": "zip",
          "type": "string"
        }
      ],
      "name": "uploadInformation",
      "outputs": [],
      "stateMutability": "nonpayable",
      "type": "function"
    },
    {
      "inputs": [
        {
          "internalType": "string",
          "name": "_deathCertificate",
          "type": "string"
        },
        {
          "internalType": "string",
          "name": "_marriageCertificate",
          "type": "string"
        },
        {
          "internalType": "string",
          "name": "_divorceCertificate",
          "type": "string"
        },
        {
          "internalType": "string",
          "name": "_license",
          "type": "string"
        },
        {
          "internalType": "string",
          "name": "_exp",
          "type": "string"
        }
      ],
      "name": "uploadVital",
      "outputs": [],
      "stateMutability": "nonpayable",
      "type": "function"
    },
    {
      "inputs": [
        {
          "internalType": "address",
          "name": "id",
          "type": "address"
        }
      ],
      "name": "getInfo",
      "outputs": [
        {
          "internalType": "string",
          "name": "",
          "type": "string"
        },
        {
          "internalType": "string",
          "name": "",
          "type": "string"
        }
      ],
      "stateMutability": "view",
      "type": "function",
      "constant": true
    },
    {
      "inputs": [
        {
          "internalType": "address",
          "name": "id",
          "type": "address"
        }
      ],
      "name": "getVital",
      "outputs": [
        {
          "internalType": "string",
          "name": "",
          "type": "string"
        },
        {
          "internalType": "string",
          "name": "",
          "type": "string"
        },
        {
          "internalType": "string",
          "name": "",
          "type": "string"
        },
        {
          "internalType": "string",
          "name": "",
          "type": "string"
        }
      ],
      "stateMutability": "view",
      "type": "function",
      "constant": true
    },
    {
      "inputs": [
        {
          "internalType": "address",
          "name": "id",
          "type": "address"
        }
      ],
      "name": "getLicense",
      "outputs": [
        {
          "internalType": "string",
          "name": "",
          "type": "string"
        },
        {
          "internalType": "string",
          "name": "",
          "type": "string"
        }
      ],
      "stateMutability": "view",
      "type": "function",
      "constant": true
    },
    {
      "inputs": [
        {
          "internalType": "address",
          "name": "id",
          "type": "address"
        }
      ],
      "name": "getAddress",
      "outputs": [
        {
          "internalType": "string",
          "name": "",
          "type": "string"
        },
        {
          "internalType": "string",
          "name": "",
          "type": "string"
        },
        {
          "internalType": "string",
          "name": "",
          "type": "string"
        }
      ],
      "stateMutability": "view",
      "type": "function",
      "constant": true
    }
  ],
  "bytecode": "0x6080604052600060025534801561001557600080fd5b5061214d806100256000396000f3fe608060405234801561001057600080fd5b50600436106100b45760003560e01c8063bbbe7d1311610071578063bbbe7d13146101bb578063d21d2f90146101ee578063d6062e4414610222578063ff296eaa14610254578063ffb60aac14610272578063ffdd5cf11461028e576100b4565b8063179c3aff146100b95780632804b2c0146100ec578063409898d21461010a57806368e1e89314610126578063a30ab2d014610157578063ae22c57d14610189575b600080fd5b6100d360048036038101906100ce9190611992565b6102bf565b6040516100e39493929190611a67565b60405180910390f35b6100f46104a7565b6040516101019190611ae2565b60405180910390f35b610124600480360381019061011f9190611c32565b6104cd565b005b610140600480360381019061013b9190611992565b610791565b60405161014e929190611d39565b60405180910390f35b610171600480360381019061016c9190611992565b610939565b60405161018093929190611d70565b60405180910390f35b6101a3600480360381019061019e9190611992565b610a93565b6040516101b293929190611db5565b60405180910390f35b6101d560048036038101906101d09190611992565b610d0f565b6040516101e59493929190611e01565b60405180910390f35b61020860048036038101906102039190611992565b61105c565b604051610219959493929190611e62565b60405180910390f35b61023c60048036038101906102379190611992565b6112d2565b60405161024b93929190611d70565b60405180910390f35b61025c61142c565b6040516102699190611eea565b60405180910390f35b61028c60048036038101906102879190611c32565b611432565b005b6102a860048036038101906102a39190611992565b6116d5565b6040516102b6929190611d39565b60405180910390f35b60086020528060005260406000206000915090508060000160009054906101000a900473ffffffffffffffffffffffffffffffffffffffff169080600101805461030890611f34565b80601f016020809104026020016040519081016040528092919081815260200182805461033490611f34565b80156103815780601f1061035657610100808354040283529160200191610381565b820191906000526020600020905b81548152906001019060200180831161036457829003601f168201915b50505050509080600201805461039690611f34565b80601f01602080910402602001604051908101604052809291908181526020018280546103c290611f34565b801561040f5780601f106103e45761010080835404028352916020019161040f565b820191906000526020600020905b8154815290600101906020018083116103f257829003601f168201915b50505050509080600301805461042490611f34565b80601f016020809104026020016040519081016040528092919081815260200182805461045090611f34565b801561049d5780601f106104725761010080835404028352916020019161049d565b820191906000526020600020905b81548152906001019060200180831161048057829003601f168201915b5050505050905084565b600460009054906101000a900473ffffffffffffffffffffffffffffffffffffffff1681565b600073ffffffffffffffffffffffffffffffffffffffff163373ffffffffffffffffffffffffffffffffffffffff16141561050757600080fd5b6040518060a001604052806040518060600160405280602e81526020016120ea602e913981526020018681526020018581526020018481526020013373ffffffffffffffffffffffffffffffffffffffff16815250600660003373ffffffffffffffffffffffffffffffffffffffff1673ffffffffffffffffffffffffffffffffffffffff16815260200190815260200160002060008201518160000190805190602001906105b792919061187d565b5060208201518160010190805190602001906105d492919061187d565b5060408201518160020190805190602001906105f192919061187d565b50606082015181600301908051906020019061060e92919061187d565b5060808201518160040160006101000a81548173ffffffffffffffffffffffffffffffffffffffff021916908373ffffffffffffffffffffffffffffffffffffffff16021790555090505060405180606001604052803373ffffffffffffffffffffffffffffffffffffffff16815260200183815260200182815250600760003373ffffffffffffffffffffffffffffffffffffffff1673ffffffffffffffffffffffffffffffffffffffff16815260200190815260200160002060008201518160000160006101000a81548173ffffffffffffffffffffffffffffffffffffffff021916908373ffffffffffffffffffffffffffffffffffffffff160217905550602082015181600101908051906020019061072c92919061187d565b50604082015181600201908051906020019061074992919061187d565b509050507f2bd260e38bda2d0c9cc3dbf6e744a2762420314a7125f7481a6a81bb9b0e09e3858585336040516107829493929190612037565b60405180910390a15050505050565b606080600760008473ffffffffffffffffffffffffffffffffffffffff1673ffffffffffffffffffffffffffffffffffffffff168152602001908152602001600020600101600760008573ffffffffffffffffffffffffffffffffffffffff1673ffffffffffffffffffffffffffffffffffffffff16815260200190815260200160002060020181805461082490611f34565b80601f016020809104026020016040519081016040528092919081815260200182805461085090611f34565b801561089d5780601f106108725761010080835404028352916020019161089d565b820191906000526020600020905b81548152906001019060200180831161088057829003601f168201915b505050505091508080546108b090611f34565b80601f01602080910402602001604051908101604052809291908181526020018280546108dc90611f34565b80156109295780601f106108fe57610100808354040283529160200191610929565b820191906000526020600020905b81548152906001019060200180831161090c57829003601f168201915b5050505050905091509150915091565b60056020528060005260406000206000915090508060000160009054906101000a900473ffffffffffffffffffffffffffffffffffffffff169080600101805461098290611f34565b80601f01602080910402602001604051908101604052809291908181526020018280546109ae90611f34565b80156109fb5780601f106109d0576101008083540402835291602001916109fb565b820191906000526020600020905b8154815290600101906020018083116109de57829003601f168201915b505050505090806002018054610a1090611f34565b80601f0160208091040260200160405190810160405280929190818152602001828054610a3c90611f34565b8015610a895780601f10610a5e57610100808354040283529160200191610a89565b820191906000526020600020905b815481529060010190602001808311610a6c57829003601f168201915b5050505050905083565b6060806060600860008573ffffffffffffffffffffffffffffffffffffffff1673ffffffffffffffffffffffffffffffffffffffff168152602001908152602001600020600101600860008673ffffffffffffffffffffffffffffffffffffffff1673ffffffffffffffffffffffffffffffffffffffff168152602001908152602001600020600201600860008773ffffffffffffffffffffffffffffffffffffffff1673ffffffffffffffffffffffffffffffffffffffff168152602001908152602001600020600301828054610b6a90611f34565b80601f0160208091040260200160405190810160405280929190818152602001828054610b9690611f34565b8015610be35780601f10610bb857610100808354040283529160200191610be3565b820191906000526020600020905b815481529060010190602001808311610bc657829003601f168201915b50505050509250818054610bf690611f34565b80601f0160208091040260200160405190810160405280929190818152602001828054610c2290611f34565b8015610c6f5780601f10610c4457610100808354040283529160200191610c6f565b820191906000526020600020905b815481529060010190602001808311610c5257829003601f168201915b50505050509150808054610c8290611f34565b80601f0160208091040260200160405190810160405280929190818152602001828054610cae90611f34565b8015610cfb5780601f10610cd057610100808354040283529160200191610cfb565b820191906000526020600020905b815481529060010190602001808311610cde57829003601f168201915b505050505090509250925092509193909250565b606080606080600660008673ffffffffffffffffffffffffffffffffffffffff1673ffffffffffffffffffffffffffffffffffffffff168152602001908152602001600020600001600660008773ffffffffffffffffffffffffffffffffffffffff1673ffffffffffffffffffffffffffffffffffffffff168152602001908152602001600020600101600660008873ffffffffffffffffffffffffffffffffffffffff1673ffffffffffffffffffffffffffffffffffffffff168152602001908152602001600020600201600660008973ffffffffffffffffffffffffffffffffffffffff1673ffffffffffffffffffffffffffffffffffffffff168152602001908152602001600020600301838054610e2990611f34565b80601f0160208091040260200160405190810160405280929190818152602001828054610e5590611f34565b8015610ea25780601f10610e7757610100808354040283529160200191610ea2565b820191906000526020600020905b815481529060010190602001808311610e8557829003601f168201915b50505050509350828054610eb590611f34565b80601f0160208091040260200160405190810160405280929190818152602001828054610ee190611f34565b8015610f2e5780601f10610f0357610100808354040283529160200191610f2e565b820191906000526020600020905b815481529060010190602001808311610f1157829003601f168201915b50505050509250818054610f4190611f34565b80601f0160208091040260200160405190810160405280929190818152602001828054610f6d90611f34565b8015610fba5780601f10610f8f57610100808354040283529160200191610fba565b820191906000526020600020905b815481529060010190602001808311610f9d57829003601f168201915b50505050509150808054610fcd90611f34565b80601f0160208091040260200160405190810160405280929190818152602001828054610ff990611f34565b80156110465780601f1061101b57610100808354040283529160200191611046565b820191906000526020600020905b81548152906001019060200180831161102957829003601f168201915b5050505050905093509350935093509193509193565b600660205280600052604060002060009150905080600001805461107f90611f34565b80601f01602080910402602001604051908101604052809291908181526020018280546110ab90611f34565b80156110f85780601f106110cd576101008083540402835291602001916110f8565b820191906000526020600020905b8154815290600101906020018083116110db57829003601f168201915b50505050509080600101805461110d90611f34565b80601f016020809104026020016040519081016040528092919081815260200182805461113990611f34565b80156111865780601f1061115b57610100808354040283529160200191611186565b820191906000526020600020905b81548152906001019060200180831161116957829003601f168201915b50505050509080600201805461119b90611f34565b80601f01602080910402602001604051908101604052809291908181526020018280546111c790611f34565b80156112145780601f106111e957610100808354040283529160200191611214565b820191906000526020600020905b8154815290600101906020018083116111f757829003601f168201915b50505050509080600301805461122990611f34565b80601f016020809104026020016040519081016040528092919081815260200182805461125590611f34565b80156112a25780601f10611277576101008083540402835291602001916112a2565b820191906000526020600020905b81548152906001019060200180831161128557829003601f168201915b5050505050908060040160009054906101000a900473ffffffffffffffffffffffffffffffffffffffff16905085565b60076020528060005260406000206000915090508060000160009054906101000a900473ffffffffffffffffffffffffffffffffffffffff169080600101805461131b90611f34565b80601f016020809104026020016040519081016040528092919081815260200182805461134790611f34565b80156113945780601f1061136957610100808354040283529160200191611394565b820191906000526020600020905b81548152906001019060200180831161137757829003601f168201915b5050505050908060020180546113a990611f34565b80601f01602080910402602001604051908101604052809291908181526020018280546113d590611f34565b80156114225780601f106113f757610100808354040283529160200191611422565b820191906000526020600020905b81548152906001019060200180831161140557829003601f168201915b5050505050905083565b60025481565b600085511161144057600080fd5b600084511161144e57600080fd5b600073ffffffffffffffffffffffffffffffffffffffff163373ffffffffffffffffffffffffffffffffffffffff16141561148857600080fd5b60405180606001604052803373ffffffffffffffffffffffffffffffffffffffff16815260200186815260200185815250600560003373ffffffffffffffffffffffffffffffffffffffff1673ffffffffffffffffffffffffffffffffffffffff16815260200190815260200160002060008201518160000160006101000a81548173ffffffffffffffffffffffffffffffffffffffff021916908373ffffffffffffffffffffffffffffffffffffffff160217905550602082015181600101908051906020019061155b92919061187d565b50604082015181600201908051906020019061157892919061187d565b5090505060405180608001604052803373ffffffffffffffffffffffffffffffffffffffff16815260200184815260200183815260200182815250600860003373ffffffffffffffffffffffffffffffffffffffff1673ffffffffffffffffffffffffffffffffffffffff16815260200190815260200160002060008201518160000160006101000a81548173ffffffffffffffffffffffffffffffffffffffff021916908373ffffffffffffffffffffffffffffffffffffffff160217905550602082015181600101908051906020019061165592919061187d565b50604082015181600201908051906020019061167292919061187d565b50606082015181600301908051906020019061168f92919061187d565b509050507fa50c63ff1d69ffd8f5a74a221308a5478d527197f848ac41aaa0fa28b8113b9f3386866040516116c6939291906120a4565b60405180910390a15050505050565b606080600560008473ffffffffffffffffffffffffffffffffffffffff1673ffffffffffffffffffffffffffffffffffffffff168152602001908152602001600020600101600560008573ffffffffffffffffffffffffffffffffffffffff1673ffffffffffffffffffffffffffffffffffffffff16815260200190815260200160002060020181805461176890611f34565b80601f016020809104026020016040519081016040528092919081815260200182805461179490611f34565b80156117e15780601f106117b6576101008083540402835291602001916117e1565b820191906000526020600020905b8154815290600101906020018083116117c457829003601f168201915b505050505091508080546117f490611f34565b80601f016020809104026020016040519081016040528092919081815260200182805461182090611f34565b801561186d5780601f106118425761010080835404028352916020019161186d565b820191906000526020600020905b81548152906001019060200180831161185057829003601f168201915b5050505050905091509150915091565b82805461188990611f34565b90600052602060002090601f0160209004810192826118ab57600085556118f2565b82601f106118c457805160ff19168380011785556118f2565b828001600101855582156118f2579182015b828111156118f15782518255916020019190600101906118d6565b5b5090506118ff9190611903565b5090565b5b8082111561191c576000816000905550600101611904565b5090565b6000604051905090565b600080fd5b600080fd5b600073ffffffffffffffffffffffffffffffffffffffff82169050919050565b600061195f82611934565b9050919050565b61196f81611954565b811461197a57600080fd5b50565b60008135905061198c81611966565b92915050565b6000602082840312156119a8576119a761192a565b5b60006119b68482850161197d565b91505092915050565b6119c881611954565b82525050565b600081519050919050565b600082825260208201905092915050565b60005b83811015611a085780820151818401526020810190506119ed565b83811115611a17576000848401525b50505050565b6000601f19601f8301169050919050565b6000611a39826119ce565b611a4381856119d9565b9350611a538185602086016119ea565b611a5c81611a1d565b840191505092915050565b6000608082019050611a7c60008301876119bf565b8181036020830152611a8e8186611a2e565b90508181036040830152611aa28185611a2e565b90508181036060830152611ab68184611a2e565b905095945050505050565b6000611acc82611934565b9050919050565b611adc81611ac1565b82525050565b6000602082019050611af76000830184611ad3565b92915050565b600080fd5b600080fd5b7f4e487b7100000000000000000000000000000000000000000000000000000000600052604160045260246000fd5b611b3f82611a1d565b810181811067ffffffffffffffff82111715611b5e57611b5d611b07565b5b80604052505050565b6000611b71611920565b9050611b7d8282611b36565b919050565b600067ffffffffffffffff821115611b9d57611b9c611b07565b5b611ba682611a1d565b9050602081019050919050565b82818337600083830152505050565b6000611bd5611bd084611b82565b611b67565b905082815260208101848484011115611bf157611bf0611b02565b5b611bfc848285611bb3565b509392505050565b600082601f830112611c1957611c18611afd565b5b8135611c29848260208601611bc2565b91505092915050565b600080600080600060a08688031215611c4e57611c4d61192a565b5b600086013567ffffffffffffffff811115611c6c57611c6b61192f565b5b611c7888828901611c04565b955050602086013567ffffffffffffffff811115611c9957611c9861192f565b5b611ca588828901611c04565b945050604086013567ffffffffffffffff811115611cc657611cc561192f565b5b611cd288828901611c04565b935050606086013567ffffffffffffffff811115611cf357611cf261192f565b5b611cff88828901611c04565b925050608086013567ffffffffffffffff811115611d2057611d1f61192f565b5b611d2c88828901611c04565b9150509295509295909350565b60006040820190508181036000830152611d538185611a2e565b90508181036020830152611d678184611a2e565b90509392505050565b6000606082019050611d8560008301866119bf565b8181036020830152611d978185611a2e565b90508181036040830152611dab8184611a2e565b9050949350505050565b60006060820190508181036000830152611dcf8186611a2e565b90508181036020830152611de38185611a2e565b90508181036040830152611df78184611a2e565b9050949350505050565b60006080820190508181036000830152611e1b8187611a2e565b90508181036020830152611e2f8186611a2e565b90508181036040830152611e438185611a2e565b90508181036060830152611e578184611a2e565b905095945050505050565b600060a0820190508181036000830152611e7c8188611a2e565b90508181036020830152611e908187611a2e565b90508181036040830152611ea48186611a2e565b90508181036060830152611eb88185611a2e565b9050611ec760808301846119bf565b9695505050505050565b6000819050919050565b611ee481611ed1565b82525050565b6000602082019050611eff6000830184611edb565b92915050565b7f4e487b7100000000000000000000000000000000000000000000000000000000600052602260045260246000fd5b60006002820490506001821680611f4c57607f821691505b60208210811415611f6057611f5f611f05565b5b50919050565b7f516d4e57526753754a443367677974555864425134654e59713469587658484460008201527f4a5a57714a64476d76513979654a000000000000000000000000000000000000602082015250565b6000611fc2602e836119d9565b9150611fcd82611f66565b604082019050919050565b6000819050919050565b6000611ffd611ff8611ff384611934565b611fd8565b611934565b9050919050565b600061200f82611fe2565b9050919050565b600061202182612004565b9050919050565b61203181612016565b82525050565b600060a082019050818103600083015261205081611fb5565b905081810360208301526120648187611a2e565b905081810360408301526120788186611a2e565b9050818103606083015261208c8185611a2e565b905061209b6080830184612028565b95945050505050565b60006060820190506120b96000830186612028565b81810360208301526120cb8185611a2e565b905081810360408301526120df8184611a2e565b905094935050505056fe516d4e57526753754a443367677974555864425134654e5971346958765848444a5a57714a64476d76513979654aa264697066735822122097ef049304b755b2a28f351a8ef60e29501a8265b905cede9ca6edc6ba813a7a64736f6c63430008090033",
  "immutableReferences": {},
  "source": "// SPDX-License-Identifier: MIT\r\n\r\npragma solidity ^0.8.9;\r\n\r\ncontract ServiceInfo {\r\n    // In units of wei\r\n    address[] peeps;\r\n    uint256 price;\r\n    uint256 public infoCount = 0;\r\n    uint256 num_services;\r\n    address payable public customer;\r\n    mapping(address => Information) public information;\r\n    mapping(address => Vital) public vital;\r\n    mapping(address => License) public license;\r\n    mapping(address => Address) public streetAddress;\r\n\r\n\r\n\r\n    struct Information {\r\n        address person;\r\n        string name;\r\n        string dob;\r\n    }\r\n\r\n    struct Address {\r\n        address person;\r\n        string street;\r\n        string state;\r\n        string zipcode;\r\n    }\r\n\r\n    struct License {\r\n        address person;\r\n        string customerIDNum;\r\n        string experationDate;\r\n    }\r\n\r\n    struct Vital {\r\n        string birthCertificate;\r\n        string deathCertificate;\r\n        string marriageCertificate;\r\n        string divorceCertificate;\r\n        address person;\r\n    }\r\n\r\n    //\r\n    event InformationAdded(address person, string name, string dob);\r\n\r\n    event AddressAdded(\r\n        address payable person,\r\n        string street,\r\n        string state,\r\n        string zipcode\r\n    );\r\n\r\n    event VitalAdded(\r\n        string birthCertificate,\r\n        string deathCertificate,\r\n        string marriageCertificate,\r\n        string divorceCertificate,\r\n        address person\r\n    );\r\n\r\n    function stringsEquals(string memory s1, string memory s2)\r\n        private\r\n        pure\r\n        returns (bool)\r\n    {\r\n        bytes memory b1 = bytes(s1);\r\n        bytes memory b2 = bytes(s2);\r\n        uint256 l1 = b1.length;\r\n        if (l1 != b2.length) return false;\r\n        for (uint256 i = 0; i < l1; i++) {\r\n            if (b1[i] != b2[i]) return false;\r\n        }\r\n        return true;\r\n    }\r\n\r\n    function uploadInformation(string memory _name, string memory _dob, string memory street, string memory state, string memory zip) public {\r\n        require(bytes(_name).length > 0);\r\n        require(bytes(_dob).length > 0);\r\n        require(msg.sender != address(0));\r\n        //require(!stringsEquals(information[msg.sender].name, \"none\"));\r\n        //peeps.push(msg.sender);\r\n        information[msg.sender] = Information(msg.sender, _name, _dob);\r\n        streetAddress[msg.sender] = Address(msg.sender, street, state, zip);\r\n        emit InformationAdded(payable(msg.sender), _name, _dob);\r\n    }\r\n\r\n    function uploadVital(\r\n        string memory _deathCertificate,\r\n        string memory _marriageCertificate,\r\n        string memory _divorceCertificate,\r\n        string memory _license,\r\n        string memory _exp\r\n    ) public {\r\n\r\n        require(msg.sender != address(0));\r\n\r\n        vital[msg.sender] = Vital(\r\n            \"QmNWRgSuJD3ggytUXdBQ4eNYq4iXvXHDJZWqJdGmvQ9yeJ\",\r\n            _deathCertificate,\r\n            _marriageCertificate,\r\n            _divorceCertificate,\r\n            payable(msg.sender)\r\n        );\r\n\r\n        license[msg.sender] = License(msg.sender, _license, _exp);\r\n\r\n        emit VitalAdded(\r\n            \"QmNWRgSuJD3ggytUXdBQ4eNYq4iXvXHDJZWqJdGmvQ9yeJ\",\r\n            _deathCertificate,\r\n            _marriageCertificate,\r\n            _divorceCertificate,\r\n            payable(msg.sender)\r\n        );\r\n    }\r\n    function getInfo(address id) public view returns(string memory, string memory){\r\n        return(information[id].name, information[id].dob);\r\n    }\r\n    function getVital(address id) public view returns(string memory, string memory, string memory, string memory){\r\n        return(vital[id].birthCertificate, vital[id].deathCertificate, vital[id].marriageCertificate, vital[id].divorceCertificate);\r\n    }\r\n    function getLicense(address id) public view returns(string memory, string memory){\r\n        return(license[id].customerIDNum, license[id].experationDate);\r\n    }\r\n    function getAddress(address id) public view returns(string memory, string memory, string memory){\r\n        return(streetAddress[id].street, streetAddress[id].state, streetAddress[id].zipcode);\r\n    }\r\n}\r\n\r\n",
  "sourcePath": "C:\\Users\\ryhil\\OneDrive\\Documents\\ODUCS\\CS764\\dmv_blockchain\\tiny-dapp\\contracts\\ServiceInfo.sol",
  "compiler": {
    "name": "solc",
    "version": "0.8.9+commit.e5eed63a.Emscripten.clang"
  },
  "schemaVersion": "3.4.7",
  "updatedAt": "2022-05-02T07:27:17.900Z",
  "networkType": "ethereum",
  "devdoc": {
    "kind": "dev",
    "methods": {},
    "version": 1
  },
  "userdoc": {
    "kind": "user",
    "methods": {},
    "version": 1
  }
}