{
  "contractName": "ServiceInfo",
  "abi": [
    {
      "inputs": [],
      "stateMutability": "nonpayable",
      "type": "constructor"
    },
    {
      "anonymous": false,
      "inputs": [
        {
          "indexed": false,
          "internalType": "uint256",
          "name": "Id",
          "type": "uint256"
        },
        {
          "indexed": false,
          "internalType": "string",
          "name": "name",
          "type": "string"
        },
        {
          "indexed": false,
          "internalType": "string",
          "name": "dob",
          "type": "string"
        },
        {
          "indexed": false,
          "internalType": "string",
          "name": "registration",
          "type": "string"
        },
        {
          "indexed": false,
          "internalType": "string",
          "name": "streetAddress",
          "type": "string"
        },
        {
          "indexed": false,
          "internalType": "string",
          "name": "license",
          "type": "string"
        },
        {
          "indexed": false,
          "internalType": "string",
          "name": "vehicles",
          "type": "string"
        },
        {
          "indexed": false,
          "internalType": "string",
          "name": "title",
          "type": "string"
        },
        {
          "indexed": false,
          "internalType": "address payable",
          "name": "person",
          "type": "address"
        }
      ],
      "name": "InformationAdded",
      "type": "event"
    },
    {
      "anonymous": false,
      "inputs": [
        {
          "indexed": false,
          "internalType": "uint256",
          "name": "Id",
          "type": "uint256"
        },
        {
          "indexed": false,
          "internalType": "string",
          "name": "vhash",
          "type": "string"
        },
        {
          "indexed": false,
          "internalType": "string",
          "name": "birthCertificate",
          "type": "string"
        },
        {
          "indexed": false,
          "internalType": "string",
          "name": "deathCertificate",
          "type": "string"
        },
        {
          "indexed": false,
          "internalType": "string",
          "name": "marriageCertificate",
          "type": "string"
        },
        {
          "indexed": false,
          "internalType": "string",
          "name": "divorceCertificate",
          "type": "string"
        },
        {
          "indexed": false,
          "internalType": "address payable",
          "name": "person",
          "type": "address"
        }
      ],
      "name": "VitalAdded",
      "type": "event"
    },
    {
      "inputs": [],
      "name": "customer",
      "outputs": [
        {
          "internalType": "address payable",
          "name": "",
          "type": "address"
        }
      ],
      "stateMutability": "view",
      "type": "function"
    },
    {
      "inputs": [],
      "name": "infoCount",
      "outputs": [
        {
          "internalType": "uint256",
          "name": "",
          "type": "uint256"
        }
      ],
      "stateMutability": "view",
      "type": "function"
    },
    {
      "inputs": [
        {
          "internalType": "uint256",
          "name": "",
          "type": "uint256"
        }
      ],
      "name": "information",
      "outputs": [
        {
          "internalType": "uint256",
          "name": "Id",
          "type": "uint256"
        },
        {
          "internalType": "string",
          "name": "name",
          "type": "string"
        },
        {
          "internalType": "string",
          "name": "dob",
          "type": "string"
        },
        {
          "internalType": "string",
          "name": "registration",
          "type": "string"
        },
        {
          "internalType": "string",
          "name": "streetAddress",
          "type": "string"
        },
        {
          "internalType": "string",
          "name": "license",
          "type": "string"
        },
        {
          "internalType": "string",
          "name": "vehicles",
          "type": "string"
        },
        {
          "internalType": "string",
          "name": "title",
          "type": "string"
        },
        {
          "internalType": "address payable",
          "name": "person",
          "type": "address"
        }
      ],
      "stateMutability": "view",
      "type": "function"
    },
    {
      "inputs": [
        {
          "internalType": "address",
          "name": "",
          "type": "address"
        }
      ],
      "name": "orders",
      "outputs": [
        {
          "internalType": "uint256",
          "name": "wallet_bal",
          "type": "uint256"
        },
        {
          "internalType": "uint256",
          "name": "order_count",
          "type": "uint256"
        }
      ],
      "stateMutability": "view",
      "type": "function"
    },
    {
      "inputs": [
        {
          "internalType": "uint256",
          "name": "",
          "type": "uint256"
        }
      ],
      "name": "services",
      "outputs": [
        {
          "internalType": "uint256",
          "name": "id",
          "type": "uint256"
        },
        {
          "internalType": "string",
          "name": "name",
          "type": "string"
        },
        {
          "internalType": "uint256",
          "name": "cost",
          "type": "uint256"
        },
        {
          "internalType": "uint256",
          "name": "times_ordered",
          "type": "uint256"
        }
      ],
      "stateMutability": "view",
      "type": "function"
    },
    {
      "inputs": [
        {
          "internalType": "uint256",
          "name": "",
          "type": "uint256"
        }
      ],
      "name": "vital",
      "outputs": [
        {
          "internalType": "uint256",
          "name": "Id",
          "type": "uint256"
        },
        {
          "internalType": "string",
          "name": "vhash",
          "type": "string"
        },
        {
          "internalType": "string",
          "name": "birthCertificate",
          "type": "string"
        },
        {
          "internalType": "string",
          "name": "deathCertificate",
          "type": "string"
        },
        {
          "internalType": "string",
          "name": "marriageCertificate",
          "type": "string"
        },
        {
          "internalType": "string",
          "name": "divorceCertificate",
          "type": "string"
        },
        {
          "internalType": "address payable",
          "name": "person",
          "type": "address"
        }
      ],
      "stateMutability": "view",
      "type": "function"
    },
    {
      "inputs": [
        {
          "internalType": "string",
          "name": "_name",
          "type": "string"
        },
        {
          "internalType": "string",
          "name": "_dob",
          "type": "string"
        },
        {
          "internalType": "string",
          "name": "_registration",
          "type": "string"
        },
        {
          "internalType": "string",
          "name": "_streetAddress",
          "type": "string"
        },
        {
          "internalType": "string",
          "name": "_license",
          "type": "string"
        },
        {
          "internalType": "string",
          "name": "_vehicles",
          "type": "string"
        },
        {
          "internalType": "string",
          "name": "_title",
          "type": "string"
        }
      ],
      "name": "uploadInformation",
      "outputs": [],
      "stateMutability": "nonpayable",
      "type": "function"
    },
    {
      "inputs": [
        {
          "internalType": "string",
          "name": "_vhash",
          "type": "string"
        },
        {
          "internalType": "string",
          "name": "_deathCertificate",
          "type": "string"
        },
        {
          "internalType": "string",
          "name": "_marriageCertificate",
          "type": "string"
        },
        {
          "internalType": "string",
          "name": "_divorceCertificate",
          "type": "string"
        }
      ],
      "name": "uploadVital",
      "outputs": [],
      "stateMutability": "nonpayable",
      "type": "function"
    },
    {
      "inputs": [],
      "name": "get_price",
      "outputs": [
        {
          "internalType": "uint256",
          "name": "",
          "type": "uint256"
        }
      ],
      "stateMutability": "view",
      "type": "function"
    },
    {
      "inputs": [
        {
          "internalType": "uint256",
          "name": "_price",
          "type": "uint256"
        }
      ],
      "name": "set_price",
      "outputs": [],
      "stateMutability": "nonpayable",
      "type": "function"
    },
    {
      "inputs": [],
      "name": "deposit",
      "outputs": [
        {
          "internalType": "uint256",
          "name": "",
          "type": "uint256"
        },
        {
          "internalType": "uint256",
          "name": "",
          "type": "uint256"
        }
      ],
      "stateMutability": "payable",
      "type": "function"
    },
    {
      "inputs": [
        {
          "internalType": "uint256",
          "name": "_serviceID",
          "type": "uint256"
        },
        {
          "internalType": "uint256",
          "name": "_count",
          "type": "uint256"
        }
      ],
      "name": "customer_selection",
      "outputs": [
        {
          "internalType": "bool",
          "name": "",
          "type": "bool"
        }
      ],
      "stateMutability": "payable",
      "type": "function"
    },
    {
      "inputs": [],
      "name": "return_overpay",
      "outputs": [],
      "stateMutability": "payable",
      "type": "function"
    }
  ],
  "bytecode": "0x608060405260006001553480156200001657600080fd5b5064174876e8006000819055506000600281905550620000716040518060400160405280601c81526020017f56656869636c6520526567697374726174696f6e2052656e6577616c00000000815250620002ed60201b60201c565b620000b76040518060400160405280600e81526020017f41646472657373204368616e6765000000000000000000000000000000000000815250620002ed60201b60201c565b620000fd6040518060400160405280601881526020017f4472697665722773204c6963656e73652052656e6577616c0000000000000000815250620002ed60201b60201c565b620001436040518060400160405280601881526020017f5570646174652056656869636c65204f776e6572736869700000000000000000815250620002ed60201b60201c565b620001896040518060400160405280600e81526020017f5072616374696365204578616d73000000000000000000000000000000000000815250620002ed60201b60201c565b620001cf6040518060400160405280600781526020017f5265616c20494400000000000000000000000000000000000000000000000000815250620002ed60201b60201c565b620002156040518060400160405280601c81526020017f4170706c7920666f722061204472697665722773204c6963656e736500000000815250620002ed60201b60201c565b6200025b6040518060400160405280601381526020017f4d65646963616c20496e666f726d6174696f6e00000000000000000000000000815250620002ed60201b60201c565b620002a16040518060400160405280601781526020017f53656c6c202f20446f6e61746520612056656869636c65000000000000000000815250620002ed60201b60201c565b620002e76040518060400160405280601b81526020017f5469746c6520612056656869636c6520696e2056697267696e69610000000000815250620002ed60201b60201c565b62000521565b6002600081548092919062000302906200046e565b919050555060405180608001604052806002548152602001828152602001600054815260200160008152506006600060025481526020019081526020016000206000820151816000015560208201518160010190805190602001906200036a92919062000385565b50604082015181600201556060820151816003015590505050565b8280546200039390620004eb565b90600052602060002090601f016020900481019282620003b7576000855562000403565b82601f10620003d257805160ff191683800117855562000403565b8280016001018555821562000403579182015b8281111562000402578251825591602001919060010190620003e5565b5b50905062000412919062000416565b5090565b5b808211156200043157600081600090555060010162000417565b5090565b7f4e487b7100000000000000000000000000000000000000000000000000000000600052601160045260246000fd5b6000819050919050565b60006200047b8262000464565b91507fffffffffffffffffffffffffffffffffffffffffffffffffffffffffffffffff821415620004b157620004b062000435565b5b600182019050919050565b7f4e487b7100000000000000000000000000000000000000000000000000000000600052602260045260246000fd5b600060028204905060018216806200050457607f821691505b602082108114156200051b576200051a620004bc565b5b50919050565b6123ac80620005316000396000f3fe6080604052600436106100c25760003560e01c8063888de2ba1161007f578063c22c4f4311610059578063c22c4f431461025a578063d0e30db01461029a578063f40e8471146102b9578063ff296eaa146102f7576100c2565b8063888de2ba146101a25780638f86f255146101d2578063b5e0b65614610217576100c2565b806311f37ceb146100c757806322a347d2146100f25780632804b2c01461011b57806328bf794d1461014657806362f4bc891461016f57806384c5588e14610198575b600080fd5b3480156100d357600080fd5b506100dc610322565b6040516100e991906116d2565b60405180910390f35b3480156100fe57600080fd5b5061011960048036038101906101149190611847565b61032b565b005b34801561012757600080fd5b506101306105b0565b60405161013d91906119ee565b60405180910390f35b34801561015257600080fd5b5061016d60048036038101906101689190611a35565b6105d6565b005b34801561017b57600080fd5b5061019660048036038101906101919190611a62565b6105e8565b005b6101a06107d6565b005b6101bc60048036038101906101b79190611b39565b6109f7565b6040516101c99190611b94565b60405180910390f35b3480156101de57600080fd5b506101f960048036038101906101f49190611a35565b610bd4565b60405161020e99989796959493929190611c37565b60405180910390f35b34801561022357600080fd5b5061023e60048036038101906102399190611a35565b610ffa565b6040516102519796959493929190611cf5565b60405180910390f35b34801561026657600080fd5b50610281600480360381019061027c9190611a35565b611304565b6040516102919493929190611d87565b60405180910390f35b6102a26113bc565b6040516102b0929190611dd3565b60405180910390f35b3480156102c557600080fd5b506102e060048036038101906102db9190611e3a565b61152e565b6040516102ee929190611dd3565b60405180910390f35b34801561030357600080fd5b5061030c611552565b60405161031991906116d2565b60405180910390f35b60008054905090565b600087511161033957600080fd5b600086511161034757600080fd5b600085511161035557600080fd5b600084511161036357600080fd5b600083511161037157600080fd5b600081511161037f57600080fd5b600073ffffffffffffffffffffffffffffffffffffffff163373ffffffffffffffffffffffffffffffffffffffff1614156103b957600080fd5b600160008154809291906103cc90611e96565b919050555060405180610120016040528060015481526020018881526020018781526020018681526020018581526020018481526020018381526020018281526020013373ffffffffffffffffffffffffffffffffffffffff16815250600460006001548152602001908152602001600020600082015181600001556020820151816001019080519060200190610464929190611616565b506040820151816002019080519060200190610481929190611616565b50606082015181600301908051906020019061049e929190611616565b5060808201518160040190805190602001906104bb929190611616565b5060a08201518160050190805190602001906104d8929190611616565b5060c08201518160060190805190602001906104f5929190611616565b5060e0820151816007019080519060200190610512929190611616565b506101008201518160080160006101000a81548173ffffffffffffffffffffffffffffffffffffffff021916908373ffffffffffffffffffffffffffffffffffffffff1602179055509050507fbe66f68fbc82b431b19da2aec3717c9dc559774497ef0589899529c997a02288600154888888888888883360405161059f99989796959493929190611c37565b60405180910390a150505050505050565b600360009054906101000a900473ffffffffffffffffffffffffffffffffffffffff1681565b806000819055506105e5611558565b50565b60008451116105f657600080fd5b600073ffffffffffffffffffffffffffffffffffffffff163373ffffffffffffffffffffffffffffffffffffffff16141561063057600080fd5b6040518060e0016040528060015481526020018581526020016040518060600160405280602e8152602001612349602e913981526020018481526020018381526020018281526020013373ffffffffffffffffffffffffffffffffffffffff168152506005600060015481526020019081526020016000206000820151816000015560208201518160010190805190602001906106ce929190611616565b5060408201518160020190805190602001906106eb929190611616565b506060820151816003019080519060200190610708929190611616565b506080820151816004019080519060200190610725929190611616565b5060a0820151816005019080519060200190610742929190611616565b5060c08201518160060160006101000a81548173ffffffffffffffffffffffffffffffffffffffff021916908373ffffffffffffffffffffffffffffffffffffffff1602179055509050507f86716391f3ef8c4e5ce6a4b8619a1d0fa6e86c2e8b4d28315cac5ba667b87d7660015485858585336040516107c896959493929190611f51565b60405180910390a150505050565b33600360006101000a81548173ffffffffffffffffffffffffffffffffffffffff021916908373ffffffffffffffffffffffffffffffffffffffff160217905550600060076000600360009054906101000a900473ffffffffffffffffffffffffffffffffffffffff1673ffffffffffffffffffffffffffffffffffffffff1673ffffffffffffffffffffffffffffffffffffffff16815260200190815260200160002060000154116108be576040517f08c379a00000000000000000000000000000000000000000000000000000000081526004016108b59061202d565b60405180910390fd5b600360009054906101000a900473ffffffffffffffffffffffffffffffffffffffff1673ffffffffffffffffffffffffffffffffffffffff166108fc60076000600360009054906101000a900473ffffffffffffffffffffffffffffffffffffffff1673ffffffffffffffffffffffffffffffffffffffff1673ffffffffffffffffffffffffffffffffffffffff168152602001908152602001600020600001549081150290604051600060405180830381858888f1935050505015801561098a573d6000803e3d6000fd5b50600060076000600360009054906101000a900473ffffffffffffffffffffffffffffffffffffffff1673ffffffffffffffffffffffffffffffffffffffff1673ffffffffffffffffffffffffffffffffffffffff16815260200190815260200160002060000181905550565b600033600360006101000a81548173ffffffffffffffffffffffffffffffffffffffff021916908373ffffffffffffffffffffffffffffffffffffffff1602179055506000600660008581526020019081526020016000206002015483610a5e919061204d565b90508060076000600360009054906101000a900473ffffffffffffffffffffffffffffffffffffffff1673ffffffffffffffffffffffffffffffffffffffff1673ffffffffffffffffffffffffffffffffffffffff168152602001908152602001600020600001541015610b07576040517f08c379a0000000000000000000000000000000000000000000000000000000008152600401610afe90612119565b60405180910390fd5b600084118015610b18575060025484105b610b57576040517f08c379a0000000000000000000000000000000000000000000000000000000008152600401610b4e90612185565b60405180910390fd5b8260076000600360009054906101000a900473ffffffffffffffffffffffffffffffffffffffff1673ffffffffffffffffffffffffffffffffffffffff1673ffffffffffffffffffffffffffffffffffffffff16815260200190815260200160002060010181905550610bc981611598565b600191505092915050565b6004602052806000526040600020600091509050806000015490806001018054610bfd906121d4565b80601f0160208091040260200160405190810160405280929190818152602001828054610c29906121d4565b8015610c765780601f10610c4b57610100808354040283529160200191610c76565b820191906000526020600020905b815481529060010190602001808311610c5957829003601f168201915b505050505090806002018054610c8b906121d4565b80601f0160208091040260200160405190810160405280929190818152602001828054610cb7906121d4565b8015610d045780601f10610cd957610100808354040283529160200191610d04565b820191906000526020600020905b815481529060010190602001808311610ce757829003601f168201915b505050505090806003018054610d19906121d4565b80601f0160208091040260200160405190810160405280929190818152602001828054610d45906121d4565b8015610d925780601f10610d6757610100808354040283529160200191610d92565b820191906000526020600020905b815481529060010190602001808311610d7557829003601f168201915b505050505090806004018054610da7906121d4565b80601f0160208091040260200160405190810160405280929190818152602001828054610dd3906121d4565b8015610e205780601f10610df557610100808354040283529160200191610e20565b820191906000526020600020905b815481529060010190602001808311610e0357829003601f168201915b505050505090806005018054610e35906121d4565b80601f0160208091040260200160405190810160405280929190818152602001828054610e61906121d4565b8015610eae5780601f10610e8357610100808354040283529160200191610eae565b820191906000526020600020905b815481529060010190602001808311610e9157829003601f168201915b505050505090806006018054610ec3906121d4565b80601f0160208091040260200160405190810160405280929190818152602001828054610eef906121d4565b8015610f3c5780601f10610f1157610100808354040283529160200191610f3c565b820191906000526020600020905b815481529060010190602001808311610f1f57829003601f168201915b505050505090806007018054610f51906121d4565b80601f0160208091040260200160405190810160405280929190818152602001828054610f7d906121d4565b8015610fca5780601f10610f9f57610100808354040283529160200191610fca565b820191906000526020600020905b815481529060010190602001808311610fad57829003601f168201915b5050505050908060080160009054906101000a900473ffffffffffffffffffffffffffffffffffffffff16905089565b6005602052806000526040600020600091509050806000015490806001018054611023906121d4565b80601f016020809104026020016040519081016040528092919081815260200182805461104f906121d4565b801561109c5780601f106110715761010080835404028352916020019161109c565b820191906000526020600020905b81548152906001019060200180831161107f57829003601f168201915b5050505050908060020180546110b1906121d4565b80601f01602080910402602001604051908101604052809291908181526020018280546110dd906121d4565b801561112a5780601f106110ff5761010080835404028352916020019161112a565b820191906000526020600020905b81548152906001019060200180831161110d57829003601f168201915b50505050509080600301805461113f906121d4565b80601f016020809104026020016040519081016040528092919081815260200182805461116b906121d4565b80156111b85780601f1061118d576101008083540402835291602001916111b8565b820191906000526020600020905b81548152906001019060200180831161119b57829003601f168201915b5050505050908060040180546111cd906121d4565b80601f01602080910402602001604051908101604052809291908181526020018280546111f9906121d4565b80156112465780601f1061121b57610100808354040283529160200191611246565b820191906000526020600020905b81548152906001019060200180831161122957829003601f168201915b50505050509080600501805461125b906121d4565b80601f0160208091040260200160405190810160405280929190818152602001828054611287906121d4565b80156112d45780601f106112a9576101008083540402835291602001916112d4565b820191906000526020600020905b8154815290600101906020018083116112b757829003601f168201915b5050505050908060060160009054906101000a900473ffffffffffffffffffffffffffffffffffffffff16905087565b600660205280600052604060002060009150905080600001549080600101805461132d906121d4565b80601f0160208091040260200160405190810160405280929190818152602001828054611359906121d4565b80156113a65780601f1061137b576101008083540402835291602001916113a6565b820191906000526020600020905b81548152906001019060200180831161138957829003601f168201915b5050505050908060020154908060030154905084565b600080600054341015611404576040517f08c379a00000000000000000000000000000000000000000000000000000000081526004016113fb9061229e565b60405180910390fd5b33600360006101000a81548173ffffffffffffffffffffffffffffffffffffffff021916908373ffffffffffffffffffffffffffffffffffffffff1602179055503460076000600360009054906101000a900473ffffffffffffffffffffffffffffffffffffffff1673ffffffffffffffffffffffffffffffffffffffff1673ffffffffffffffffffffffffffffffffffffffff16815260200190815260200160002060000160008282546114b991906122be565b925050819055504760076000600360009054906101000a900473ffffffffffffffffffffffffffffffffffffffff1673ffffffffffffffffffffffffffffffffffffffff1673ffffffffffffffffffffffffffffffffffffffff16815260200190815260200160002060000154915091509091565b60076020528060005260406000206000915090508060000154908060010154905082565b60015481565b60005b600254811015611595576000546006600083815260200190815260200160002060020181905550808061158d90611e96565b91505061155b565b50565b8060076000600360009054906101000a900473ffffffffffffffffffffffffffffffffffffffff1673ffffffffffffffffffffffffffffffffffffffff1673ffffffffffffffffffffffffffffffffffffffff168152602001908152602001600020600001600082825461160c9190612314565b9250508190555050565b828054611622906121d4565b90600052602060002090601f016020900481019282611644576000855561168b565b82601f1061165d57805160ff191683800117855561168b565b8280016001018555821561168b579182015b8281111561168a57825182559160200191906001019061166f565b5b509050611698919061169c565b5090565b5b808211156116b557600081600090555060010161169d565b5090565b6000819050919050565b6116cc816116b9565b82525050565b60006020820190506116e760008301846116c3565b92915050565b6000604051905090565b600080fd5b600080fd5b600080fd5b600080fd5b6000601f19601f8301169050919050565b7f4e487b7100000000000000000000000000000000000000000000000000000000600052604160045260246000fd5b6117548261170b565b810181811067ffffffffffffffff821117156117735761177261171c565b5b80604052505050565b60006117866116ed565b9050611792828261174b565b919050565b600067ffffffffffffffff8211156117b2576117b161171c565b5b6117bb8261170b565b9050602081019050919050565b82818337600083830152505050565b60006117ea6117e584611797565b61177c565b90508281526020810184848401111561180657611805611706565b5b6118118482856117c8565b509392505050565b600082601f83011261182e5761182d611701565b5b813561183e8482602086016117d7565b91505092915050565b600080600080600080600060e0888a031215611866576118656116f7565b5b600088013567ffffffffffffffff811115611884576118836116fc565b5b6118908a828b01611819565b975050602088013567ffffffffffffffff8111156118b1576118b06116fc565b5b6118bd8a828b01611819565b965050604088013567ffffffffffffffff8111156118de576118dd6116fc565b5b6118ea8a828b01611819565b955050606088013567ffffffffffffffff81111561190b5761190a6116fc565b5b6119178a828b01611819565b945050608088013567ffffffffffffffff811115611938576119376116fc565b5b6119448a828b01611819565b93505060a088013567ffffffffffffffff811115611965576119646116fc565b5b6119718a828b01611819565b92505060c088013567ffffffffffffffff811115611992576119916116fc565b5b61199e8a828b01611819565b91505092959891949750929550565b600073ffffffffffffffffffffffffffffffffffffffff82169050919050565b60006119d8826119ad565b9050919050565b6119e8816119cd565b82525050565b6000602082019050611a0360008301846119df565b92915050565b611a12816116b9565b8114611a1d57600080fd5b50565b600081359050611a2f81611a09565b92915050565b600060208284031215611a4b57611a4a6116f7565b5b6000611a5984828501611a20565b91505092915050565b60008060008060808587031215611a7c57611a7b6116f7565b5b600085013567ffffffffffffffff811115611a9a57611a996116fc565b5b611aa687828801611819565b945050602085013567ffffffffffffffff811115611ac757611ac66116fc565b5b611ad387828801611819565b935050604085013567ffffffffffffffff811115611af457611af36116fc565b5b611b0087828801611819565b925050606085013567ffffffffffffffff811115611b2157611b206116fc565b5b611b2d87828801611819565b91505092959194509250565b60008060408385031215611b5057611b4f6116f7565b5b6000611b5e85828601611a20565b9250506020611b6f85828601611a20565b9150509250929050565b60008115159050919050565b611b8e81611b79565b82525050565b6000602082019050611ba96000830184611b85565b92915050565b600081519050919050565b600082825260208201905092915050565b60005b83811015611be9578082015181840152602081019050611bce565b83811115611bf8576000848401525b50505050565b6000611c0982611baf565b611c138185611bba565b9350611c23818560208601611bcb565b611c2c8161170b565b840191505092915050565b600061012082019050611c4d600083018c6116c3565b8181036020830152611c5f818b611bfe565b90508181036040830152611c73818a611bfe565b90508181036060830152611c878189611bfe565b90508181036080830152611c9b8188611bfe565b905081810360a0830152611caf8187611bfe565b905081810360c0830152611cc38186611bfe565b905081810360e0830152611cd78185611bfe565b9050611ce76101008301846119df565b9a9950505050505050505050565b600060e082019050611d0a600083018a6116c3565b8181036020830152611d1c8189611bfe565b90508181036040830152611d308188611bfe565b90508181036060830152611d448187611bfe565b90508181036080830152611d588186611bfe565b905081810360a0830152611d6c8185611bfe565b9050611d7b60c08301846119df565b98975050505050505050565b6000608082019050611d9c60008301876116c3565b8181036020830152611dae8186611bfe565b9050611dbd60408301856116c3565b611dca60608301846116c3565b95945050505050565b6000604082019050611de860008301856116c3565b611df560208301846116c3565b9392505050565b6000611e07826119ad565b9050919050565b611e1781611dfc565b8114611e2257600080fd5b50565b600081359050611e3481611e0e565b92915050565b600060208284031215611e5057611e4f6116f7565b5b6000611e5e84828501611e25565b91505092915050565b7f4e487b7100000000000000000000000000000000000000000000000000000000600052601160045260246000fd5b6000611ea1826116b9565b91507fffffffffffffffffffffffffffffffffffffffffffffffffffffffffffffffff821415611ed457611ed3611e67565b5b600182019050919050565b7f516d4e57526753754a443367677974555864425134654e59713469587658484460008201527f4a5a57714a64476d76513979654a000000000000000000000000000000000000602082015250565b6000611f3b602e83611bba565b9150611f4682611edf565b604082019050919050565b600060e082019050611f6660008301896116c3565b8181036020830152611f788188611bfe565b90508181036040830152611f8b81611f2e565b90508181036060830152611f9f8187611bfe565b90508181036080830152611fb38186611bfe565b905081810360a0830152611fc78185611bfe565b9050611fd660c08301846119df565b979650505050505050565b7f4572726f723a204e6f2066756e647320746f2072657475726e00000000000000600082015250565b6000612017601983611bba565b915061202282611fe1565b602082019050919050565b600060208201905081810360008301526120468161200a565b9050919050565b6000612058826116b9565b9150612063836116b9565b9250817fffffffffffffffffffffffffffffffffffffffffffffffffffffffffffffffff048311821515161561209c5761209b611e67565b5b828202905092915050565b7f4572726f723a20496e73756666696369656e742066756e64732e20506c65617360008201527f6520636865636b2074686520636f7374206f6620746865207365727669636500602082015250565b6000612103603f83611bba565b915061210e826120a7565b604082019050919050565b60006020820190508181036000830152612132816120f6565b9050919050565b7f4572726f723a20496e76616c69642073656c656374696f6e0000000000000000600082015250565b600061216f601883611bba565b915061217a82612139565b602082019050919050565b6000602082019050818103600083015261219e81612162565b9050919050565b7f4e487b7100000000000000000000000000000000000000000000000000000000600052602260045260246000fd5b600060028204905060018216806121ec57607f821691505b60208210811415612200576121ff6121a5565b5b50919050565b7f4572726f723a20496e73756666696369656e742066756e6473206465706f736960008201527f7465642e20506c6561736520636865636b2074686520636f7374206f6620746860208201527f6520736572766963650000000000000000000000000000000000000000000000604082015250565b6000612288604983611bba565b915061229382612206565b606082019050919050565b600060208201905081810360008301526122b78161227b565b9050919050565b60006122c9826116b9565b91506122d4836116b9565b9250827fffffffffffffffffffffffffffffffffffffffffffffffffffffffffffffffff0382111561230957612308611e67565b5b828201905092915050565b600061231f826116b9565b915061232a836116b9565b92508282101561233d5761233c611e67565b5b82820390509291505056fe516d4e57526753754a443367677974555864425134654e5971346958765848444a5a57714a64476d76513979654aa264697066735822122011343c0b6017cd0db1bda742d940f549aff4e11c009d2f01fa0b48ea8d320a3964736f6c63430008090033",
  "immutableReferences": {},
  "source": "// SPDX-License-Identifier: MIT\r\n\r\npragma solidity ^0.8.9;\r\n\r\ncontract ServiceInfo {\r\n\r\n    // In units of wei\r\n    uint256 price;\r\n    uint public infoCount = 0;\r\n    uint num_services;\r\n    address payable public customer;\r\n    mapping(uint => Information) public information;\r\n    mapping(uint => Vital) public vital;\r\n\r\n    constructor() {\r\n\r\n        price = 100000000000;   // 100,000,000,000 Wei (100 Gwei)\r\n        num_services = 0;\r\n\r\n\r\n\r\n        // Online Services\r\n        add_service(\"Vehicle Registration Renewal\");\r\n        add_service(\"Address Change\");\r\n        add_service(\"Driver's License Renewal\");\r\n        add_service(\"Update Vehicle Ownership\");\r\n\r\n        // Driver / ID services\r\n        add_service(\"Practice Exams\");\r\n        add_service(\"Real ID\");\r\n        add_service(\"Apply for a Driver's License\");\r\n        add_service(\"Medical Information\");\r\n\r\n        // Vehicle services\r\n        add_service(\"Sell / Donate a Vehicle\");\r\n        add_service(\"Title a Vehicle in Virginia\");\r\n    }\r\n\r\n\r\n    struct Services {\r\n\r\n        uint id;\r\n        string name;\r\n        uint256 cost;\r\n        uint times_ordered;\r\n    }\r\n\r\n    struct Information {\r\n        uint Id;\r\n        string name;\r\n        string dob;\r\n        string registration;\r\n        string streetAddress;\r\n        string license;\r\n        string vehicles;\r\n        string title;\r\n        address payable person;\r\n    }\r\n\r\n    struct Vital {\r\n        uint Id;\r\n        string vhash;\r\n        string birthCertificate;\r\n        string deathCertificate;\r\n        string marriageCertificate;\r\n        string divorceCertificate;\r\n        address payable person; \r\n    }\r\n\r\n\r\n    //\r\n    event InformationAdded(\r\n        uint Id,\r\n        string name,\r\n        string dob,\r\n        string registration,\r\n        string streetAddress,\r\n        string license,\r\n        string vehicles,\r\n        string title,\r\n        address payable person\r\n    );\r\n\r\n    event VitalAdded(\r\n        uint Id,\r\n        string vhash,\r\n        string birthCertificate,\r\n        string deathCertificate,\r\n        string marriageCertificate,\r\n        string divorceCertificate,\r\n        address payable person\r\n    );\r\n\r\n    function uploadInformation(string memory _name, string memory _dob, string memory _registration, string memory _streetAddress, string memory _license, string memory _vehicles,string memory _title) public{\r\n        require(bytes(_name).length > 0);\r\n        require(bytes(_dob).length > 0);\r\n        require(bytes(_registration).length > 0);\r\n        require(bytes(_streetAddress).length > 0);\r\n        require(bytes(_license).length > 0);\r\n        require(bytes(_title).length > 0);\r\n        require(msg.sender != address(0));\r\n\r\n        infoCount ++;\r\n        information[infoCount] = Information(infoCount,_name, _dob, _registration,_streetAddress, _license, _vehicles, _title,payable(msg.sender));\r\n\r\n        emit InformationAdded(infoCount,_name, _dob, _registration,_streetAddress, _license, _vehicles, _title, payable(msg.sender));\r\n    }\r\n    function uploadVital(string memory _vhash,  string memory _deathCertificate, string memory _marriageCertificate, string memory _divorceCertificate) public{\r\n        require(bytes(_vhash).length > 0);\r\n\r\n        require(msg.sender != address(0));\r\n\r\n        vital[infoCount] = Vital(infoCount,_vhash,'QmNWRgSuJD3ggytUXdBQ4eNYq4iXvXHDJZWqJdGmvQ9yeJ', _deathCertificate, _marriageCertificate, _divorceCertificate ,payable(msg.sender));\r\n\r\n        emit VitalAdded(infoCount,_vhash,'QmNWRgSuJD3ggytUXdBQ4eNYq4iXvXHDJZWqJdGmvQ9yeJ', _deathCertificate, _marriageCertificate, _divorceCertificate ,payable(msg.sender));\r\n    }\r\n\r\n    struct Orders {\r\n\r\n        uint256 wallet_bal;\r\n        uint order_count;\r\n    }\r\n\r\n    // Maps services to IDs (i.e. 1 => \"Permit test\")\r\n    mapping(uint => Services) public services;\r\n    mapping(address => Orders) public orders;\r\n\r\n    function add_service(string memory _name) private {\r\n\r\n        num_services++;\r\n        services[num_services] = Services(num_services, _name, price, 0);\r\n    }\r\n\r\n\r\n    function get_price() public view returns (uint256) {\r\n\r\n        return price;\r\n    }\r\n\r\n\r\n    function set_price(uint256 _price) public {\r\n\r\n        price = _price;\r\n        set_service_cost();\r\n    }\r\n\r\n\r\n    function set_service_cost() private {\r\n\r\n        for (uint i = 0; i < num_services; i++) {\r\n\r\n            services[i].cost = price;\r\n        }\r\n    }\r\n\r\n\r\n    // Function allows for the customer to deposit funds into the contract\r\n    function deposit() public payable returns (uint256, uint256) {\r\n\r\n        require(\r\n            msg.value >= price,\r\n            \"Error: Insufficient funds deposited. Please check the cost of the service\"\r\n        );\r\n\r\n        customer = payable(msg.sender);\r\n        orders[customer].wallet_bal += msg.value;\r\n\r\n        return (address(this).balance, orders[customer].wallet_bal);\r\n    }\r\n\r\n\r\n    // User payment\r\n    function make_payment(uint256 _total_cost) private {\r\n\r\n        orders[customer].wallet_bal -= _total_cost;\r\n    }\r\n\r\n\r\n    function customer_selection(uint _serviceID, uint _count) public payable returns (bool) {\r\n\r\n        customer = payable(msg.sender);\r\n        uint256 total_cost = _count * services[_serviceID].cost;\r\n\r\n        // Ensure the customer can afford to make the purchase\r\n        require(\r\n            orders[customer].wallet_bal >= total_cost,\r\n            \"Error: Insufficient funds. Please check the cost of the service\"\r\n        );\r\n\r\n        require(\r\n            (_serviceID > 0 && _serviceID < num_services),\r\n            \"Error: Invalid selection\"\r\n        );\r\n\r\n        orders[customer].order_count = _count;\r\n        make_payment(total_cost);\r\n\r\n        return true;\r\n    }\r\n\r\n\r\n    function return_overpay() public payable {\r\n\r\n        customer = payable(msg.sender);\r\n\r\n        require(\r\n            orders[customer].wallet_bal > 0,\r\n            \"Error: No funds to return\"\r\n        );\r\n\r\n        customer.transfer(orders[customer].wallet_bal);\r\n        orders[customer].wallet_bal = 0;\r\n    }\r\n}\r\n",
  "sourcePath": "C:\\Users\\ryhil\\OneDrive\\Documents\\ODUCS\\CS764\\dmv_blockchain\\tiny-dapp\\contracts\\ServiceInfo.sol",
  "compiler": {
    "name": "solc",
    "version": "0.8.9+commit.e5eed63a.Emscripten.clang"
  },
  "schemaVersion": "3.4.7",
  "updatedAt": "2022-05-01T18:44:53.366Z",
  "devdoc": {
    "kind": "dev",
    "methods": {},
    "version": 1
  },
  "userdoc": {
    "kind": "user",
    "methods": {},
    "version": 1
  }
}