{
  "contractName": "ServiceInfo",
  "abi": [
    {
      "inputs": [],
      "stateMutability": "nonpayable",
      "type": "constructor"
    },
    {
      "anonymous": false,
      "inputs": [
        {
          "indexed": false,
          "internalType": "uint256",
          "name": "Id",
          "type": "uint256"
        },
        {
          "indexed": false,
          "internalType": "string",
          "name": "infoHash",
          "type": "string"
        },
        {
          "indexed": false,
          "internalType": "string",
          "name": "registration",
          "type": "string"
        },
        {
          "indexed": false,
          "internalType": "string",
          "name": "streetAddress",
          "type": "string"
        },
        {
          "indexed": false,
          "internalType": "string",
          "name": "license",
          "type": "string"
        },
        {
          "indexed": false,
          "internalType": "string[]",
          "name": "vehicles",
          "type": "string[]"
        },
        {
          "indexed": false,
          "internalType": "string",
          "name": "title",
          "type": "string"
        },
        {
          "indexed": false,
          "internalType": "address payable",
          "name": "person",
          "type": "address"
        }
      ],
      "name": "InformationAdded",
      "type": "event"
    },
    {
      "inputs": [],
      "name": "customer",
      "outputs": [
        {
          "internalType": "address payable",
          "name": "",
          "type": "address"
        }
      ],
      "stateMutability": "view",
      "type": "function",
      "constant": true
    },
    {
      "inputs": [],
      "name": "infoCount",
      "outputs": [
        {
          "internalType": "uint256",
          "name": "",
          "type": "uint256"
        }
      ],
      "stateMutability": "view",
      "type": "function",
      "constant": true
    },
    {
      "inputs": [
        {
          "internalType": "uint256",
          "name": "",
          "type": "uint256"
        }
      ],
      "name": "information",
      "outputs": [
        {
          "internalType": "uint256",
          "name": "Id",
          "type": "uint256"
        },
        {
          "internalType": "string",
          "name": "infoHash",
          "type": "string"
        },
        {
          "internalType": "string",
          "name": "registration",
          "type": "string"
        },
        {
          "internalType": "string",
          "name": "streetAddress",
          "type": "string"
        },
        {
          "internalType": "string",
          "name": "license",
          "type": "string"
        },
        {
          "internalType": "string",
          "name": "title",
          "type": "string"
        },
        {
          "internalType": "address payable",
          "name": "person",
          "type": "address"
        }
      ],
      "stateMutability": "view",
      "type": "function",
      "constant": true
    },
    {
      "inputs": [
        {
          "internalType": "address",
          "name": "",
          "type": "address"
        }
      ],
      "name": "orders",
      "outputs": [
        {
          "internalType": "uint256",
          "name": "wallet_bal",
          "type": "uint256"
        },
        {
          "internalType": "uint256",
          "name": "order_count",
          "type": "uint256"
        }
      ],
      "stateMutability": "view",
      "type": "function",
      "constant": true
    },
    {
      "inputs": [
        {
          "internalType": "uint256",
          "name": "",
          "type": "uint256"
        }
      ],
      "name": "services",
      "outputs": [
        {
          "internalType": "uint256",
          "name": "id",
          "type": "uint256"
        },
        {
          "internalType": "string",
          "name": "name",
          "type": "string"
        },
        {
          "internalType": "uint256",
          "name": "cost",
          "type": "uint256"
        },
        {
          "internalType": "uint256",
          "name": "times_ordered",
          "type": "uint256"
        }
      ],
      "stateMutability": "view",
      "type": "function",
      "constant": true
    },
    {
      "inputs": [
        {
          "internalType": "string",
          "name": "_infoHash",
          "type": "string"
        },
        {
          "internalType": "string",
          "name": "_registration",
          "type": "string"
        },
        {
          "internalType": "string",
          "name": "_streetAddress",
          "type": "string"
        },
        {
          "internalType": "string",
          "name": "_license",
          "type": "string"
        },
        {
          "internalType": "string[]",
          "name": "_vehicles",
          "type": "string[]"
        },
        {
          "internalType": "string",
          "name": "_title",
          "type": "string"
        }
      ],
      "name": "uploadInformation",
      "outputs": [],
      "stateMutability": "nonpayable",
      "type": "function"
    },
    {
      "inputs": [],
      "name": "get_price",
      "outputs": [
        {
          "internalType": "uint256",
          "name": "",
          "type": "uint256"
        }
      ],
      "stateMutability": "view",
      "type": "function",
      "constant": true
    },
    {
      "inputs": [
        {
          "internalType": "uint256",
          "name": "_price",
          "type": "uint256"
        }
      ],
      "name": "set_price",
      "outputs": [],
      "stateMutability": "nonpayable",
      "type": "function"
    },
    {
      "inputs": [],
      "name": "deposit",
      "outputs": [
        {
          "internalType": "uint256",
          "name": "",
          "type": "uint256"
        },
        {
          "internalType": "uint256",
          "name": "",
          "type": "uint256"
        }
      ],
      "stateMutability": "payable",
      "type": "function",
      "payable": true
    },
    {
      "inputs": [
        {
          "internalType": "uint256",
          "name": "_serviceID",
          "type": "uint256"
        },
        {
          "internalType": "uint256",
          "name": "_count",
          "type": "uint256"
        }
      ],
      "name": "customer_selection",
      "outputs": [
        {
          "internalType": "bool",
          "name": "",
          "type": "bool"
        }
      ],
      "stateMutability": "payable",
      "type": "function",
      "payable": true
    },
    {
      "inputs": [],
      "name": "return_overpay",
      "outputs": [],
      "stateMutability": "payable",
      "type": "function",
      "payable": true
    }
  ],
  "bytecode": "0x608060405260006001553480156200001657600080fd5b5064174876e8006000819055506000600281905550620000716040518060400160405280601c81526020017f56656869636c6520526567697374726174696f6e2052656e6577616c00000000815250620002ed60201b60201c565b620000b76040518060400160405280600e81526020017f41646472657373204368616e6765000000000000000000000000000000000000815250620002ed60201b60201c565b620000fd6040518060400160405280601881526020017f4472697665722773204c6963656e73652052656e6577616c0000000000000000815250620002ed60201b60201c565b620001436040518060400160405280601881526020017f5570646174652056656869636c65204f776e6572736869700000000000000000815250620002ed60201b60201c565b620001896040518060400160405280600e81526020017f5072616374696365204578616d73000000000000000000000000000000000000815250620002ed60201b60201c565b620001cf6040518060400160405280600781526020017f5265616c20494400000000000000000000000000000000000000000000000000815250620002ed60201b60201c565b620002156040518060400160405280601c81526020017f4170706c7920666f722061204472697665722773204c6963656e736500000000815250620002ed60201b60201c565b6200025b6040518060400160405280601381526020017f4d65646963616c20496e666f726d6174696f6e00000000000000000000000000815250620002ed60201b60201c565b620002a16040518060400160405280601781526020017f53656c6c202f20446f6e61746520612056656869636c65000000000000000000815250620002ed60201b60201c565b620002e76040518060400160405280601b81526020017f5469746c6520612056656869636c6520696e2056697267696e69610000000000815250620002ed60201b60201c565b62000521565b6002600081548092919062000302906200046e565b919050555060405180608001604052806002548152602001828152602001600054815260200160008152506005600060025481526020019081526020016000206000820151816000015560208201518160010190805190602001906200036a92919062000385565b50604082015181600201556060820151816003015590505050565b8280546200039390620004eb565b90600052602060002090601f016020900481019282620003b7576000855562000403565b82601f10620003d257805160ff191683800117855562000403565b8280016001018555821562000403579182015b8281111562000402578251825591602001919060010190620003e5565b5b50905062000412919062000416565b5090565b5b808211156200043157600081600090555060010162000417565b5090565b7f4e487b7100000000000000000000000000000000000000000000000000000000600052601160045260246000fd5b6000819050919050565b60006200047b8262000464565b91507fffffffffffffffffffffffffffffffffffffffffffffffffffffffffffffffff821415620004b157620004b062000435565b5b600182019050919050565b7f4e487b7100000000000000000000000000000000000000000000000000000000600052602260045260246000fd5b600060028204905060018216806200050457607f821691505b602082108114156200051b576200051a620004bc565b5b50919050565b611d3780620005316000396000f3fe60806040526004361061009c5760003560e01c80638f86f255116100645780638f86f2551461015a578063c22c4f431461019d578063d0e30db0146101dd578063d8ef4500146101fc578063f40e847114610225578063ff296eaa146102635761009c565b806311f37ceb146100a15780632804b2c0146100cc57806328bf794d146100f757806384c5588e14610120578063888de2ba1461012a575b600080fd5b3480156100ad57600080fd5b506100b661028e565b6040516100c391906110b9565b60405180910390f35b3480156100d857600080fd5b506100e1610297565b6040516100ee9190611115565b60405180910390f35b34801561010357600080fd5b5061011e60048036038101906101199190611170565b6102bd565b005b6101286102cf565b005b610144600480360381019061013f919061119d565b6104f0565b60405161015191906111f8565b60405180910390f35b34801561016657600080fd5b50610181600480360381019061017c9190611170565b6106cd565b60405161019497969594939291906112ac565b60405180910390f35b3480156101a957600080fd5b506101c460048036038101906101bf9190611170565b6109d7565b6040516101d4949392919061133e565b60405180910390f35b6101e5610a8f565b6040516101f392919061138a565b60405180910390f35b34801561020857600080fd5b50610223600480360381019061021e91906115ce565b610c01565b005b34801561023157600080fd5b5061024c60048036038101906102479190611741565b610e51565b60405161025a92919061138a565b60405180910390f35b34801561026f57600080fd5b50610278610e75565b60405161028591906110b9565b60405180910390f35b60008054905090565b600360009054906101000a900473ffffffffffffffffffffffffffffffffffffffff1681565b806000819055506102cc610e7b565b50565b33600360006101000a81548173ffffffffffffffffffffffffffffffffffffffff021916908373ffffffffffffffffffffffffffffffffffffffff160217905550600060066000600360009054906101000a900473ffffffffffffffffffffffffffffffffffffffff1673ffffffffffffffffffffffffffffffffffffffff1673ffffffffffffffffffffffffffffffffffffffff16815260200190815260200160002060000154116103b7576040517f08c379a00000000000000000000000000000000000000000000000000000000081526004016103ae906117ba565b60405180910390fd5b600360009054906101000a900473ffffffffffffffffffffffffffffffffffffffff1673ffffffffffffffffffffffffffffffffffffffff166108fc60066000600360009054906101000a900473ffffffffffffffffffffffffffffffffffffffff1673ffffffffffffffffffffffffffffffffffffffff1673ffffffffffffffffffffffffffffffffffffffff168152602001908152602001600020600001549081150290604051600060405180830381858888f19350505050158015610483573d6000803e3d6000fd5b50600060066000600360009054906101000a900473ffffffffffffffffffffffffffffffffffffffff1673ffffffffffffffffffffffffffffffffffffffff1673ffffffffffffffffffffffffffffffffffffffff16815260200190815260200160002060000181905550565b600033600360006101000a81548173ffffffffffffffffffffffffffffffffffffffff021916908373ffffffffffffffffffffffffffffffffffffffff16021790555060006005600085815260200190815260200160002060020154836105579190611809565b90508060066000600360009054906101000a900473ffffffffffffffffffffffffffffffffffffffff1673ffffffffffffffffffffffffffffffffffffffff1673ffffffffffffffffffffffffffffffffffffffff168152602001908152602001600020600001541015610600576040517f08c379a00000000000000000000000000000000000000000000000000000000081526004016105f7906118d5565b60405180910390fd5b600084118015610611575060025484105b610650576040517f08c379a000000000000000000000000000000000000000000000000000000000815260040161064790611941565b60405180910390fd5b8260066000600360009054906101000a900473ffffffffffffffffffffffffffffffffffffffff1673ffffffffffffffffffffffffffffffffffffffff1673ffffffffffffffffffffffffffffffffffffffff168152602001908152602001600020600101819055506106c281610ebb565b600191505092915050565b60046020528060005260406000206000915090508060000154908060010180546106f690611990565b80601f016020809104026020016040519081016040528092919081815260200182805461072290611990565b801561076f5780601f106107445761010080835404028352916020019161076f565b820191906000526020600020905b81548152906001019060200180831161075257829003601f168201915b50505050509080600201805461078490611990565b80601f01602080910402602001604051908101604052809291908181526020018280546107b090611990565b80156107fd5780601f106107d2576101008083540402835291602001916107fd565b820191906000526020600020905b8154815290600101906020018083116107e057829003601f168201915b50505050509080600301805461081290611990565b80601f016020809104026020016040519081016040528092919081815260200182805461083e90611990565b801561088b5780601f106108605761010080835404028352916020019161088b565b820191906000526020600020905b81548152906001019060200180831161086e57829003601f168201915b5050505050908060040180546108a090611990565b80601f01602080910402602001604051908101604052809291908181526020018280546108cc90611990565b80156109195780601f106108ee57610100808354040283529160200191610919565b820191906000526020600020905b8154815290600101906020018083116108fc57829003601f168201915b50505050509080600601805461092e90611990565b80601f016020809104026020016040519081016040528092919081815260200182805461095a90611990565b80156109a75780601f1061097c576101008083540402835291602001916109a7565b820191906000526020600020905b81548152906001019060200180831161098a57829003601f168201915b5050505050908060070160009054906101000a900473ffffffffffffffffffffffffffffffffffffffff16905087565b6005602052806000526040600020600091509050806000015490806001018054610a0090611990565b80601f0160208091040260200160405190810160405280929190818152602001828054610a2c90611990565b8015610a795780601f10610a4e57610100808354040283529160200191610a79565b820191906000526020600020905b815481529060010190602001808311610a5c57829003601f168201915b5050505050908060020154908060030154905084565b600080600054341015610ad7576040517f08c379a0000000000000000000000000000000000000000000000000000000008152600401610ace90611a5a565b60405180910390fd5b33600360006101000a81548173ffffffffffffffffffffffffffffffffffffffff021916908373ffffffffffffffffffffffffffffffffffffffff1602179055503460066000600360009054906101000a900473ffffffffffffffffffffffffffffffffffffffff1673ffffffffffffffffffffffffffffffffffffffff1673ffffffffffffffffffffffffffffffffffffffff1681526020019081526020016000206000016000828254610b8c9190611a7a565b925050819055504760066000600360009054906101000a900473ffffffffffffffffffffffffffffffffffffffff1673ffffffffffffffffffffffffffffffffffffffff1673ffffffffffffffffffffffffffffffffffffffff16815260200190815260200160002060000154915091509091565b6000865111610c0f57600080fd5b6000855111610c1d57600080fd5b6000845111610c2b57600080fd5b6000835111610c3957600080fd5b6000815111610c4757600080fd5b600073ffffffffffffffffffffffffffffffffffffffff163373ffffffffffffffffffffffffffffffffffffffff161415610c8157600080fd5b60016000815480929190610c9490611ad0565b919050555060405180610100016040528060015481526020018781526020018681526020018581526020018481526020018381526020018281526020013373ffffffffffffffffffffffffffffffffffffffff16815250600460006001548152602001908152602001600020600082015181600001556020820151816001019080519060200190610d26929190610f39565b506040820151816002019080519060200190610d43929190610f39565b506060820151816003019080519060200190610d60929190610f39565b506080820151816004019080519060200190610d7d929190610f39565b5060a0820151816005019080519060200190610d9a929190610fbf565b5060c0820151816006019080519060200190610db7929190610f39565b5060e08201518160070160006101000a81548173ffffffffffffffffffffffffffffffffffffffff021916908373ffffffffffffffffffffffffffffffffffffffff1602179055509050507f1fc45f9798d8d4a52c17a76a1e40f8aa4c50c6b953057013071824ac4b58d78560015487878787878733604051610e41989796959493929190611c25565b60405180910390a1505050505050565b60066020528060005260406000206000915090508060000154908060010154905082565b60015481565b60005b600254811015610eb85760005460056000838152602001908152602001600020600201819055508080610eb090611ad0565b915050610e7e565b50565b8060066000600360009054906101000a900473ffffffffffffffffffffffffffffffffffffffff1673ffffffffffffffffffffffffffffffffffffffff1673ffffffffffffffffffffffffffffffffffffffff1681526020019081526020016000206000016000828254610f2f9190611ccd565b9250508190555050565b828054610f4590611990565b90600052602060002090601f016020900481019282610f675760008555610fae565b82601f10610f8057805160ff1916838001178555610fae565b82800160010185558215610fae579182015b82811115610fad578251825591602001919060010190610f92565b5b509050610fbb919061101f565b5090565b82805482825590600052602060002090810192821561100e579160200282015b8281111561100d578251829080519060200190610ffd929190610f39565b5091602001919060010190610fdf565b5b50905061101b919061103c565b5090565b5b80821115611038576000816000905550600101611020565b5090565b5b8082111561105c57600081816110539190611060565b5060010161103d565b5090565b50805461106c90611990565b6000825580601f1061107e575061109d565b601f01602090049060005260206000209081019061109c919061101f565b5b50565b6000819050919050565b6110b3816110a0565b82525050565b60006020820190506110ce60008301846110aa565b92915050565b600073ffffffffffffffffffffffffffffffffffffffff82169050919050565b60006110ff826110d4565b9050919050565b61110f816110f4565b82525050565b600060208201905061112a6000830184611106565b92915050565b6000604051905090565b600080fd5b600080fd5b61114d816110a0565b811461115857600080fd5b50565b60008135905061116a81611144565b92915050565b6000602082840312156111865761118561113a565b5b60006111948482850161115b565b91505092915050565b600080604083850312156111b4576111b361113a565b5b60006111c28582860161115b565b92505060206111d38582860161115b565b9150509250929050565b60008115159050919050565b6111f2816111dd565b82525050565b600060208201905061120d60008301846111e9565b92915050565b600081519050919050565b600082825260208201905092915050565b60005b8381101561124d578082015181840152602081019050611232565b8381111561125c576000848401525b50505050565b6000601f19601f8301169050919050565b600061127e82611213565b611288818561121e565b935061129881856020860161122f565b6112a181611262565b840191505092915050565b600060e0820190506112c1600083018a6110aa565b81810360208301526112d38189611273565b905081810360408301526112e78188611273565b905081810360608301526112fb8187611273565b9050818103608083015261130f8186611273565b905081810360a08301526113238185611273565b905061133260c0830184611106565b98975050505050505050565b600060808201905061135360008301876110aa565b81810360208301526113658186611273565b905061137460408301856110aa565b61138160608301846110aa565b95945050505050565b600060408201905061139f60008301856110aa565b6113ac60208301846110aa565b9392505050565b600080fd5b600080fd5b7f4e487b7100000000000000000000000000000000000000000000000000000000600052604160045260246000fd5b6113f582611262565b810181811067ffffffffffffffff82111715611414576114136113bd565b5b80604052505050565b6000611427611130565b905061143382826113ec565b919050565b600067ffffffffffffffff821115611453576114526113bd565b5b61145c82611262565b9050602081019050919050565b82818337600083830152505050565b600061148b61148684611438565b61141d565b9050828152602081018484840111156114a7576114a66113b8565b5b6114b2848285611469565b509392505050565b600082601f8301126114cf576114ce6113b3565b5b81356114df848260208601611478565b91505092915050565b600067ffffffffffffffff821115611503576115026113bd565b5b602082029050602081019050919050565b600080fd5b600061152c611527846114e8565b61141d565b9050808382526020820190506020840283018581111561154f5761154e611514565b5b835b8181101561159657803567ffffffffffffffff811115611574576115736113b3565b5b80860161158189826114ba565b85526020850194505050602081019050611551565b5050509392505050565b600082601f8301126115b5576115b46113b3565b5b81356115c5848260208601611519565b91505092915050565b60008060008060008060c087890312156115eb576115ea61113a565b5b600087013567ffffffffffffffff8111156116095761160861113f565b5b61161589828a016114ba565b965050602087013567ffffffffffffffff8111156116365761163561113f565b5b61164289828a016114ba565b955050604087013567ffffffffffffffff8111156116635761166261113f565b5b61166f89828a016114ba565b945050606087013567ffffffffffffffff8111156116905761168f61113f565b5b61169c89828a016114ba565b935050608087013567ffffffffffffffff8111156116bd576116bc61113f565b5b6116c989828a016115a0565b92505060a087013567ffffffffffffffff8111156116ea576116e961113f565b5b6116f689828a016114ba565b9150509295509295509295565b600061170e826110d4565b9050919050565b61171e81611703565b811461172957600080fd5b50565b60008135905061173b81611715565b92915050565b6000602082840312156117575761175661113a565b5b60006117658482850161172c565b91505092915050565b7f4572726f723a204e6f2066756e647320746f2072657475726e00000000000000600082015250565b60006117a460198361121e565b91506117af8261176e565b602082019050919050565b600060208201905081810360008301526117d381611797565b9050919050565b7f4e487b7100000000000000000000000000000000000000000000000000000000600052601160045260246000fd5b6000611814826110a0565b915061181f836110a0565b9250817fffffffffffffffffffffffffffffffffffffffffffffffffffffffffffffffff0483118215151615611858576118576117da565b5b828202905092915050565b7f4572726f723a20496e73756666696369656e742066756e64732e20506c65617360008201527f6520636865636b2074686520636f7374206f6620746865207365727669636500602082015250565b60006118bf603f8361121e565b91506118ca82611863565b604082019050919050565b600060208201905081810360008301526118ee816118b2565b9050919050565b7f4572726f723a20496e76616c69642073656c656374696f6e0000000000000000600082015250565b600061192b60188361121e565b9150611936826118f5565b602082019050919050565b6000602082019050818103600083015261195a8161191e565b9050919050565b7f4e487b7100000000000000000000000000000000000000000000000000000000600052602260045260246000fd5b600060028204905060018216806119a857607f821691505b602082108114156119bc576119bb611961565b5b50919050565b7f4572726f723a20496e73756666696369656e742066756e6473206465706f736960008201527f7465642e20506c6561736520636865636b2074686520636f7374206f6620746860208201527f6520736572766963650000000000000000000000000000000000000000000000604082015250565b6000611a4460498361121e565b9150611a4f826119c2565b606082019050919050565b60006020820190508181036000830152611a7381611a37565b9050919050565b6000611a85826110a0565b9150611a90836110a0565b9250827fffffffffffffffffffffffffffffffffffffffffffffffffffffffffffffffff03821115611ac557611ac46117da565b5b828201905092915050565b6000611adb826110a0565b91507fffffffffffffffffffffffffffffffffffffffffffffffffffffffffffffffff821415611b0e57611b0d6117da565b5b600182019050919050565b600081519050919050565b600082825260208201905092915050565b6000819050602082019050919050565b600082825260208201905092915050565b6000611b6182611213565b611b6b8185611b45565b9350611b7b81856020860161122f565b611b8481611262565b840191505092915050565b6000611b9b8383611b56565b905092915050565b6000602082019050919050565b6000611bbb82611b19565b611bc58185611b24565b935083602082028501611bd785611b35565b8060005b85811015611c135784840389528151611bf48582611b8f565b9450611bff83611ba3565b925060208a01995050600181019050611bdb565b50829750879550505050505092915050565b600061010082019050611c3b600083018b6110aa565b8181036020830152611c4d818a611273565b90508181036040830152611c618189611273565b90508181036060830152611c758188611273565b90508181036080830152611c898187611273565b905081810360a0830152611c9d8186611bb0565b905081810360c0830152611cb18185611273565b9050611cc060e0830184611106565b9998505050505050505050565b6000611cd8826110a0565b9150611ce3836110a0565b925082821015611cf657611cf56117da565b5b82820390509291505056fea264697066735822122054abb1206f595103c1ba2cca0a11228f3c080e3d2cbf26db5bae963a1025a35964736f6c63430008090033",
  "immutableReferences": {},
  "source": "// SPDX-License-Identifier: MIT\r\n\r\npragma solidity ^0.8.9;\r\n\r\ncontract ServiceInfo {\r\n\r\n    // In units of wei\r\n    uint256 price;\r\n    uint public infoCount = 0;\r\n    uint num_services;\r\n    address payable public customer;\r\n    mapping(uint => Information) public information;\r\n\r\n    constructor() {\r\n\r\n        price = 100000000000;   // 100,000,000,000 Wei (100 Gwei)\r\n        num_services = 0;\r\n\r\n\r\n\r\n        // Online Services\r\n        add_service(\"Vehicle Registration Renewal\");\r\n        add_service(\"Address Change\");\r\n        add_service(\"Driver's License Renewal\");\r\n        add_service(\"Update Vehicle Ownership\");\r\n\r\n        // Driver / ID services\r\n        add_service(\"Practice Exams\");\r\n        add_service(\"Real ID\");\r\n        add_service(\"Apply for a Driver's License\");\r\n        add_service(\"Medical Information\");\r\n\r\n        // Vehicle services\r\n        add_service(\"Sell / Donate a Vehicle\");\r\n        add_service(\"Title a Vehicle in Virginia\");\r\n    }\r\n\r\n\r\n    struct Services {\r\n\r\n        uint id;\r\n        string name;\r\n        uint256 cost;\r\n        uint times_ordered;\r\n    }\r\n\r\n    struct Information {\r\n        uint Id;\r\n        string infoHash;\r\n        string registration;\r\n        string streetAddress;\r\n        string license;\r\n        string[] vehicles;\r\n        string title;\r\n        address payable person;\r\n    }\r\n\r\n    event InformationAdded(\r\n        uint Id,\r\n        string infoHash,\r\n        string registration,\r\n        string streetAddress,\r\n        string license,\r\n        string[] vehicles,\r\n        string title,\r\n        address payable person\r\n    );\r\n\r\n    function uploadInformation(string memory _infoHash, string memory _registration, string memory _streetAddress, string memory _license, string[] memory _vehicles,string memory _title) public{\r\n        require(bytes(_infoHash).length > 0);\r\n        require(bytes(_registration).length > 0);\r\n        require(bytes(_streetAddress).length > 0);\r\n        require(bytes(_license).length > 0);\r\n        require(bytes(_title).length > 0);\r\n        require(msg.sender != address(0));\r\n\r\n\r\n        infoCount ++;\r\n        information[infoCount] = Information(infoCount,_infoHash, _registration,_streetAddress, _license, _vehicles, _title, payable(msg.sender));\r\n\r\n        emit InformationAdded(infoCount,_infoHash, _registration,_streetAddress, _license, _vehicles, _title, payable(msg.sender));\r\n    }\r\n\r\n\r\n    struct Orders {\r\n\r\n        uint256 wallet_bal;\r\n        uint order_count;\r\n    }\r\n\r\n    // Maps services to IDs (i.e. 1 => \"Permit test\")\r\n    mapping(uint => Services) public services;\r\n    mapping(address => Orders) public orders;\r\n\r\n    function add_service(string memory _name) private {\r\n\r\n        num_services++;\r\n        services[num_services] = Services(num_services, _name, price, 0);\r\n    }\r\n\r\n\r\n    function get_price() public view returns (uint256) {\r\n\r\n        return price;\r\n    }\r\n\r\n\r\n    function set_price(uint256 _price) public {\r\n\r\n        price = _price;\r\n        set_service_cost();\r\n    }\r\n\r\n\r\n    function set_service_cost() private {\r\n\r\n        for (uint i = 0; i < num_services; i++) {\r\n\r\n            services[i].cost = price;\r\n        }\r\n    }\r\n\r\n\r\n    // Function allows for the customer to deposit funds into the contract\r\n    function deposit() public payable returns (uint256, uint256) {\r\n\r\n        require(\r\n            msg.value >= price,\r\n            \"Error: Insufficient funds deposited. Please check the cost of the service\"\r\n        );\r\n\r\n        customer = payable(msg.sender);\r\n        orders[customer].wallet_bal += msg.value;\r\n\r\n        return (address(this).balance, orders[customer].wallet_bal);\r\n    }\r\n\r\n\r\n    // User payment\r\n    function make_payment(uint256 _total_cost) private {\r\n\r\n        orders[customer].wallet_bal -= _total_cost;\r\n    }\r\n\r\n\r\n    function customer_selection(uint _serviceID, uint _count) public payable returns (bool) {\r\n\r\n        customer = payable(msg.sender);\r\n        uint256 total_cost = _count * services[_serviceID].cost;\r\n\r\n        // Ensure the customer can afford to make the purchase\r\n        require(\r\n            orders[customer].wallet_bal >= total_cost,\r\n            \"Error: Insufficient funds. Please check the cost of the service\"\r\n        );\r\n\r\n        require(\r\n            (_serviceID > 0 && _serviceID < num_services),\r\n            \"Error: Invalid selection\"\r\n        );\r\n\r\n        orders[customer].order_count = _count;\r\n        make_payment(total_cost);\r\n\r\n        return true;\r\n    }\r\n\r\n\r\n    function return_overpay() public payable {\r\n\r\n        customer = payable(msg.sender);\r\n\r\n        require(\r\n            orders[customer].wallet_bal > 0,\r\n            \"Error: No funds to return\"\r\n        );\r\n\r\n        customer.transfer(orders[customer].wallet_bal);\r\n        orders[customer].wallet_bal = 0;\r\n    }\r\n}\r\n",
  "sourcePath": "C:\\Users\\ryhil\\OneDrive\\Documents\\ODUCS\\CS764\\dmv_blockchain\\tiny-dapp\\contracts\\ServiceInfo.sol",
  "compiler": {
    "name": "solc",
    "version": "0.8.9+commit.e5eed63a.Emscripten.clang"
  },
  "schemaVersion": "3.4.7",
  "updatedAt": "2022-04-28T17:53:29.970Z",
  "networkType": "ethereum",
  "devdoc": {
    "kind": "dev",
    "methods": {},
    "version": 1
  },
  "userdoc": {
    "kind": "user",
    "methods": {},
    "version": 1
  }
}