{
  "contractName": "Service",
  "abi": [
    {
      "inputs": [],
      "stateMutability": "nonpayable",
      "type": "constructor"
    },
    {
      "inputs": [],
      "name": "customer",
      "outputs": [
        {
          "internalType": "address payable",
          "name": "",
          "type": "address"
        }
      ],
      "stateMutability": "view",
      "type": "function"
    },
    {
      "inputs": [
        {
          "internalType": "address",
          "name": "",
          "type": "address"
        }
      ],
      "name": "orders",
      "outputs": [
        {
          "internalType": "uint256",
          "name": "wallet_bal",
          "type": "uint256"
        },
        {
          "internalType": "uint256",
          "name": "service_count",
          "type": "uint256"
        }
      ],
      "stateMutability": "view",
      "type": "function"
    },
    {
      "inputs": [
        {
          "internalType": "uint256",
          "name": "",
          "type": "uint256"
        }
      ],
      "name": "services",
      "outputs": [
        {
          "internalType": "uint256",
          "name": "id",
          "type": "uint256"
        },
        {
          "internalType": "string",
          "name": "name",
          "type": "string"
        },
        {
          "internalType": "uint256",
          "name": "cost",
          "type": "uint256"
        }
      ],
      "stateMutability": "view",
      "type": "function"
    },
    {
      "inputs": [],
      "name": "getOwner",
      "outputs": [
        {
          "internalType": "address",
          "name": "",
          "type": "address"
        }
      ],
      "stateMutability": "view",
      "type": "function"
    },
    {
      "inputs": [],
      "name": "get_price",
      "outputs": [
        {
          "internalType": "uint256",
          "name": "",
          "type": "uint256"
        }
      ],
      "stateMutability": "view",
      "type": "function"
    },
    {
      "inputs": [
        {
          "internalType": "uint256",
          "name": "_price",
          "type": "uint256"
        }
      ],
      "name": "set_price",
      "outputs": [],
      "stateMutability": "nonpayable",
      "type": "function"
    },
    {
      "inputs": [],
      "name": "deposit",
      "outputs": [
        {
          "internalType": "uint256",
          "name": "",
          "type": "uint256"
        },
        {
          "internalType": "uint256",
          "name": "",
          "type": "uint256"
        }
      ],
      "stateMutability": "payable",
      "type": "function"
    },
    {
      "inputs": [
        {
          "internalType": "uint256",
          "name": "_serviceID",
          "type": "uint256"
        },
        {
          "internalType": "uint256",
          "name": "_count",
          "type": "uint256"
        }
      ],
      "name": "customer_selection",
      "outputs": [
        {
          "internalType": "bool",
          "name": "",
          "type": "bool"
        }
      ],
      "stateMutability": "payable",
      "type": "function"
    },
    {
      "inputs": [],
      "name": "return_overpay",
      "outputs": [],
      "stateMutability": "payable",
      "type": "function"
    }
  ],
  "bytecode": "0x60806040523480156200001157600080fd5b5064174876e80060008190555060006001819055506200006c6040518060400160405280601c81526020017f56656869636c6520526567697374726174696f6e2052656e6577616c00000000815250620002e860201b60201c565b620000b26040518060400160405280600e81526020017f41646472657373204368616e6765000000000000000000000000000000000000815250620002e860201b60201c565b620000f86040518060400160405280601881526020017f4472697665722773204c6963656e73652052656e6577616c0000000000000000815250620002e860201b60201c565b6200013e6040518060400160405280601881526020017f5570646174652056656869636c65204f776e6572736869700000000000000000815250620002e860201b60201c565b620001846040518060400160405280600e81526020017f5072616374696365204578616d73000000000000000000000000000000000000815250620002e860201b60201c565b620001ca6040518060400160405280600781526020017f5265616c20494400000000000000000000000000000000000000000000000000815250620002e860201b60201c565b620002106040518060400160405280601c81526020017f4170706c7920666f722061204472697665722773204c6963656e736500000000815250620002e860201b60201c565b620002566040518060400160405280601381526020017f4d65646963616c20496e666f726d6174696f6e00000000000000000000000000815250620002e860201b60201c565b6200029c6040518060400160405280601781526020017f53656c6c202f20446f6e61746520612056656869636c65000000000000000000815250620002e860201b60201c565b620002e26040518060400160405280601b81526020017f5469746c6520612056656869636c6520696e2056697267696e69610000000000815250620002e860201b60201c565b6200050b565b60016000815480929190620002fd9062000458565b9190505550604051806060016040528060015481526020018281526020016000548152506003600060015481526020019081526020016000206000820151816000015560208201518160010190805190602001906200035e9291906200036f565b506040820151816002015590505050565b8280546200037d90620004d5565b90600052602060002090601f016020900481019282620003a15760008555620003ed565b82601f10620003bc57805160ff1916838001178555620003ed565b82800160010185558215620003ed579182015b82811115620003ec578251825591602001919060010190620003cf565b5b509050620003fc919062000400565b5090565b5b808211156200041b57600081600090555060010162000401565b5090565b7f4e487b7100000000000000000000000000000000000000000000000000000000600052601160045260246000fd5b6000819050919050565b600062000465826200044e565b91507fffffffffffffffffffffffffffffffffffffffffffffffffffffffffffffffff8214156200049b576200049a6200041f565b5b600182019050919050565b7f4e487b7100000000000000000000000000000000000000000000000000000000600052602260045260246000fd5b60006002820490506001821680620004ee57607f821691505b60208210811415620005055762000504620004a6565b5b50919050565b611088806200051b6000396000f3fe6080604052600436106100865760003560e01c8063888de2ba11610059578063888de2ba14610114578063893d20e814610144578063c22c4f431461016f578063d0e30db0146101ae578063f40e8471146101cd57610086565b806311f37ceb1461008b5780632804b2c0146100b657806328bf794d146100e157806384c5588e1461010a575b600080fd5b34801561009757600080fd5b506100a061020b565b6040516100ad9190610993565b60405180910390f35b3480156100c257600080fd5b506100cb610214565b6040516100d891906109ef565b60405180910390f35b3480156100ed57600080fd5b5061010860048036038101906101039190610a3b565b61023a565b005b61011261024c565b005b61012e60048036038101906101299190610a68565b61046d565b60405161013b9190610ac3565b60405180910390f35b34801561015057600080fd5b5061015961064a565b6040516101669190610aff565b60405180910390f35b34801561017b57600080fd5b5061019660048036038101906101919190610a3b565b610674565b6040516101a593929190610bb3565b60405180910390f35b6101b6610726565b6040516101c4929190610bf1565b60405180910390f35b3480156101d957600080fd5b506101f460048036038101906101ef9190610c46565b610898565b604051610202929190610bf1565b60405180910390f35b60008054905090565b600260009054906101000a900473ffffffffffffffffffffffffffffffffffffffff1681565b806000819055506102496108bc565b50565b33600260006101000a81548173ffffffffffffffffffffffffffffffffffffffff021916908373ffffffffffffffffffffffffffffffffffffffff160217905550600060046000600260009054906101000a900473ffffffffffffffffffffffffffffffffffffffff1673ffffffffffffffffffffffffffffffffffffffff1673ffffffffffffffffffffffffffffffffffffffff1681526020019081526020016000206000015411610334576040517f08c379a000000000000000000000000000000000000000000000000000000000815260040161032b90610cbf565b60405180910390fd5b600260009054906101000a900473ffffffffffffffffffffffffffffffffffffffff1673ffffffffffffffffffffffffffffffffffffffff166108fc60046000600260009054906101000a900473ffffffffffffffffffffffffffffffffffffffff1673ffffffffffffffffffffffffffffffffffffffff1673ffffffffffffffffffffffffffffffffffffffff168152602001908152602001600020600001549081150290604051600060405180830381858888f19350505050158015610400573d6000803e3d6000fd5b50600060046000600260009054906101000a900473ffffffffffffffffffffffffffffffffffffffff1673ffffffffffffffffffffffffffffffffffffffff1673ffffffffffffffffffffffffffffffffffffffff16815260200190815260200160002060000181905550565b600033600260006101000a81548173ffffffffffffffffffffffffffffffffffffffff021916908373ffffffffffffffffffffffffffffffffffffffff16021790555060006003600085815260200190815260200160002060020154836104d49190610d0e565b90508060046000600260009054906101000a900473ffffffffffffffffffffffffffffffffffffffff1673ffffffffffffffffffffffffffffffffffffffff1673ffffffffffffffffffffffffffffffffffffffff16815260200190815260200160002060000154101561057d576040517f08c379a000000000000000000000000000000000000000000000000000000000815260040161057490610dda565b60405180910390fd5b60008411801561058e575060015484105b6105cd576040517f08c379a00000000000000000000000000000000000000000000000000000000081526004016105c490610e46565b60405180910390fd5b8260046000600260009054906101000a900473ffffffffffffffffffffffffffffffffffffffff1673ffffffffffffffffffffffffffffffffffffffff1673ffffffffffffffffffffffffffffffffffffffff1681526020019081526020016000206001018190555061063f816108fc565b600191505092915050565b6000600260009054906101000a900473ffffffffffffffffffffffffffffffffffffffff16905090565b600360205280600052604060002060009150905080600001549080600101805461069d90610e95565b80601f01602080910402602001604051908101604052809291908181526020018280546106c990610e95565b80156107165780601f106106eb57610100808354040283529160200191610716565b820191906000526020600020905b8154815290600101906020018083116106f957829003601f168201915b5050505050908060020154905083565b60008060005434101561076e576040517f08c379a000000000000000000000000000000000000000000000000000000000815260040161076590610f5f565b60405180910390fd5b33600260006101000a81548173ffffffffffffffffffffffffffffffffffffffff021916908373ffffffffffffffffffffffffffffffffffffffff1602179055503460046000600260009054906101000a900473ffffffffffffffffffffffffffffffffffffffff1673ffffffffffffffffffffffffffffffffffffffff1673ffffffffffffffffffffffffffffffffffffffff16815260200190815260200160002060000160008282546108239190610f7f565b925050819055504760046000600260009054906101000a900473ffffffffffffffffffffffffffffffffffffffff1673ffffffffffffffffffffffffffffffffffffffff1673ffffffffffffffffffffffffffffffffffffffff16815260200190815260200160002060000154915091509091565b60046020528060005260406000206000915090508060000154908060010154905082565b60005b6001548110156108f957600054600360008381526020019081526020016000206002018190555080806108f190610fd5565b9150506108bf565b50565b8060046000600260009054906101000a900473ffffffffffffffffffffffffffffffffffffffff1673ffffffffffffffffffffffffffffffffffffffff1673ffffffffffffffffffffffffffffffffffffffff1681526020019081526020016000206000016000828254610970919061101e565b9250508190555050565b6000819050919050565b61098d8161097a565b82525050565b60006020820190506109a86000830184610984565b92915050565b600073ffffffffffffffffffffffffffffffffffffffff82169050919050565b60006109d9826109ae565b9050919050565b6109e9816109ce565b82525050565b6000602082019050610a0460008301846109e0565b92915050565b600080fd5b610a188161097a565b8114610a2357600080fd5b50565b600081359050610a3581610a0f565b92915050565b600060208284031215610a5157610a50610a0a565b5b6000610a5f84828501610a26565b91505092915050565b60008060408385031215610a7f57610a7e610a0a565b5b6000610a8d85828601610a26565b9250506020610a9e85828601610a26565b9150509250929050565b60008115159050919050565b610abd81610aa8565b82525050565b6000602082019050610ad86000830184610ab4565b92915050565b6000610ae9826109ae565b9050919050565b610af981610ade565b82525050565b6000602082019050610b146000830184610af0565b92915050565b600081519050919050565b600082825260208201905092915050565b60005b83811015610b54578082015181840152602081019050610b39565b83811115610b63576000848401525b50505050565b6000601f19601f8301169050919050565b6000610b8582610b1a565b610b8f8185610b25565b9350610b9f818560208601610b36565b610ba881610b69565b840191505092915050565b6000606082019050610bc86000830186610984565b8181036020830152610bda8185610b7a565b9050610be96040830184610984565b949350505050565b6000604082019050610c066000830185610984565b610c136020830184610984565b9392505050565b610c2381610ade565b8114610c2e57600080fd5b50565b600081359050610c4081610c1a565b92915050565b600060208284031215610c5c57610c5b610a0a565b5b6000610c6a84828501610c31565b91505092915050565b7f4572726f723a204e6f2066756e647320746f2072657475726e00000000000000600082015250565b6000610ca9601983610b25565b9150610cb482610c73565b602082019050919050565b60006020820190508181036000830152610cd881610c9c565b9050919050565b7f4e487b7100000000000000000000000000000000000000000000000000000000600052601160045260246000fd5b6000610d198261097a565b9150610d248361097a565b9250817fffffffffffffffffffffffffffffffffffffffffffffffffffffffffffffffff0483118215151615610d5d57610d5c610cdf565b5b828202905092915050565b7f4572726f723a20496e73756666696369656e742066756e64732e20506c65617360008201527f6520636865636b2074686520636f7374206f6620746865207365727669636500602082015250565b6000610dc4603f83610b25565b9150610dcf82610d68565b604082019050919050565b60006020820190508181036000830152610df381610db7565b9050919050565b7f4572726f723a20496e76616c69642073656c656374696f6e0000000000000000600082015250565b6000610e30601883610b25565b9150610e3b82610dfa565b602082019050919050565b60006020820190508181036000830152610e5f81610e23565b9050919050565b7f4e487b7100000000000000000000000000000000000000000000000000000000600052602260045260246000fd5b60006002820490506001821680610ead57607f821691505b60208210811415610ec157610ec0610e66565b5b50919050565b7f4572726f723a20496e73756666696369656e742066756e6473206465706f736960008201527f7465642e20506c6561736520636865636b2074686520636f7374206f6620746860208201527f6520736572766963650000000000000000000000000000000000000000000000604082015250565b6000610f49604983610b25565b9150610f5482610ec7565b606082019050919050565b60006020820190508181036000830152610f7881610f3c565b9050919050565b6000610f8a8261097a565b9150610f958361097a565b9250827fffffffffffffffffffffffffffffffffffffffffffffffffffffffffffffffff03821115610fca57610fc9610cdf565b5b828201905092915050565b6000610fe08261097a565b91507fffffffffffffffffffffffffffffffffffffffffffffffffffffffffffffffff82141561101357611012610cdf565b5b600182019050919050565b60006110298261097a565b91506110348361097a565b92508282101561104757611046610cdf565b5b82820390509291505056fea2646970667358221220948ce30dcd87bfa1ba31f0a5df36bc651c8334467eb35dfd6db0df809af734a864736f6c63430008090033",
  "immutableReferences": {},
  "source": "// SPDX-License-Identifier: MIT\r\n\r\npragma solidity ^0.8.9;\r\n\r\ncontract Service {\r\n\r\n    // In units of wei\r\n    uint256 price;\r\n\r\n    uint num_services;\r\n    address payable public customer;\r\n\r\n    constructor() {\r\n\r\n        price = 100000000000;\r\n        num_services = 0;\r\n\r\n        // Online Services\r\n        add_service(\"Vehicle Registration Renewal\");\r\n        add_service(\"Address Change\");\r\n        add_service(\"Driver's License Renewal\");\r\n        add_service(\"Update Vehicle Ownership\");\r\n\r\n        // Driver / ID services\r\n        add_service(\"Practice Exams\");\r\n        add_service(\"Real ID\");\r\n        add_service(\"Apply for a Driver's License\");\r\n        add_service(\"Medical Information\");\r\n\r\n        // Vehicle services\r\n        add_service(\"Sell / Donate a Vehicle\");\r\n        add_service(\"Title a Vehicle in Virginia\");\r\n    }\r\n\r\n    struct Services {\r\n\r\n        uint id;\r\n        string name;\r\n        uint256 cost;\r\n    }\r\n\r\n    struct Orders {\r\n\r\n        uint256 wallet_bal;\r\n        uint service_count;\r\n    }\r\n\r\n    // Maps services to IDs (i.e. 1 => \"Permit test\")\r\n    mapping(uint => Services) public services;\r\n    mapping(address => Orders) public orders;\r\n\r\n    function add_service(string memory _name) private {\r\n\r\n        num_services++;\r\n        services[num_services] = Services(num_services, _name, price);\r\n    }\r\n    function getOwner(\r\n        ) public view returns (address) {    \r\n            return customer;\r\n        }\r\n\r\n    function get_price() public view returns (uint256) {\r\n\r\n        return price;\r\n    }\r\n\r\n    function set_price(uint256 _price) public {\r\n\r\n        price = _price;\r\n        set_service_cost();\r\n    }\r\n\r\n    function set_service_cost() private {\r\n\r\n        for (uint i = 0; i < num_services; i++) {\r\n\r\n            services[i].cost = price;\r\n        }\r\n    }\r\n\r\n    // Function allows for the customer to deposit funds into the contract\r\n    function deposit() public payable returns (uint256, uint256) {\r\n\r\n        require(\r\n            msg.value >= price,\r\n            \"Error: Insufficient funds deposited. Please check the cost of the service\"\r\n        );\r\n\r\n        customer = payable(msg.sender);\r\n        orders[customer].wallet_bal += msg.value;\r\n\r\n        return (address(this).balance, orders[customer].wallet_bal);\r\n    }\r\n\r\n    // User payment\r\n    function make_payment(uint256 _total_cost) private {\r\n\r\n        orders[customer].wallet_bal -= _total_cost;\r\n    }\r\n\r\n    function customer_selection(uint _serviceID, uint _count) public payable returns (bool) {\r\n\r\n        customer = payable(msg.sender);\r\n        uint256 total_cost = _count * services[_serviceID].cost;\r\n\r\n        // Ensure the customer can afford to make the purchase\r\n        require(\r\n            orders[customer].wallet_bal >= total_cost,\r\n            \"Error: Insufficient funds. Please check the cost of the service\"\r\n        );\r\n\r\n        require(\r\n            (_serviceID > 0 && _serviceID < num_services),\r\n            \"Error: Invalid selection\"\r\n        );\r\n\r\n        orders[customer].service_count = _count;\r\n        make_payment(total_cost);\r\n\r\n        return true;\r\n    }\r\n\r\n    function return_overpay() public payable {\r\n\r\n        customer = payable(msg.sender);\r\n\r\n        require(\r\n            orders[customer].wallet_bal > 0,\r\n            \"Error: No funds to return\"\r\n        );\r\n\r\n        customer.transfer(orders[customer].wallet_bal);\r\n        orders[customer].wallet_bal = 0;\r\n    }\r\n}\r\n",
  "sourcePath": "C:\\Users\\ryhil\\OneDrive\\Documents\\ODUCS\\CS764\\dmv_blockchain\\tiny-dapp\\contracts\\Service.sol",
  "compiler": {
    "name": "solc",
    "version": "0.8.9+commit.e5eed63a.Emscripten.clang"
  },
  "schemaVersion": "3.4.7",
  "updatedAt": "2022-04-28T15:32:30.263Z",
  "devdoc": {
    "kind": "dev",
    "methods": {},
    "version": 1
  },
  "userdoc": {
    "kind": "user",
    "methods": {},
    "version": 1
  }
}