{
  "contractName": "ServiceInfo",
  "abi": [
    {
      "anonymous": false,
      "inputs": [
        {
          "indexed": false,
          "internalType": "address payable",
          "name": "person",
          "type": "address"
        },
        {
          "indexed": false,
          "internalType": "string",
          "name": "street",
          "type": "string"
        },
        {
          "indexed": false,
          "internalType": "string",
          "name": "state",
          "type": "string"
        },
        {
          "indexed": false,
          "internalType": "string",
          "name": "zipcode",
          "type": "string"
        }
      ],
      "name": "AddressAdded",
      "type": "event"
    },
    {
      "anonymous": false,
      "inputs": [
        {
          "indexed": false,
          "internalType": "address",
          "name": "person",
          "type": "address"
        },
        {
          "indexed": false,
          "internalType": "string",
          "name": "name",
          "type": "string"
        },
        {
          "indexed": false,
          "internalType": "string",
          "name": "dob",
          "type": "string"
        }
      ],
      "name": "InformationAdded",
      "type": "event"
    },
    {
      "anonymous": false,
      "inputs": [
        {
          "indexed": false,
          "internalType": "string",
          "name": "birthCertificate",
          "type": "string"
        },
        {
          "indexed": false,
          "internalType": "string",
          "name": "deathCertificate",
          "type": "string"
        },
        {
          "indexed": false,
          "internalType": "string",
          "name": "marriageCertificate",
          "type": "string"
        },
        {
          "indexed": false,
          "internalType": "string",
          "name": "divorceCertificate",
          "type": "string"
        },
        {
          "indexed": false,
          "internalType": "address",
          "name": "person",
          "type": "address"
        }
      ],
      "name": "VitalAdded",
      "type": "event"
    },
    {
      "inputs": [],
      "name": "customer",
      "outputs": [
        {
          "internalType": "address payable",
          "name": "",
          "type": "address"
        }
      ],
      "stateMutability": "view",
      "type": "function",
      "constant": true
    },
    {
      "inputs": [],
      "name": "infoCount",
      "outputs": [
        {
          "internalType": "uint256",
          "name": "",
          "type": "uint256"
        }
      ],
      "stateMutability": "view",
      "type": "function",
      "constant": true
    },
    {
      "inputs": [
        {
          "internalType": "address",
          "name": "",
          "type": "address"
        }
      ],
      "name": "information",
      "outputs": [
        {
          "internalType": "address",
          "name": "person",
          "type": "address"
        },
        {
          "internalType": "string",
          "name": "name",
          "type": "string"
        },
        {
          "internalType": "string",
          "name": "dob",
          "type": "string"
        }
      ],
      "stateMutability": "view",
      "type": "function",
      "constant": true
    },
    {
      "inputs": [
        {
          "internalType": "address",
          "name": "",
          "type": "address"
        }
      ],
      "name": "license",
      "outputs": [
        {
          "internalType": "address",
          "name": "person",
          "type": "address"
        },
        {
          "internalType": "string",
          "name": "customerIDNum",
          "type": "string"
        },
        {
          "internalType": "string",
          "name": "experationDate",
          "type": "string"
        }
      ],
      "stateMutability": "view",
      "type": "function",
      "constant": true
    },
    {
      "inputs": [
        {
          "internalType": "address",
          "name": "",
          "type": "address"
        }
      ],
      "name": "streetAddress",
      "outputs": [
        {
          "internalType": "address",
          "name": "person",
          "type": "address"
        },
        {
          "internalType": "string",
          "name": "street",
          "type": "string"
        },
        {
          "internalType": "string",
          "name": "state",
          "type": "string"
        },
        {
          "internalType": "string",
          "name": "zipcode",
          "type": "string"
        }
      ],
      "stateMutability": "view",
      "type": "function",
      "constant": true
    },
    {
      "inputs": [
        {
          "internalType": "address",
          "name": "",
          "type": "address"
        }
      ],
      "name": "vital",
      "outputs": [
        {
          "internalType": "string",
          "name": "birthCertificate",
          "type": "string"
        },
        {
          "internalType": "string",
          "name": "deathCertificate",
          "type": "string"
        },
        {
          "internalType": "string",
          "name": "marriageCertificate",
          "type": "string"
        },
        {
          "internalType": "string",
          "name": "divorceCertificate",
          "type": "string"
        },
        {
          "internalType": "address",
          "name": "person",
          "type": "address"
        }
      ],
      "stateMutability": "view",
      "type": "function",
      "constant": true
    },
    {
      "inputs": [
        {
          "internalType": "string",
          "name": "_name",
          "type": "string"
        },
        {
          "internalType": "string",
          "name": "_dob",
          "type": "string"
        },
        {
          "internalType": "string",
          "name": "street",
          "type": "string"
        },
        {
          "internalType": "string",
          "name": "state",
          "type": "string"
        },
        {
          "internalType": "string",
          "name": "zip",
          "type": "string"
        }
      ],
      "name": "uploadInformation",
      "outputs": [],
      "stateMutability": "nonpayable",
      "type": "function"
    },
    {
      "inputs": [],
      "name": "isOwner",
      "outputs": [
        {
          "internalType": "bool",
          "name": "",
          "type": "bool"
        }
      ],
      "stateMutability": "view",
      "type": "function",
      "constant": true
    },
    {
      "inputs": [
        {
          "internalType": "string",
          "name": "_deathCertificate",
          "type": "string"
        },
        {
          "internalType": "string",
          "name": "_marriageCertificate",
          "type": "string"
        },
        {
          "internalType": "string",
          "name": "_divorceCertificate",
          "type": "string"
        },
        {
          "internalType": "string",
          "name": "_license",
          "type": "string"
        },
        {
          "internalType": "string",
          "name": "_exp",
          "type": "string"
        }
      ],
      "name": "uploadVital",
      "outputs": [],
      "stateMutability": "nonpayable",
      "type": "function"
    },
    {
      "inputs": [
        {
          "internalType": "string",
          "name": "number",
          "type": "string"
        },
        {
          "internalType": "string",
          "name": "date",
          "type": "string"
        }
      ],
      "name": "updateLicense",
      "outputs": [],
      "stateMutability": "nonpayable",
      "type": "function"
    },
    {
      "inputs": [
        {
          "internalType": "string",
          "name": "street",
          "type": "string"
        },
        {
          "internalType": "string",
          "name": "state",
          "type": "string"
        },
        {
          "internalType": "string",
          "name": "zip",
          "type": "string"
        }
      ],
      "name": "updateAddress",
      "outputs": [],
      "stateMutability": "nonpayable",
      "type": "function"
    },
    {
      "inputs": [
        {
          "internalType": "address",
          "name": "id",
          "type": "address"
        }
      ],
      "name": "getInfo",
      "outputs": [
        {
          "internalType": "string",
          "name": "",
          "type": "string"
        },
        {
          "internalType": "string",
          "name": "",
          "type": "string"
        }
      ],
      "stateMutability": "view",
      "type": "function",
      "constant": true
    },
    {
      "inputs": [
        {
          "internalType": "address",
          "name": "id",
          "type": "address"
        }
      ],
      "name": "getVital",
      "outputs": [
        {
          "internalType": "string",
          "name": "",
          "type": "string"
        },
        {
          "internalType": "string",
          "name": "",
          "type": "string"
        },
        {
          "internalType": "string",
          "name": "",
          "type": "string"
        },
        {
          "internalType": "string",
          "name": "",
          "type": "string"
        }
      ],
      "stateMutability": "view",
      "type": "function",
      "constant": true
    },
    {
      "inputs": [
        {
          "internalType": "address",
          "name": "id",
          "type": "address"
        }
      ],
      "name": "getLicense",
      "outputs": [
        {
          "internalType": "string",
          "name": "",
          "type": "string"
        },
        {
          "internalType": "string",
          "name": "",
          "type": "string"
        }
      ],
      "stateMutability": "view",
      "type": "function",
      "constant": true
    },
    {
      "inputs": [
        {
          "internalType": "address",
          "name": "id",
          "type": "address"
        }
      ],
      "name": "getAddress",
      "outputs": [
        {
          "internalType": "string",
          "name": "",
          "type": "string"
        },
        {
          "internalType": "string",
          "name": "",
          "type": "string"
        },
        {
          "internalType": "string",
          "name": "",
          "type": "string"
        }
      ],
      "stateMutability": "view",
      "type": "function",
      "constant": true
    }
  ],
  "bytecode": "0x6080604052600060025534801561001557600080fd5b50612705806100256000396000f3fe608060405234801561001057600080fd5b50600436106100f55760003560e01c8063ae22c57d11610097578063d6062e4411610066578063d6062e44146102b9578063ff296eaa146102eb578063ffb60aac14610309578063ffdd5cf114610325576100f5565b8063ae22c57d14610204578063bbbe7d1314610236578063c4b953c114610269578063d21d2f9014610285576100f5565b806347bd29a0116100d357806347bd29a01461016757806368e1e893146101835780638f32d59b146101b4578063a30ab2d0146101d2576100f5565b8063179c3aff146100fa5780632804b2c01461012d578063409898d21461014b575b600080fd5b610114600480360381019061010f9190611d63565b610356565b6040516101249493929190611e38565b60405180910390f35b61013561053e565b6040516101429190611eb3565b60405180910390f35b61016560048036038101906101609190612003565b610564565b005b610181600480360381019061017c919061210a565b610828565b005b61019d60048036038101906101989190611d63565b61098b565b6040516101ab9291906121b1565b60405180910390f35b6101bc610b33565b6040516101c99190612203565b60405180910390f35b6101ec60048036038101906101e79190611d63565b610bcb565b6040516101fb9392919061221e565b60405180910390f35b61021e60048036038101906102199190611d63565b610d25565b60405161022d93929190612263565b60405180910390f35b610250600480360381019061024b9190611d63565b610fa1565b60405161026094939291906122af565b60405180910390f35b610283600480360381019061027e9190612310565b6112ee565b005b61029f600480360381019061029a9190611d63565b61142d565b6040516102b0959493929190612388565b60405180910390f35b6102d360048036038101906102ce9190611d63565b6116a3565b6040516102e29392919061221e565b60405180910390f35b6102f36117fd565b6040516103009190612410565b60405180910390f35b610323600480360381019061031e9190612003565b611803565b005b61033f600480360381019061033a9190611d63565b611aa6565b60405161034d9291906121b1565b60405180910390f35b60086020528060005260406000206000915090508060000160009054906101000a900473ffffffffffffffffffffffffffffffffffffffff169080600101805461039f9061245a565b80601f01602080910402602001604051908101604052809291908181526020018280546103cb9061245a565b80156104185780601f106103ed57610100808354040283529160200191610418565b820191906000526020600020905b8154815290600101906020018083116103fb57829003601f168201915b50505050509080600201805461042d9061245a565b80601f01602080910402602001604051908101604052809291908181526020018280546104599061245a565b80156104a65780601f1061047b576101008083540402835291602001916104a6565b820191906000526020600020905b81548152906001019060200180831161048957829003601f168201915b5050505050908060030180546104bb9061245a565b80601f01602080910402602001604051908101604052809291908181526020018280546104e79061245a565b80156105345780601f1061050957610100808354040283529160200191610534565b820191906000526020600020905b81548152906001019060200180831161051757829003601f168201915b5050505050905084565b600460009054906101000a900473ffffffffffffffffffffffffffffffffffffffff1681565b600073ffffffffffffffffffffffffffffffffffffffff163373ffffffffffffffffffffffffffffffffffffffff16141561059e57600080fd5b6040518060a001604052806040518060600160405280602e81526020016126a2602e913981526020018681526020018581526020018481526020013373ffffffffffffffffffffffffffffffffffffffff16815250600660003373ffffffffffffffffffffffffffffffffffffffff1673ffffffffffffffffffffffffffffffffffffffff168152602001908152602001600020600082015181600001908051906020019061064e929190611c4e565b50602082015181600101908051906020019061066b929190611c4e565b506040820151816002019080519060200190610688929190611c4e565b5060608201518160030190805190602001906106a5929190611c4e565b5060808201518160040160006101000a81548173ffffffffffffffffffffffffffffffffffffffff021916908373ffffffffffffffffffffffffffffffffffffffff16021790555090505060405180606001604052803373ffffffffffffffffffffffffffffffffffffffff16815260200183815260200182815250600760003373ffffffffffffffffffffffffffffffffffffffff1673ffffffffffffffffffffffffffffffffffffffff16815260200190815260200160002060008201518160000160006101000a81548173ffffffffffffffffffffffffffffffffffffffff021916908373ffffffffffffffffffffffffffffffffffffffff16021790555060208201518160010190805190602001906107c3929190611c4e565b5060408201518160020190805190602001906107e0929190611c4e565b509050507f2bd260e38bda2d0c9cc3dbf6e744a2762420314a7125f7481a6a81bb9b0e09e385858533604051610819949392919061255d565b60405180910390a15050505050565b610830610b33565b61086f576040517f08c379a00000000000000000000000000000000000000000000000000000000081526004016108669061263c565b60405180910390fd5b60405180608001604052803373ffffffffffffffffffffffffffffffffffffffff16815260200184815260200183815260200182815250600860003373ffffffffffffffffffffffffffffffffffffffff1673ffffffffffffffffffffffffffffffffffffffff16815260200190815260200160002060008201518160000160006101000a81548173ffffffffffffffffffffffffffffffffffffffff021916908373ffffffffffffffffffffffffffffffffffffffff1602179055506020820151816001019080519060200190610948929190611c4e565b506040820151816002019080519060200190610965929190611c4e565b506060820151816003019080519060200190610982929190611c4e565b50905050505050565b606080600760008473ffffffffffffffffffffffffffffffffffffffff1673ffffffffffffffffffffffffffffffffffffffff168152602001908152602001600020600101600760008573ffffffffffffffffffffffffffffffffffffffff1673ffffffffffffffffffffffffffffffffffffffff168152602001908152602001600020600201818054610a1e9061245a565b80601f0160208091040260200160405190810160405280929190818152602001828054610a4a9061245a565b8015610a975780601f10610a6c57610100808354040283529160200191610a97565b820191906000526020600020905b815481529060010190602001808311610a7a57829003601f168201915b50505050509150808054610aaa9061245a565b80601f0160208091040260200160405190810160405280929190818152602001828054610ad69061245a565b8015610b235780601f10610af857610100808354040283529160200191610b23565b820191906000526020600020905b815481529060010190602001808311610b0657829003601f168201915b5050505050905091509150915091565b6000600560003373ffffffffffffffffffffffffffffffffffffffff1673ffffffffffffffffffffffffffffffffffffffff16815260200190815260200160002060000160009054906101000a900473ffffffffffffffffffffffffffffffffffffffff1673ffffffffffffffffffffffffffffffffffffffff163373ffffffffffffffffffffffffffffffffffffffff1614905090565b60056020528060005260406000206000915090508060000160009054906101000a900473ffffffffffffffffffffffffffffffffffffffff1690806001018054610c149061245a565b80601f0160208091040260200160405190810160405280929190818152602001828054610c409061245a565b8015610c8d5780601f10610c6257610100808354040283529160200191610c8d565b820191906000526020600020905b815481529060010190602001808311610c7057829003601f168201915b505050505090806002018054610ca29061245a565b80601f0160208091040260200160405190810160405280929190818152602001828054610cce9061245a565b8015610d1b5780601f10610cf057610100808354040283529160200191610d1b565b820191906000526020600020905b815481529060010190602001808311610cfe57829003601f168201915b5050505050905083565b6060806060600860008573ffffffffffffffffffffffffffffffffffffffff1673ffffffffffffffffffffffffffffffffffffffff168152602001908152602001600020600101600860008673ffffffffffffffffffffffffffffffffffffffff1673ffffffffffffffffffffffffffffffffffffffff168152602001908152602001600020600201600860008773ffffffffffffffffffffffffffffffffffffffff1673ffffffffffffffffffffffffffffffffffffffff168152602001908152602001600020600301828054610dfc9061245a565b80601f0160208091040260200160405190810160405280929190818152602001828054610e289061245a565b8015610e755780601f10610e4a57610100808354040283529160200191610e75565b820191906000526020600020905b815481529060010190602001808311610e5857829003601f168201915b50505050509250818054610e889061245a565b80601f0160208091040260200160405190810160405280929190818152602001828054610eb49061245a565b8015610f015780601f10610ed657610100808354040283529160200191610f01565b820191906000526020600020905b815481529060010190602001808311610ee457829003601f168201915b50505050509150808054610f149061245a565b80601f0160208091040260200160405190810160405280929190818152602001828054610f409061245a565b8015610f8d5780601f10610f6257610100808354040283529160200191610f8d565b820191906000526020600020905b815481529060010190602001808311610f7057829003601f168201915b505050505090509250925092509193909250565b606080606080600660008673ffffffffffffffffffffffffffffffffffffffff1673ffffffffffffffffffffffffffffffffffffffff168152602001908152602001600020600001600660008773ffffffffffffffffffffffffffffffffffffffff1673ffffffffffffffffffffffffffffffffffffffff168152602001908152602001600020600101600660008873ffffffffffffffffffffffffffffffffffffffff1673ffffffffffffffffffffffffffffffffffffffff168152602001908152602001600020600201600660008973ffffffffffffffffffffffffffffffffffffffff1673ffffffffffffffffffffffffffffffffffffffff1681526020019081526020016000206003018380546110bb9061245a565b80601f01602080910402602001604051908101604052809291908181526020018280546110e79061245a565b80156111345780601f1061110957610100808354040283529160200191611134565b820191906000526020600020905b81548152906001019060200180831161111757829003601f168201915b505050505093508280546111479061245a565b80601f01602080910402602001604051908101604052809291908181526020018280546111739061245a565b80156111c05780601f10611195576101008083540402835291602001916111c0565b820191906000526020600020905b8154815290600101906020018083116111a357829003601f168201915b505050505092508180546111d39061245a565b80601f01602080910402602001604051908101604052809291908181526020018280546111ff9061245a565b801561124c5780601f106112215761010080835404028352916020019161124c565b820191906000526020600020905b81548152906001019060200180831161122f57829003601f168201915b5050505050915080805461125f9061245a565b80601f016020809104026020016040519081016040528092919081815260200182805461128b9061245a565b80156112d85780601f106112ad576101008083540402835291602001916112d8565b820191906000526020600020905b8154815290600101906020018083116112bb57829003601f168201915b5050505050905093509350935093509193509193565b6112f6610b33565b611335576040517f08c379a000000000000000000000000000000000000000000000000000000000815260040161132c9061263c565b60405180910390fd5b60405180606001604052803373ffffffffffffffffffffffffffffffffffffffff16815260200183815260200182815250600760003373ffffffffffffffffffffffffffffffffffffffff1673ffffffffffffffffffffffffffffffffffffffff16815260200190815260200160002060008201518160000160006101000a81548173ffffffffffffffffffffffffffffffffffffffff021916908373ffffffffffffffffffffffffffffffffffffffff1602179055506020820151816001019080519060200190611408929190611c4e565b506040820151816002019080519060200190611425929190611c4e565b509050505050565b60066020528060005260406000206000915090508060000180546114509061245a565b80601f016020809104026020016040519081016040528092919081815260200182805461147c9061245a565b80156114c95780601f1061149e576101008083540402835291602001916114c9565b820191906000526020600020905b8154815290600101906020018083116114ac57829003601f168201915b5050505050908060010180546114de9061245a565b80601f016020809104026020016040519081016040528092919081815260200182805461150a9061245a565b80156115575780601f1061152c57610100808354040283529160200191611557565b820191906000526020600020905b81548152906001019060200180831161153a57829003601f168201915b50505050509080600201805461156c9061245a565b80601f01602080910402602001604051908101604052809291908181526020018280546115989061245a565b80156115e55780601f106115ba576101008083540402835291602001916115e5565b820191906000526020600020905b8154815290600101906020018083116115c857829003601f168201915b5050505050908060030180546115fa9061245a565b80601f01602080910402602001604051908101604052809291908181526020018280546116269061245a565b80156116735780601f1061164857610100808354040283529160200191611673565b820191906000526020600020905b81548152906001019060200180831161165657829003601f168201915b5050505050908060040160009054906101000a900473ffffffffffffffffffffffffffffffffffffffff16905085565b60076020528060005260406000206000915090508060000160009054906101000a900473ffffffffffffffffffffffffffffffffffffffff16908060010180546116ec9061245a565b80601f01602080910402602001604051908101604052809291908181526020018280546117189061245a565b80156117655780601f1061173a57610100808354040283529160200191611765565b820191906000526020600020905b81548152906001019060200180831161174857829003601f168201915b50505050509080600201805461177a9061245a565b80601f01602080910402602001604051908101604052809291908181526020018280546117a69061245a565b80156117f35780601f106117c8576101008083540402835291602001916117f3565b820191906000526020600020905b8154815290600101906020018083116117d657829003601f168201915b5050505050905083565b60025481565b600085511161181157600080fd5b600084511161181f57600080fd5b600073ffffffffffffffffffffffffffffffffffffffff163373ffffffffffffffffffffffffffffffffffffffff16141561185957600080fd5b60405180606001604052803373ffffffffffffffffffffffffffffffffffffffff16815260200186815260200185815250600560003373ffffffffffffffffffffffffffffffffffffffff1673ffffffffffffffffffffffffffffffffffffffff16815260200190815260200160002060008201518160000160006101000a81548173ffffffffffffffffffffffffffffffffffffffff021916908373ffffffffffffffffffffffffffffffffffffffff160217905550602082015181600101908051906020019061192c929190611c4e565b506040820151816002019080519060200190611949929190611c4e565b5090505060405180608001604052803373ffffffffffffffffffffffffffffffffffffffff16815260200184815260200183815260200182815250600860003373ffffffffffffffffffffffffffffffffffffffff1673ffffffffffffffffffffffffffffffffffffffff16815260200190815260200160002060008201518160000160006101000a81548173ffffffffffffffffffffffffffffffffffffffff021916908373ffffffffffffffffffffffffffffffffffffffff1602179055506020820151816001019080519060200190611a26929190611c4e565b506040820151816002019080519060200190611a43929190611c4e565b506060820151816003019080519060200190611a60929190611c4e565b509050507fa50c63ff1d69ffd8f5a74a221308a5478d527197f848ac41aaa0fa28b8113b9f338686604051611a979392919061265c565b60405180910390a15050505050565b606080600560008473ffffffffffffffffffffffffffffffffffffffff1673ffffffffffffffffffffffffffffffffffffffff168152602001908152602001600020600101600560008573ffffffffffffffffffffffffffffffffffffffff1673ffffffffffffffffffffffffffffffffffffffff168152602001908152602001600020600201818054611b399061245a565b80601f0160208091040260200160405190810160405280929190818152602001828054611b659061245a565b8015611bb25780601f10611b8757610100808354040283529160200191611bb2565b820191906000526020600020905b815481529060010190602001808311611b9557829003601f168201915b50505050509150808054611bc59061245a565b80601f0160208091040260200160405190810160405280929190818152602001828054611bf19061245a565b8015611c3e5780601f10611c1357610100808354040283529160200191611c3e565b820191906000526020600020905b815481529060010190602001808311611c2157829003601f168201915b5050505050905091509150915091565b828054611c5a9061245a565b90600052602060002090601f016020900481019282611c7c5760008555611cc3565b82601f10611c9557805160ff1916838001178555611cc3565b82800160010185558215611cc3579182015b82811115611cc2578251825591602001919060010190611ca7565b5b509050611cd09190611cd4565b5090565b5b80821115611ced576000816000905550600101611cd5565b5090565b6000604051905090565b600080fd5b600080fd5b600073ffffffffffffffffffffffffffffffffffffffff82169050919050565b6000611d3082611d05565b9050919050565b611d4081611d25565b8114611d4b57600080fd5b50565b600081359050611d5d81611d37565b92915050565b600060208284031215611d7957611d78611cfb565b5b6000611d8784828501611d4e565b91505092915050565b611d9981611d25565b82525050565b600081519050919050565b600082825260208201905092915050565b60005b83811015611dd9578082015181840152602081019050611dbe565b83811115611de8576000848401525b50505050565b6000601f19601f8301169050919050565b6000611e0a82611d9f565b611e148185611daa565b9350611e24818560208601611dbb565b611e2d81611dee565b840191505092915050565b6000608082019050611e4d6000830187611d90565b8181036020830152611e5f8186611dff565b90508181036040830152611e738185611dff565b90508181036060830152611e878184611dff565b905095945050505050565b6000611e9d82611d05565b9050919050565b611ead81611e92565b82525050565b6000602082019050611ec86000830184611ea4565b92915050565b600080fd5b600080fd5b7f4e487b7100000000000000000000000000000000000000000000000000000000600052604160045260246000fd5b611f1082611dee565b810181811067ffffffffffffffff82111715611f2f57611f2e611ed8565b5b80604052505050565b6000611f42611cf1565b9050611f4e8282611f07565b919050565b600067ffffffffffffffff821115611f6e57611f6d611ed8565b5b611f7782611dee565b9050602081019050919050565b82818337600083830152505050565b6000611fa6611fa184611f53565b611f38565b905082815260208101848484011115611fc257611fc1611ed3565b5b611fcd848285611f84565b509392505050565b600082601f830112611fea57611fe9611ece565b5b8135611ffa848260208601611f93565b91505092915050565b600080600080600060a0868803121561201f5761201e611cfb565b5b600086013567ffffffffffffffff81111561203d5761203c611d00565b5b61204988828901611fd5565b955050602086013567ffffffffffffffff81111561206a57612069611d00565b5b61207688828901611fd5565b945050604086013567ffffffffffffffff81111561209757612096611d00565b5b6120a388828901611fd5565b935050606086013567ffffffffffffffff8111156120c4576120c3611d00565b5b6120d088828901611fd5565b925050608086013567ffffffffffffffff8111156120f1576120f0611d00565b5b6120fd88828901611fd5565b9150509295509295909350565b60008060006060848603121561212357612122611cfb565b5b600084013567ffffffffffffffff81111561214157612140611d00565b5b61214d86828701611fd5565b935050602084013567ffffffffffffffff81111561216e5761216d611d00565b5b61217a86828701611fd5565b925050604084013567ffffffffffffffff81111561219b5761219a611d00565b5b6121a786828701611fd5565b9150509250925092565b600060408201905081810360008301526121cb8185611dff565b905081810360208301526121df8184611dff565b90509392505050565b60008115159050919050565b6121fd816121e8565b82525050565b600060208201905061221860008301846121f4565b92915050565b60006060820190506122336000830186611d90565b81810360208301526122458185611dff565b905081810360408301526122598184611dff565b9050949350505050565b6000606082019050818103600083015261227d8186611dff565b905081810360208301526122918185611dff565b905081810360408301526122a58184611dff565b9050949350505050565b600060808201905081810360008301526122c98187611dff565b905081810360208301526122dd8186611dff565b905081810360408301526122f18185611dff565b905081810360608301526123058184611dff565b905095945050505050565b6000806040838503121561232757612326611cfb565b5b600083013567ffffffffffffffff81111561234557612344611d00565b5b61235185828601611fd5565b925050602083013567ffffffffffffffff81111561237257612371611d00565b5b61237e85828601611fd5565b9150509250929050565b600060a08201905081810360008301526123a28188611dff565b905081810360208301526123b68187611dff565b905081810360408301526123ca8186611dff565b905081810360608301526123de8185611dff565b90506123ed6080830184611d90565b9695505050505050565b6000819050919050565b61240a816123f7565b82525050565b60006020820190506124256000830184612401565b92915050565b7f4e487b7100000000000000000000000000000000000000000000000000000000600052602260045260246000fd5b6000600282049050600182168061247257607f821691505b602082108114156124865761248561242b565b5b50919050565b7f516d4e57526753754a443367677974555864425134654e59713469587658484460008201527f4a5a57714a64476d76513979654a000000000000000000000000000000000000602082015250565b60006124e8602e83611daa565b91506124f38261248c565b604082019050919050565b6000819050919050565b600061252361251e61251984611d05565b6124fe565b611d05565b9050919050565b600061253582612508565b9050919050565b60006125478261252a565b9050919050565b6125578161253c565b82525050565b600060a0820190508181036000830152612576816124db565b9050818103602083015261258a8187611dff565b9050818103604083015261259e8186611dff565b905081810360608301526125b28185611dff565b90506125c1608083018461254e565b95945050505050565b7f46756e6374696f6e2061636365737369626c65206f6e6c79206279207468652060008201527f6f776e6572202121000000000000000000000000000000000000000000000000602082015250565b6000612626602883611daa565b9150612631826125ca565b604082019050919050565b6000602082019050818103600083015261265581612619565b9050919050565b6000606082019050612671600083018661254e565b81810360208301526126838185611dff565b905081810360408301526126978184611dff565b905094935050505056fe516d4e57526753754a443367677974555864425134654e5971346958765848444a5a57714a64476d76513979654aa26469706673582212209fb141fd6ac98bd2d6c5a28d1081e0a5b46af6c7645cbeb3460d943a0328bae464736f6c63430008090033",
  "immutableReferences": {},
  "source": "// SPDX-License-Identifier: MIT\r\n\r\npragma solidity ^0.8.9;\r\n\r\ncontract ServiceInfo {\r\n    // In units of wei\r\n    address[] peeps;\r\n    uint256 price;\r\n    uint256 public infoCount = 0;\r\n    uint256 num_services;\r\n    address payable public customer;\r\n    mapping(address => Information) public information;\r\n    mapping(address => Vital) public vital;\r\n    mapping(address => License) public license;\r\n    mapping(address => Address) public streetAddress;\r\n\r\n\r\n\r\n    struct Information {\r\n        address person;\r\n        string name;\r\n        string dob;\r\n    }\r\n\r\n    struct Address {\r\n        address person;\r\n        string street;\r\n        string state;\r\n        string zipcode;\r\n    }\r\n\r\n    struct License {\r\n        address person;\r\n        string customerIDNum;\r\n        string experationDate;\r\n    }\r\n\r\n    struct Vital {\r\n        string birthCertificate;\r\n        string deathCertificate;\r\n        string marriageCertificate;\r\n        string divorceCertificate;\r\n        address person;\r\n    }\r\n\r\n    //\r\n    event InformationAdded(address person, string name, string dob);\r\n\r\n    event AddressAdded(\r\n        address payable person,\r\n        string street,\r\n        string state,\r\n        string zipcode\r\n    );\r\n\r\n    event VitalAdded(\r\n        string birthCertificate,\r\n        string deathCertificate,\r\n        string marriageCertificate,\r\n        string divorceCertificate,\r\n        address person\r\n    );\r\n\r\n    function stringsEquals(string memory s1, string memory s2)\r\n        private\r\n        pure\r\n        returns (bool)\r\n    {\r\n        bytes memory b1 = bytes(s1);\r\n        bytes memory b2 = bytes(s2);\r\n        uint256 l1 = b1.length;\r\n        if (l1 != b2.length) return false;\r\n        for (uint256 i = 0; i < l1; i++) {\r\n            if (b1[i] != b2[i]) return false;\r\n        }\r\n        return true;\r\n    }\r\n\r\n    function uploadInformation(string memory _name, string memory _dob, string memory street, string memory state, string memory zip) public {\r\n        require(bytes(_name).length > 0);\r\n        require(bytes(_dob).length > 0);\r\n        require(msg.sender != address(0));\r\n        //require(!stringsEquals(information[msg.sender].name, \"none\"));\r\n        //peeps.push(msg.sender);\r\n        information[msg.sender] = Information(msg.sender, _name, _dob);\r\n        streetAddress[msg.sender] = Address(msg.sender, street, state, zip);\r\n        emit InformationAdded(payable(msg.sender), _name, _dob);\r\n    }\r\n\r\n    function isOwner() public view returns (bool) {\r\n        \r\n        return msg.sender == information[msg.sender].person;\r\n    }\r\n\r\n    modifier onlyOwner() {\r\n        require(isOwner(), \"Function accessible only by the owner !!\");\r\n        _;\r\n    }\r\n\r\n    function uploadVital(\r\n        string memory _deathCertificate,\r\n        string memory _marriageCertificate,\r\n        string memory _divorceCertificate,\r\n        string memory _license,\r\n        string memory _exp\r\n    ) public {\r\n\r\n        require(msg.sender != address(0));\r\n        \r\n        vital[msg.sender] = Vital(\r\n            \"QmNWRgSuJD3ggytUXdBQ4eNYq4iXvXHDJZWqJdGmvQ9yeJ\",\r\n            _deathCertificate,\r\n            _marriageCertificate,\r\n            _divorceCertificate,\r\n            payable(msg.sender)\r\n        );\r\n\r\n        license[msg.sender] = License(msg.sender, _license, _exp);\r\n\r\n        emit VitalAdded(\r\n            \"QmNWRgSuJD3ggytUXdBQ4eNYq4iXvXHDJZWqJdGmvQ9yeJ\",\r\n            _deathCertificate,\r\n            _marriageCertificate,\r\n            _divorceCertificate,\r\n            payable(msg.sender)\r\n        );\r\n    }\r\n\r\n    function updateLicense(string memory number, string memory date) public onlyOwner{\r\n        license[msg.sender]=License(msg.sender, number, date);\r\n    }\r\n    function updateAddress(string memory street, string memory state, string memory zip) public onlyOwner{\r\n        streetAddress[msg.sender]=Address(msg.sender, street, state, zip);\r\n    }\r\n\r\n    function getInfo(address id) public view returns(string memory, string memory){\r\n        return(information[id].name, information[id].dob);\r\n    }\r\n    function getVital(address id) public view returns(string memory, string memory, string memory, string memory){\r\n        return(vital[id].birthCertificate, vital[id].deathCertificate, vital[id].marriageCertificate, vital[id].divorceCertificate);\r\n    }\r\n    function getLicense(address id) public view returns(string memory, string memory){\r\n        return(license[id].customerIDNum, license[id].experationDate);\r\n    }\r\n    function getAddress(address id) public view returns(string memory, string memory, string memory){\r\n        return(streetAddress[id].street, streetAddress[id].state, streetAddress[id].zipcode);\r\n    }\r\n}\r\n\r\n",
  "sourcePath": "C:\\Users\\ryhil\\OneDrive\\Documents\\ODUCS\\CS764\\dmv_blockchain\\tiny-dapp\\contracts\\ServiceInfo.sol",
  "compiler": {
    "name": "solc",
    "version": "0.8.9+commit.e5eed63a.Emscripten.clang"
  },
  "schemaVersion": "3.4.7",
  "updatedAt": "2022-05-02T14:38:43.968Z",
  "networkType": "ethereum",
  "devdoc": {
    "kind": "dev",
    "methods": {},
    "version": 1
  },
  "userdoc": {
    "kind": "user",
    "methods": {},
    "version": 1
  }
}