{
  "contractName": "Service",
  "abi": [
    {
      "inputs": [],
      "stateMutability": "nonpayable",
      "type": "constructor"
    },
    {
      "inputs": [],
      "name": "customer",
      "outputs": [
        {
          "internalType": "address payable",
          "name": "",
          "type": "address"
        }
      ],
      "stateMutability": "view",
      "type": "function",
      "constant": true
    },
    {
      "inputs": [
        {
          "internalType": "address",
          "name": "",
          "type": "address"
        }
      ],
      "name": "orders",
      "outputs": [
        {
          "internalType": "uint256",
          "name": "wallet_bal",
          "type": "uint256"
        },
        {
          "internalType": "uint256",
          "name": "order_count",
          "type": "uint256"
        }
      ],
      "stateMutability": "view",
      "type": "function",
      "constant": true
    },
    {
      "inputs": [
        {
          "internalType": "uint256",
          "name": "",
          "type": "uint256"
        }
      ],
      "name": "services",
      "outputs": [
        {
          "internalType": "uint256",
          "name": "id",
          "type": "uint256"
        },
        {
          "internalType": "string",
          "name": "name",
          "type": "string"
        },
        {
          "internalType": "uint256",
          "name": "cost",
          "type": "uint256"
        },
        {
          "internalType": "uint256",
          "name": "times_ordered",
          "type": "uint256"
        }
      ],
      "stateMutability": "view",
      "type": "function",
      "constant": true
    },
    {
      "inputs": [],
      "name": "get_price",
      "outputs": [
        {
          "internalType": "uint256",
          "name": "",
          "type": "uint256"
        }
      ],
      "stateMutability": "view",
      "type": "function",
      "constant": true
    },
    {
      "inputs": [
        {
          "internalType": "uint256",
          "name": "_price",
          "type": "uint256"
        }
      ],
      "name": "set_price",
      "outputs": [],
      "stateMutability": "nonpayable",
      "type": "function"
    },
    {
      "inputs": [],
      "name": "deposit",
      "outputs": [
        {
          "internalType": "uint256",
          "name": "",
          "type": "uint256"
        },
        {
          "internalType": "uint256",
          "name": "",
          "type": "uint256"
        }
      ],
      "stateMutability": "payable",
      "type": "function",
      "payable": true
    },
    {
      "inputs": [
        {
          "internalType": "uint256",
          "name": "_serviceID",
          "type": "uint256"
        },
        {
          "internalType": "uint256",
          "name": "_count",
          "type": "uint256"
        }
      ],
      "name": "customer_selection",
      "outputs": [
        {
          "internalType": "bool",
          "name": "",
          "type": "bool"
        }
      ],
      "stateMutability": "payable",
      "type": "function",
      "payable": true
    },
    {
      "inputs": [],
      "name": "return_overpay",
      "outputs": [],
      "stateMutability": "payable",
      "type": "function",
      "payable": true
    }
  ],
  "bytecode": "0x60806040523480156200001157600080fd5b5064174876e80060008190555060006001819055506200006c6040518060400160405280601c81526020017f56656869636c6520526567697374726174696f6e2052656e6577616c00000000815250620002e860201b60201c565b620000b26040518060400160405280600e81526020017f41646472657373204368616e6765000000000000000000000000000000000000815250620002e860201b60201c565b620000f86040518060400160405280601881526020017f4472697665722773204c6963656e73652052656e6577616c0000000000000000815250620002e860201b60201c565b6200013e6040518060400160405280601881526020017f5570646174652056656869636c65204f776e6572736869700000000000000000815250620002e860201b60201c565b620001846040518060400160405280600e81526020017f5072616374696365204578616d73000000000000000000000000000000000000815250620002e860201b60201c565b620001ca6040518060400160405280600781526020017f5265616c20494400000000000000000000000000000000000000000000000000815250620002e860201b60201c565b620002106040518060400160405280601c81526020017f4170706c7920666f722061204472697665722773204c6963656e736500000000815250620002e860201b60201c565b620002566040518060400160405280601381526020017f4d65646963616c20496e666f726d6174696f6e00000000000000000000000000815250620002e860201b60201c565b6200029c6040518060400160405280601781526020017f53656c6c202f20446f6e61746520612056656869636c65000000000000000000815250620002e860201b60201c565b620002e26040518060400160405280601b81526020017f5469746c6520612056656869636c6520696e2056697267696e69610000000000815250620002e860201b60201c565b6200051c565b60016000815480929190620002fd9062000469565b919050555060405180608001604052806001548152602001828152602001600054815260200160008152506003600060015481526020019081526020016000206000820151816000015560208201518160010190805190602001906200036592919062000380565b50604082015181600201556060820151816003015590505050565b8280546200038e90620004e6565b90600052602060002090601f016020900481019282620003b25760008555620003fe565b82601f10620003cd57805160ff1916838001178555620003fe565b82800160010185558215620003fe579182015b82811115620003fd578251825591602001919060010190620003e0565b5b5090506200040d919062000411565b5090565b5b808211156200042c57600081600090555060010162000412565b5090565b7f4e487b7100000000000000000000000000000000000000000000000000000000600052601160045260246000fd5b6000819050919050565b600062000476826200045f565b91507fffffffffffffffffffffffffffffffffffffffffffffffffffffffffffffffff821415620004ac57620004ab62000430565b5b600182019050919050565b7f4e487b7100000000000000000000000000000000000000000000000000000000600052602260045260246000fd5b60006002820490506001821680620004ff57607f821691505b60208210811415620005165762000515620004b7565b5b50919050565b611013806200052c6000396000f3fe60806040526004361061007b5760003560e01c8063888de2ba1161004e578063888de2ba14610109578063c22c4f4314610139578063d0e30db014610179578063f40e8471146101985761007b565b806311f37ceb146100805780632804b2c0146100ab57806328bf794d146100d657806384c5588e146100ff575b600080fd5b34801561008c57600080fd5b506100956101d6565b6040516100a2919061093a565b60405180910390f35b3480156100b757600080fd5b506100c06101df565b6040516100cd9190610996565b60405180910390f35b3480156100e257600080fd5b506100fd60048036038101906100f891906109e2565b610205565b005b610107610217565b005b610123600480360381019061011e9190610a0f565b610438565b6040516101309190610a6a565b60405180910390f35b34801561014557600080fd5b50610160600480360381019061015b91906109e2565b610615565b6040516101709493929190610b1e565b60405180910390f35b6101816106cd565b60405161018f929190610b6a565b60405180910390f35b3480156101a457600080fd5b506101bf60048036038101906101ba9190610bd1565b61083f565b6040516101cd929190610b6a565b60405180910390f35b60008054905090565b600260009054906101000a900473ffffffffffffffffffffffffffffffffffffffff1681565b80600081905550610214610863565b50565b33600260006101000a81548173ffffffffffffffffffffffffffffffffffffffff021916908373ffffffffffffffffffffffffffffffffffffffff160217905550600060046000600260009054906101000a900473ffffffffffffffffffffffffffffffffffffffff1673ffffffffffffffffffffffffffffffffffffffff1673ffffffffffffffffffffffffffffffffffffffff16815260200190815260200160002060000154116102ff576040517f08c379a00000000000000000000000000000000000000000000000000000000081526004016102f690610c4a565b60405180910390fd5b600260009054906101000a900473ffffffffffffffffffffffffffffffffffffffff1673ffffffffffffffffffffffffffffffffffffffff166108fc60046000600260009054906101000a900473ffffffffffffffffffffffffffffffffffffffff1673ffffffffffffffffffffffffffffffffffffffff1673ffffffffffffffffffffffffffffffffffffffff168152602001908152602001600020600001549081150290604051600060405180830381858888f193505050501580156103cb573d6000803e3d6000fd5b50600060046000600260009054906101000a900473ffffffffffffffffffffffffffffffffffffffff1673ffffffffffffffffffffffffffffffffffffffff1673ffffffffffffffffffffffffffffffffffffffff16815260200190815260200160002060000181905550565b600033600260006101000a81548173ffffffffffffffffffffffffffffffffffffffff021916908373ffffffffffffffffffffffffffffffffffffffff160217905550600060036000858152602001908152602001600020600201548361049f9190610c99565b90508060046000600260009054906101000a900473ffffffffffffffffffffffffffffffffffffffff1673ffffffffffffffffffffffffffffffffffffffff1673ffffffffffffffffffffffffffffffffffffffff168152602001908152602001600020600001541015610548576040517f08c379a000000000000000000000000000000000000000000000000000000000815260040161053f90610d65565b60405180910390fd5b600084118015610559575060015484105b610598576040517f08c379a000000000000000000000000000000000000000000000000000000000815260040161058f90610dd1565b60405180910390fd5b8260046000600260009054906101000a900473ffffffffffffffffffffffffffffffffffffffff1673ffffffffffffffffffffffffffffffffffffffff1673ffffffffffffffffffffffffffffffffffffffff1681526020019081526020016000206001018190555061060a816108a3565b600191505092915050565b600360205280600052604060002060009150905080600001549080600101805461063e90610e20565b80601f016020809104026020016040519081016040528092919081815260200182805461066a90610e20565b80156106b75780601f1061068c576101008083540402835291602001916106b7565b820191906000526020600020905b81548152906001019060200180831161069a57829003601f168201915b5050505050908060020154908060030154905084565b600080600054341015610715576040517f08c379a000000000000000000000000000000000000000000000000000000000815260040161070c90610eea565b60405180910390fd5b33600260006101000a81548173ffffffffffffffffffffffffffffffffffffffff021916908373ffffffffffffffffffffffffffffffffffffffff1602179055503460046000600260009054906101000a900473ffffffffffffffffffffffffffffffffffffffff1673ffffffffffffffffffffffffffffffffffffffff1673ffffffffffffffffffffffffffffffffffffffff16815260200190815260200160002060000160008282546107ca9190610f0a565b925050819055504760046000600260009054906101000a900473ffffffffffffffffffffffffffffffffffffffff1673ffffffffffffffffffffffffffffffffffffffff1673ffffffffffffffffffffffffffffffffffffffff16815260200190815260200160002060000154915091509091565b60046020528060005260406000206000915090508060000154908060010154905082565b60005b6001548110156108a0576000546003600083815260200190815260200160002060020181905550808061089890610f60565b915050610866565b50565b8060046000600260009054906101000a900473ffffffffffffffffffffffffffffffffffffffff1673ffffffffffffffffffffffffffffffffffffffff1673ffffffffffffffffffffffffffffffffffffffff16815260200190815260200160002060000160008282546109179190610fa9565b9250508190555050565b6000819050919050565b61093481610921565b82525050565b600060208201905061094f600083018461092b565b92915050565b600073ffffffffffffffffffffffffffffffffffffffff82169050919050565b600061098082610955565b9050919050565b61099081610975565b82525050565b60006020820190506109ab6000830184610987565b92915050565b600080fd5b6109bf81610921565b81146109ca57600080fd5b50565b6000813590506109dc816109b6565b92915050565b6000602082840312156109f8576109f76109b1565b5b6000610a06848285016109cd565b91505092915050565b60008060408385031215610a2657610a256109b1565b5b6000610a34858286016109cd565b9250506020610a45858286016109cd565b9150509250929050565b60008115159050919050565b610a6481610a4f565b82525050565b6000602082019050610a7f6000830184610a5b565b92915050565b600081519050919050565b600082825260208201905092915050565b60005b83811015610abf578082015181840152602081019050610aa4565b83811115610ace576000848401525b50505050565b6000601f19601f8301169050919050565b6000610af082610a85565b610afa8185610a90565b9350610b0a818560208601610aa1565b610b1381610ad4565b840191505092915050565b6000608082019050610b33600083018761092b565b8181036020830152610b458186610ae5565b9050610b54604083018561092b565b610b61606083018461092b565b95945050505050565b6000604082019050610b7f600083018561092b565b610b8c602083018461092b565b9392505050565b6000610b9e82610955565b9050919050565b610bae81610b93565b8114610bb957600080fd5b50565b600081359050610bcb81610ba5565b92915050565b600060208284031215610be757610be66109b1565b5b6000610bf584828501610bbc565b91505092915050565b7f4572726f723a204e6f2066756e647320746f2072657475726e00000000000000600082015250565b6000610c34601983610a90565b9150610c3f82610bfe565b602082019050919050565b60006020820190508181036000830152610c6381610c27565b9050919050565b7f4e487b7100000000000000000000000000000000000000000000000000000000600052601160045260246000fd5b6000610ca482610921565b9150610caf83610921565b9250817fffffffffffffffffffffffffffffffffffffffffffffffffffffffffffffffff0483118215151615610ce857610ce7610c6a565b5b828202905092915050565b7f4572726f723a20496e73756666696369656e742066756e64732e20506c65617360008201527f6520636865636b2074686520636f7374206f6620746865207365727669636500602082015250565b6000610d4f603f83610a90565b9150610d5a82610cf3565b604082019050919050565b60006020820190508181036000830152610d7e81610d42565b9050919050565b7f4572726f723a20496e76616c69642073656c656374696f6e0000000000000000600082015250565b6000610dbb601883610a90565b9150610dc682610d85565b602082019050919050565b60006020820190508181036000830152610dea81610dae565b9050919050565b7f4e487b7100000000000000000000000000000000000000000000000000000000600052602260045260246000fd5b60006002820490506001821680610e3857607f821691505b60208210811415610e4c57610e4b610df1565b5b50919050565b7f4572726f723a20496e73756666696369656e742066756e6473206465706f736960008201527f7465642e20506c6561736520636865636b2074686520636f7374206f6620746860208201527f6520736572766963650000000000000000000000000000000000000000000000604082015250565b6000610ed4604983610a90565b9150610edf82610e52565b606082019050919050565b60006020820190508181036000830152610f0381610ec7565b9050919050565b6000610f1582610921565b9150610f2083610921565b9250827fffffffffffffffffffffffffffffffffffffffffffffffffffffffffffffffff03821115610f5557610f54610c6a565b5b828201905092915050565b6000610f6b82610921565b91507fffffffffffffffffffffffffffffffffffffffffffffffffffffffffffffffff821415610f9e57610f9d610c6a565b5b600182019050919050565b6000610fb482610921565b9150610fbf83610921565b925082821015610fd257610fd1610c6a565b5b82820390509291505056fea2646970667358221220ef32c7fa4d04d7ecc1a55a2167a9ef8c936face536fc694c942ee4e882b50e4264736f6c63430008090033",
  "immutableReferences": {},
  "source": "// SPDX-License-Identifier: MIT\r\n\r\npragma solidity ^0.8.9;\r\n\r\ncontract Service {\r\n\r\n    // In units of wei\r\n    uint256 price;\r\n\r\n    uint num_services;\r\n    address payable public customer;\r\n\r\n    constructor() {\r\n\r\n        price = 100000000000;   // 100,000,000,000 Wei (100 Gwei)\r\n        num_services = 0;\r\n\r\n        // Online Services\r\n        add_service(\"Vehicle Registration Renewal\");\r\n        add_service(\"Address Change\");\r\n        add_service(\"Driver's License Renewal\");\r\n        add_service(\"Update Vehicle Ownership\");\r\n\r\n        // Driver / ID services\r\n        add_service(\"Practice Exams\");\r\n        add_service(\"Real ID\");\r\n        add_service(\"Apply for a Driver's License\");\r\n        add_service(\"Medical Information\");\r\n\r\n        // Vehicle services\r\n        add_service(\"Sell / Donate a Vehicle\");\r\n        add_service(\"Title a Vehicle in Virginia\");\r\n    }\r\n\r\n\r\n    struct Services {\r\n\r\n        uint id;\r\n        string name;\r\n        uint256 cost;\r\n        uint times_ordered;\r\n    }\r\n\r\n\r\n    struct Orders {\r\n\r\n        uint256 wallet_bal;\r\n        uint order_count;\r\n    }\r\n\r\n    // Maps services to IDs (i.e. 1 => \"Permit test\")\r\n    mapping(uint => Services) public services;\r\n    mapping(address => Orders) public orders;\r\n\r\n    function add_service(string memory _name) private {\r\n\r\n        num_services++;\r\n        services[num_services] = Services(num_services, _name, price, 0);\r\n    }\r\n\r\n\r\n    function get_price() public view returns (uint256) {\r\n\r\n        return price;\r\n    }\r\n\r\n\r\n    function set_price(uint256 _price) public {\r\n\r\n        price = _price;\r\n        set_service_cost();\r\n    }\r\n\r\n\r\n    function set_service_cost() private {\r\n\r\n        for (uint i = 0; i < num_services; i++) {\r\n\r\n            services[i].cost = price;\r\n        }\r\n    }\r\n\r\n\r\n    // Function allows for the customer to deposit funds into the contract\r\n    function deposit() public payable returns (uint256, uint256) {\r\n\r\n        require(\r\n            msg.value >= price,\r\n            \"Error: Insufficient funds deposited. Please check the cost of the service\"\r\n        );\r\n\r\n        customer = payable(msg.sender);\r\n        orders[customer].wallet_bal += msg.value;\r\n\r\n        return (address(this).balance, orders[customer].wallet_bal);\r\n    }\r\n\r\n\r\n    // User payment\r\n    function make_payment(uint256 _total_cost) private {\r\n\r\n        orders[customer].wallet_bal -= _total_cost;\r\n    }\r\n\r\n\r\n    function customer_selection(uint _serviceID, uint _count) public payable returns (bool) {\r\n\r\n        customer = payable(msg.sender);\r\n        uint256 total_cost = _count * services[_serviceID].cost;\r\n\r\n        // Ensure the customer can afford to make the purchase\r\n        require(\r\n            orders[customer].wallet_bal >= total_cost,\r\n            \"Error: Insufficient funds. Please check the cost of the service\"\r\n        );\r\n\r\n        require(\r\n            (_serviceID > 0 && _serviceID < num_services),\r\n            \"Error: Invalid selection\"\r\n        );\r\n\r\n        orders[customer].order_count = _count;\r\n        make_payment(total_cost);\r\n\r\n        return true;\r\n    }\r\n\r\n\r\n    function return_overpay() public payable {\r\n\r\n        customer = payable(msg.sender);\r\n\r\n        require(\r\n            orders[customer].wallet_bal > 0,\r\n            \"Error: No funds to return\"\r\n        );\r\n\r\n        customer.transfer(orders[customer].wallet_bal);\r\n        orders[customer].wallet_bal = 0;\r\n    }\r\n}\r\n",
  "sourcePath": "C:\\Users\\ryhil\\OneDrive\\Documents\\ODUCS\\CS764\\dmv_blockchain\\tiny-dapp\\contracts\\Service.sol",
  "compiler": {
    "name": "solc",
    "version": "0.8.9+commit.e5eed63a.Emscripten.clang"
  },
  "schemaVersion": "3.4.7",
  "updatedAt": "2022-05-01T14:58:47.169Z",
  "networkType": "ethereum",
  "devdoc": {
    "kind": "dev",
    "methods": {},
    "version": 1
  },
  "userdoc": {
    "kind": "user",
    "methods": {},
    "version": 1
  }
}