{
  "contractName": "User",
  "abi": [
    {
      "inputs": [],
      "stateMutability": "nonpayable",
      "type": "constructor"
    },
    {
      "inputs": [],
      "name": "getOwner",
      "outputs": [
        {
          "internalType": "address",
          "name": "",
          "type": "address"
        }
      ],
      "stateMutability": "view",
      "type": "function",
      "constant": true
    },
    {
      "inputs": [],
      "name": "getBalance",
      "outputs": [
        {
          "internalType": "uint256",
          "name": "",
          "type": "uint256"
        }
      ],
      "stateMutability": "view",
      "type": "function",
      "constant": true
    }
  ],
  "bytecode": "0x608060405234801561001057600080fd5b50336000806101000a81548173ffffffffffffffffffffffffffffffffffffffff021916908373ffffffffffffffffffffffffffffffffffffffff1602179055506101a6806100606000396000f3fe608060405234801561001057600080fd5b50600436106100365760003560e01c806312065fe01461003b578063893d20e814610059575b600080fd5b610043610077565b60405161005091906100f9565b60405180910390f35b6100616100b7565b60405161006e9190610155565b60405180910390f35b60008060009054906101000a900473ffffffffffffffffffffffffffffffffffffffff1673ffffffffffffffffffffffffffffffffffffffff1631905090565b60008060009054906101000a900473ffffffffffffffffffffffffffffffffffffffff16905090565b6000819050919050565b6100f3816100e0565b82525050565b600060208201905061010e60008301846100ea565b92915050565b600073ffffffffffffffffffffffffffffffffffffffff82169050919050565b600061013f82610114565b9050919050565b61014f81610134565b82525050565b600060208201905061016a6000830184610146565b9291505056fea2646970667358221220bddedb74348702c1a7a05a1ab3588845d84eceaf742b793eacf911864c51a8ff64736f6c63430008090033",
  "immutableReferences": {},
  "source": "// SPDX-License-Identifier: MIT\n\npragma solidity ^0.8.9;\n\ncontract User {\n\n   // Private state variable\n    address private owner;\n  \n    // Defining a constructor   \n    constructor() public{   \n        owner=msg.sender;\n    }\n  \n    // Function to get \n    // address of owner\n    function getOwner(\n    ) public view returns (address) {    \n        return owner;\n    }\n  \n    // Function to return \n    // current balance of owner\n    function getBalance(\n    ) public view returns(uint256){\n        return owner.balance;\n    }\n}\n",
  "sourcePath": "/home/alex/Documents/dmv_blockchain/tiny-dapp/contracts/Users.sol",
  "compiler": {
    "name": "solc",
    "version": "0.8.9+commit.e5eed63a.Emscripten.clang"
  },
  "schemaVersion": "3.4.6",
  "updatedAt": "2022-04-29T22:53:39.738Z",
  "networkType": "ethereum",
  "devdoc": {
    "kind": "dev",
    "methods": {},
    "version": 1
  },
  "userdoc": {
    "kind": "user",
    "methods": {},
    "version": 1
  }
}