{
  "contractName": "User",
  "abi": [
    {
      "inputs": [],
      "stateMutability": "nonpayable",
      "type": "constructor"
    },
    {
      "inputs": [],
      "name": "getOwner",
      "outputs": [
        {
          "internalType": "address",
          "name": "",
          "type": "address"
        }
      ],
      "stateMutability": "view",
      "type": "function",
      "constant": true
    },
    {
      "inputs": [],
      "name": "getBalance",
      "outputs": [
        {
          "internalType": "uint256",
          "name": "",
          "type": "uint256"
        }
      ],
      "stateMutability": "view",
      "type": "function",
      "constant": true
    }
  ],
  "bytecode": "0x608060405234801561001057600080fd5b50336000806101000a81548173ffffffffffffffffffffffffffffffffffffffff021916908373ffffffffffffffffffffffffffffffffffffffff1602179055506101a6806100606000396000f3fe608060405234801561001057600080fd5b50600436106100365760003560e01c806312065fe01461003b578063893d20e814610059575b600080fd5b610043610077565b60405161005091906100f9565b60405180910390f35b6100616100b7565b60405161006e9190610155565b60405180910390f35b60008060009054906101000a900473ffffffffffffffffffffffffffffffffffffffff1673ffffffffffffffffffffffffffffffffffffffff1631905090565b60008060009054906101000a900473ffffffffffffffffffffffffffffffffffffffff16905090565b6000819050919050565b6100f3816100e0565b82525050565b600060208201905061010e60008301846100ea565b92915050565b600073ffffffffffffffffffffffffffffffffffffffff82169050919050565b600061013f82610114565b9050919050565b61014f81610134565b82525050565b600060208201905061016a6000830184610146565b9291505056fea26469706673582212200d5daed82a439abeac9742cf9215ac128f36a8798e5eb8d07c6b7c94789f98a364736f6c63430008090033",
  "immutableReferences": {},
  "source": "// SPDX-License-Identifier: MIT\r\n\r\npragma solidity ^0.8.9;\r\n\r\ncontract User {\r\n\r\n   // Private state variable\r\n    address private owner;\r\n  \r\n    // Defining a constructor   \r\n    constructor() public{   \r\n        owner=msg.sender;\r\n    }\r\n  \r\n    // Function to get \r\n    // address of owner\r\n    function getOwner(\r\n    ) public view returns (address) {    \r\n        return owner;\r\n    }\r\n  \r\n    // Function to return \r\n    // current balance of owner\r\n    function getBalance(\r\n    ) public view returns(uint256){\r\n        return owner.balance;\r\n    }\r\n}\r\n",
  "sourcePath": "C:\\Users\\ryhil\\OneDrive\\Documents\\ODUCS\\CS764\\dmv_blockchain\\tiny-dapp\\contracts\\Users.sol",
  "compiler": {
    "name": "solc",
    "version": "0.8.9+commit.e5eed63a.Emscripten.clang"
  },
  "schemaVersion": "3.4.7",
  "updatedAt": "2022-05-01T14:58:48.362Z",
  "networkType": "ethereum",
  "devdoc": {
    "kind": "dev",
    "methods": {},
    "version": 1
  },
  "userdoc": {
    "kind": "user",
    "methods": {},
    "version": 1
  }
}